{
  "contractName": "Org",
  "abi": [
    {
      "inputs": [
        {
          "internalType": "bytes",
          "name": "name",
          "type": "bytes"
        },
        {
          "internalType": "bytes",
          "name": "addr",
          "type": "bytes"
        },
        {
          "internalType": "bytes",
          "name": "email",
          "type": "bytes"
        },
        {
          "internalType": "bytes",
          "name": "con",
          "type": "bytes"
        },
        {
          "internalType": "bytes",
          "name": "typ",
          "type": "bytes"
        }
      ],
      "stateMutability": "nonpayable",
      "type": "constructor"
    },
    {
      "anonymous": false,
      "inputs": [
        {
          "indexed": false,
          "internalType": "string",
          "name": "_message",
          "type": "string"
        }
      ],
      "name": "VerifyBuyers",
      "type": "event"
    },
    {
      "anonymous": false,
      "inputs": [
        {
          "indexed": false,
          "internalType": "string",
          "name": "_message",
          "type": "string"
        }
      ],
      "name": "VerifySellers",
      "type": "event"
    },
    {
      "anonymous": false,
      "inputs": [
        {
          "components": [
            {
              "internalType": "bytes",
              "name": "orderId",
              "type": "bytes"
            },
            {
              "internalType": "bytes",
              "name": "buyername",
              "type": "bytes"
            },
            {
              "internalType": "bytes",
              "name": "contact",
              "type": "bytes"
            },
            {
              "internalType": "uint256",
              "name": "order_date",
              "type": "uint256"
            },
            {
              "internalType": "bytes",
              "name": "product",
              "type": "bytes"
            },
            {
              "internalType": "uint256",
              "name": "quantity",
              "type": "uint256"
            },
            {
              "internalType": "uint256",
              "name": "price",
              "type": "uint256"
            }
          ],
          "indexed": false,
          "internalType": "struct Org.Order",
          "name": "_order",
          "type": "tuple"
        }
      ],
      "name": "onAddOrders",
      "type": "event"
    },
    {
      "anonymous": false,
      "inputs": [
        {
          "components": [
            {
              "internalType": "address",
              "name": "id",
              "type": "address"
            },
            {
              "internalType": "bytes",
              "name": "name",
              "type": "bytes"
            },
            {
              "internalType": "bytes",
              "name": "aadharno",
              "type": "bytes"
            },
            {
              "internalType": "bytes",
              "name": "addr",
              "type": "bytes"
            },
            {
              "internalType": "bytes",
              "name": "con",
              "type": "bytes"
            },
            {
              "internalType": "bytes",
              "name": "typ",
              "type": "bytes"
            },
            {
              "internalType": "bytes",
              "name": "landdetails",
              "type": "bytes"
            },
            {
              "internalType": "bytes",
              "name": "fertilizersused",
              "type": "bytes"
            },
            {
              "internalType": "bytes",
              "name": "noofcrops",
              "type": "bytes"
            },
            {
              "internalType": "bytes",
              "name": "role",
              "type": "bytes"
            },
            {
              "internalType": "bool",
              "name": "verified",
              "type": "bool"
            },
            {
              "internalType": "uint256",
              "name": "orderCount",
              "type": "uint256"
            }
          ],
          "indexed": false,
          "internalType": "struct Org.Farmer",
          "name": "_farmervalue",
          "type": "tuple"
        }
      ],
      "name": "onFarmerRegistration",
      "type": "event"
    },
    {
      "anonymous": false,
      "inputs": [
        {
          "components": [
            {
              "internalType": "address",
              "name": "id",
              "type": "address"
            },
            {
              "internalType": "bytes",
              "name": "name",
              "type": "bytes"
            },
            {
              "internalType": "bytes",
              "name": "email",
              "type": "bytes"
            },
            {
              "internalType": "bytes",
              "name": "con",
              "type": "bytes"
            },
            {
              "internalType": "bytes",
              "name": "gstno",
              "type": "bytes"
            },
            {
              "internalType": "bytes",
              "name": "addr",
              "type": "bytes"
            },
            {
              "internalType": "bytes",
              "name": "typ",
              "type": "bytes"
            },
            {
              "internalType": "bytes",
              "name": "role",
              "type": "bytes"
            },
            {
              "internalType": "bool",
              "name": "verified",
              "type": "bool"
            }
          ],
          "indexed": false,
          "internalType": "struct Org.Seller",
          "name": "_sellervalue",
          "type": "tuple"
        }
      ],
      "name": "onRegisterSeller",
      "type": "event"
    },
    {
      "inputs": [
        {
          "internalType": "bytes",
          "name": "name",
          "type": "bytes"
        },
        {
          "internalType": "bytes",
          "name": "aadharno",
          "type": "bytes"
        },
        {
          "internalType": "bytes",
          "name": "addr",
          "type": "bytes"
        },
        {
          "internalType": "bytes",
          "name": "con",
          "type": "bytes"
        },
        {
          "internalType": "bytes",
          "name": "typ",
          "type": "bytes"
        },
        {
          "internalType": "bytes",
          "name": "landdetails",
          "type": "bytes"
        },
        {
          "internalType": "bytes",
          "name": "fertilizersused",
          "type": "bytes"
        },
        {
          "internalType": "bytes",
          "name": "noofcrops",
          "type": "bytes"
        }
      ],
      "name": "registerFarmer",
      "outputs": [],
      "stateMutability": "nonpayable",
      "type": "function"
    },
    {
      "inputs": [
        {
          "internalType": "bytes",
          "name": "name",
          "type": "bytes"
        },
        {
          "internalType": "bytes",
          "name": "email",
          "type": "bytes"
        },
        {
          "internalType": "bytes",
          "name": "con",
          "type": "bytes"
        },
        {
          "internalType": "bytes",
          "name": "gstno",
          "type": "bytes"
        },
        {
          "internalType": "bytes",
          "name": "addr",
          "type": "bytes"
        },
        {
          "internalType": "bytes",
          "name": "typ",
          "type": "bytes"
        }
      ],
      "name": "registerSeller",
      "outputs": [],
      "stateMutability": "nonpayable",
      "type": "function"
    },
    {
      "inputs": [
        {
          "internalType": "bytes",
          "name": "orderId",
          "type": "bytes"
        },
        {
          "internalType": "bytes",
          "name": "buyername",
          "type": "bytes"
        },
        {
          "internalType": "bytes",
          "name": "contact",
          "type": "bytes"
        },
        {
          "internalType": "uint256",
          "name": "order_date",
          "type": "uint256"
        },
        {
          "internalType": "bytes",
          "name": "product",
          "type": "bytes"
        },
        {
          "internalType": "uint256",
          "name": "quantity",
          "type": "uint256"
        },
        {
          "internalType": "uint256",
          "name": "price",
          "type": "uint256"
        }
      ],
      "name": "addOrders",
      "outputs": [],
      "stateMutability": "nonpayable",
      "type": "function"
    },
    {
      "inputs": [],
      "name": "getOrders",
      "outputs": [
        {
          "components": [
            {
              "internalType": "bytes",
              "name": "orderId",
              "type": "bytes"
            },
            {
              "internalType": "bytes",
              "name": "buyername",
              "type": "bytes"
            },
            {
              "internalType": "bytes",
              "name": "contact",
              "type": "bytes"
            },
            {
              "internalType": "uint256",
              "name": "order_date",
              "type": "uint256"
            },
            {
              "internalType": "bytes",
              "name": "product",
              "type": "bytes"
            },
            {
              "internalType": "uint256",
              "name": "quantity",
              "type": "uint256"
            },
            {
              "internalType": "uint256",
              "name": "price",
              "type": "uint256"
            }
          ],
          "internalType": "struct Org.Order[]",
          "name": "",
          "type": "tuple[]"
        }
      ],
      "stateMutability": "view",
      "type": "function",
      "constant": true
    },
    {
      "inputs": [],
      "name": "getAdmin",
      "outputs": [
        {
          "components": [
            {
              "internalType": "address",
              "name": "id",
              "type": "address"
            },
            {
              "internalType": "bytes",
              "name": "name",
              "type": "bytes"
            },
            {
              "internalType": "bytes",
              "name": "addr",
              "type": "bytes"
            },
            {
              "internalType": "bytes",
              "name": "email",
              "type": "bytes"
            },
            {
              "internalType": "bytes",
              "name": "con",
              "type": "bytes"
            },
            {
              "internalType": "bytes",
              "name": "typ",
              "type": "bytes"
            },
            {
              "internalType": "bytes",
              "name": "role",
              "type": "bytes"
            },
            {
              "internalType": "bool",
              "name": "verified",
              "type": "bool"
            }
          ],
          "internalType": "struct Org.Admin",
          "name": "",
          "type": "tuple"
        }
      ],
      "stateMutability": "view",
      "type": "function",
      "constant": true
    },
    {
      "inputs": [],
      "name": "getBuyer",
      "outputs": [
        {
          "components": [
            {
              "internalType": "address",
              "name": "id",
              "type": "address"
            },
            {
              "internalType": "bytes",
              "name": "name",
              "type": "bytes"
            },
            {
              "internalType": "bytes",
              "name": "aadharno",
              "type": "bytes"
            },
            {
              "internalType": "bytes",
              "name": "addr",
              "type": "bytes"
            },
            {
              "internalType": "bytes",
              "name": "con",
              "type": "bytes"
            },
            {
              "internalType": "bytes",
              "name": "typ",
              "type": "bytes"
            },
            {
              "internalType": "bytes",
              "name": "landdetails",
              "type": "bytes"
            },
            {
              "internalType": "bytes",
              "name": "fertilizersused",
              "type": "bytes"
            },
            {
              "internalType": "bytes",
              "name": "noofcrops",
              "type": "bytes"
            },
            {
              "internalType": "bytes",
              "name": "role",
              "type": "bytes"
            },
            {
              "internalType": "bool",
              "name": "verified",
              "type": "bool"
            },
            {
              "internalType": "uint256",
              "name": "orderCount",
              "type": "uint256"
            }
          ],
          "internalType": "struct Org.Farmer",
          "name": "",
          "type": "tuple"
        }
      ],
      "stateMutability": "view",
      "type": "function",
      "constant": true
    },
    {
      "inputs": [],
      "name": "getSeller",
      "outputs": [
        {
          "components": [
            {
              "internalType": "address",
              "name": "id",
              "type": "address"
            },
            {
              "internalType": "bytes",
              "name": "name",
              "type": "bytes"
            },
            {
              "internalType": "bytes",
              "name": "email",
              "type": "bytes"
            },
            {
              "internalType": "bytes",
              "name": "con",
              "type": "bytes"
            },
            {
              "internalType": "bytes",
              "name": "gstno",
              "type": "bytes"
            },
            {
              "internalType": "bytes",
              "name": "addr",
              "type": "bytes"
            },
            {
              "internalType": "bytes",
              "name": "typ",
              "type": "bytes"
            },
            {
              "internalType": "bytes",
              "name": "role",
              "type": "bytes"
            },
            {
              "internalType": "bool",
              "name": "verified",
              "type": "bool"
            }
          ],
          "internalType": "struct Org.Seller",
          "name": "",
          "type": "tuple"
        }
      ],
      "stateMutability": "view",
      "type": "function",
      "constant": true
    },
    {
      "inputs": [],
      "name": "getUnverifiedBuyers",
      "outputs": [
        {
          "components": [
            {
              "internalType": "address",
              "name": "id",
              "type": "address"
            },
            {
              "internalType": "bytes",
              "name": "name",
              "type": "bytes"
            },
            {
              "internalType": "bytes",
              "name": "aadharno",
              "type": "bytes"
            },
            {
              "internalType": "bytes",
              "name": "addr",
              "type": "bytes"
            },
            {
              "internalType": "bytes",
              "name": "con",
              "type": "bytes"
            },
            {
              "internalType": "bytes",
              "name": "typ",
              "type": "bytes"
            },
            {
              "internalType": "bytes",
              "name": "landdetails",
              "type": "bytes"
            },
            {
              "internalType": "bytes",
              "name": "fertilizersused",
              "type": "bytes"
            },
            {
              "internalType": "bytes",
              "name": "noofcrops",
              "type": "bytes"
            },
            {
              "internalType": "bytes",
              "name": "role",
              "type": "bytes"
            },
            {
              "internalType": "bool",
              "name": "verified",
              "type": "bool"
            },
            {
              "internalType": "uint256",
              "name": "orderCount",
              "type": "uint256"
            }
          ],
          "internalType": "struct Org.Farmer[]",
          "name": "",
          "type": "tuple[]"
        }
      ],
      "stateMutability": "view",
      "type": "function",
      "constant": true
    },
    {
      "inputs": [],
      "name": "getUnverifiedSellers",
      "outputs": [
        {
          "components": [
            {
              "internalType": "address",
              "name": "id",
              "type": "address"
            },
            {
              "internalType": "bytes",
              "name": "name",
              "type": "bytes"
            },
            {
              "internalType": "bytes",
              "name": "email",
              "type": "bytes"
            },
            {
              "internalType": "bytes",
              "name": "con",
              "type": "bytes"
            },
            {
              "internalType": "bytes",
              "name": "gstno",
              "type": "bytes"
            },
            {
              "internalType": "bytes",
              "name": "addr",
              "type": "bytes"
            },
            {
              "internalType": "bytes",
              "name": "typ",
              "type": "bytes"
            },
            {
              "internalType": "bytes",
              "name": "role",
              "type": "bytes"
            },
            {
              "internalType": "bool",
              "name": "verified",
              "type": "bool"
            }
          ],
          "internalType": "struct Org.Seller[]",
          "name": "",
          "type": "tuple[]"
        }
      ],
      "stateMutability": "view",
      "type": "function",
      "constant": true
    },
    {
      "inputs": [],
      "name": "getVerifiedBuyers",
      "outputs": [
        {
          "components": [
            {
              "internalType": "address",
              "name": "id",
              "type": "address"
            },
            {
              "internalType": "bytes",
              "name": "name",
              "type": "bytes"
            },
            {
              "internalType": "bytes",
              "name": "aadharno",
              "type": "bytes"
            },
            {
              "internalType": "bytes",
              "name": "addr",
              "type": "bytes"
            },
            {
              "internalType": "bytes",
              "name": "con",
              "type": "bytes"
            },
            {
              "internalType": "bytes",
              "name": "typ",
              "type": "bytes"
            },
            {
              "internalType": "bytes",
              "name": "landdetails",
              "type": "bytes"
            },
            {
              "internalType": "bytes",
              "name": "fertilizersused",
              "type": "bytes"
            },
            {
              "internalType": "bytes",
              "name": "noofcrops",
              "type": "bytes"
            },
            {
              "internalType": "bytes",
              "name": "role",
              "type": "bytes"
            },
            {
              "internalType": "bool",
              "name": "verified",
              "type": "bool"
            },
            {
              "internalType": "uint256",
              "name": "orderCount",
              "type": "uint256"
            }
          ],
          "internalType": "struct Org.Farmer[]",
          "name": "",
          "type": "tuple[]"
        }
      ],
      "stateMutability": "view",
      "type": "function",
      "constant": true
    },
    {
      "inputs": [],
      "name": "getVerifiedSellers",
      "outputs": [
        {
          "components": [
            {
              "internalType": "address",
              "name": "id",
              "type": "address"
            },
            {
              "internalType": "bytes",
              "name": "name",
              "type": "bytes"
            },
            {
              "internalType": "bytes",
              "name": "email",
              "type": "bytes"
            },
            {
              "internalType": "bytes",
              "name": "con",
              "type": "bytes"
            },
            {
              "internalType": "bytes",
              "name": "gstno",
              "type": "bytes"
            },
            {
              "internalType": "bytes",
              "name": "addr",
              "type": "bytes"
            },
            {
              "internalType": "bytes",
              "name": "typ",
              "type": "bytes"
            },
            {
              "internalType": "bytes",
              "name": "role",
              "type": "bytes"
            },
            {
              "internalType": "bool",
              "name": "verified",
              "type": "bool"
            }
          ],
          "internalType": "struct Org.Seller[]",
          "name": "",
          "type": "tuple[]"
        }
      ],
      "stateMutability": "view",
      "type": "function",
      "constant": true
    },
    {
      "inputs": [
        {
          "internalType": "address",
          "name": "_address",
          "type": "address"
        }
      ],
      "name": "verifyBuyers",
      "outputs": [],
      "stateMutability": "nonpayable",
      "type": "function"
    },
    {
      "inputs": [
        {
          "internalType": "address",
          "name": "_address",
          "type": "address"
        }
      ],
      "name": "verifySellers",
      "outputs": [],
      "stateMutability": "nonpayable",
      "type": "function"
    },
    {
      "inputs": [],
      "name": "getVerifiedBuyerCount",
      "outputs": [
        {
          "internalType": "uint256",
          "name": "",
          "type": "uint256"
        }
      ],
      "stateMutability": "view",
      "type": "function",
      "constant": true
    },
    {
      "inputs": [],
      "name": "getVerifiedSellerCount",
      "outputs": [
        {
          "internalType": "uint256",
          "name": "",
          "type": "uint256"
        }
      ],
      "stateMutability": "view",
      "type": "function",
      "constant": true
    }
  ],
  "bytecode": "0x60806040526005600b556000600c556000600d553480156200002057600080fd5b5060405162005b5438038062005b5483398181016040528101906200004691906200044b565b6040518061010001604052803373ffffffffffffffffffffffffffffffffffffffff1681526020018681526020018581526020018481526020018381526020018281526020016040518060400160405280600581526020017f61646d696e0000000000000000000000000000000000000000000000000000008152508152602001600115158152506000808201518160000160006101000a81548173ffffffffffffffffffffffffffffffffffffffff021916908373ffffffffffffffffffffffffffffffffffffffff160217905550602082015181600101908051906020019062000134929190620001fe565b50604082015181600201908051906020019062000153929190620001fe565b50606082015181600301908051906020019062000172929190620001fe565b50608082015181600401908051906020019062000191929190620001fe565b5060a0820151816005019080519060200190620001b0929190620001fe565b5060c0820151816006019080519060200190620001cf929190620001fe565b5060e08201518160070160006101000a81548160ff0219169083151502179055509050505050505050620005d3565b8280546200020c906200059d565b90600052602060002090601f0160209004810192826200023057600085556200027c565b82601f106200024b57805160ff19168380011785556200027c565b828001600101855582156200027c579182015b828111156200027b5782518255916020019190600101906200025e565b5b5090506200028b91906200028f565b5090565b5b80821115620002aa57600081600090555060010162000290565b5090565b6000604051905090565b600080fd5b600080fd5b600080fd5b600080fd5b6000601f19601f8301169050919050565b7f4e487b7100000000000000000000000000000000000000000000000000000000600052604160045260246000fd5b6200031782620002cc565b810181811067ffffffffffffffff82111715620003395762000338620002dd565b5b80604052505050565b60006200034e620002ae565b90506200035c82826200030c565b919050565b600067ffffffffffffffff8211156200037f576200037e620002dd565b5b6200038a82620002cc565b9050602081019050919050565b60005b83811015620003b75780820151818401526020810190506200039a565b83811115620003c7576000848401525b50505050565b6000620003e4620003de8462000361565b62000342565b905082815260208101848484011115620004035762000402620002c7565b5b6200041084828562000397565b509392505050565b600082601f83011262000430576200042f620002c2565b5b815162000442848260208601620003cd565b91505092915050565b600080600080600060a086880312156200046a5762000469620002b8565b5b600086015167ffffffffffffffff8111156200048b576200048a620002bd565b5b620004998882890162000418565b955050602086015167ffffffffffffffff811115620004bd57620004bc620002bd565b5b620004cb8882890162000418565b945050604086015167ffffffffffffffff811115620004ef57620004ee620002bd565b5b620004fd8882890162000418565b935050606086015167ffffffffffffffff811115620005215762000520620002bd565b5b6200052f8882890162000418565b925050608086015167ffffffffffffffff811115620005535762000552620002bd565b5b620005618882890162000418565b9150509295509295909350565b7f4e487b7100000000000000000000000000000000000000000000000000000000600052602260045260246000fd5b60006002820490506001821680620005b657607f821691505b60208210811415620005cd57620005cc6200056e565b5b50919050565b61557180620005e36000396000f3fe608060405234801561001057600080fd5b50600436106100f55760003560e01c806371f64abd11610097578063dbd0e1b611610066578063dbd0e1b61461023c578063f08cfbed1461025a578063f518709514610276578063f75fcb9f14610294576100f5565b806371f64abd146101c857806376b52ee6146101e4578063823ebda314610202578063abde86301461021e576100f5565b806345e86b41116100d357806345e86b411461015257806352765a9e1461016e578063603daf9a1461018c5780636e9960c3146101aa576100f5565b80631055a241146100fa57806321f20c19146101185780632e2dc43e14610134575b600080fd5b6101026102b2565b60405161010f9190613ffa565b60405180910390f35b610132600480360381019061012d919061405c565b61096c565b005b61013c610b63565b60405161014991906141fc565b60405180910390f35b61016c60048036038101906101679190614353565b610e28565b005b610176611137565b6040516101839190613ffa565b60405180910390f35b6101946117e2565b6040516101a19190614625565b60405180910390f35b6101b2611e64565b6040516101bf919061471a565b60405180910390f35b6101e260048036038101906101dd919061405c565b61225c565b005b6101ec612453565b6040516101f9919061474b565b60405180910390f35b61021c60048036038101906102179190614792565b61245d565b005b610226612751565b604051610233919061474b565b60405180910390f35b61024461275b565b6040516102519190614993565b60405180910390f35b610274600480360381019061026f91906149b5565b612caf565b005b61027e612f62565b60405161028b9190614c9b565b60405180910390f35b61029c6134ee565b6040516102a99190614c9b565b60405180910390f35b60606000600c546008805490506102c99190614cec565b67ffffffffffffffff8111156102e2576102e1614228565b5b60405190808252806020026020018201604052801561031b57816020015b610308613b11565b8152602001906001900390816103005790505b5090506000805b600880549050811015610963576008818154811061034357610342614d20565b5b90600052602060002090600c0201600a0160009054906101000a900460ff16610950576008818154811061037a57610379614d20565b5b90600052602060002090600c0201604051806101800160405290816000820160009054906101000a900473ffffffffffffffffffffffffffffffffffffffff1673ffffffffffffffffffffffffffffffffffffffff1673ffffffffffffffffffffffffffffffffffffffff1681526020016001820180546103fa90614d7e565b80601f016020809104026020016040519081016040528092919081815260200182805461042690614d7e565b80156104735780601f1061044857610100808354040283529160200191610473565b820191906000526020600020905b81548152906001019060200180831161045657829003601f168201915b5050505050815260200160028201805461048c90614d7e565b80601f01602080910402602001604051908101604052809291908181526020018280546104b890614d7e565b80156105055780601f106104da57610100808354040283529160200191610505565b820191906000526020600020905b8154815290600101906020018083116104e857829003601f168201915b5050505050815260200160038201805461051e90614d7e565b80601f016020809104026020016040519081016040528092919081815260200182805461054a90614d7e565b80156105975780601f1061056c57610100808354040283529160200191610597565b820191906000526020600020905b81548152906001019060200180831161057a57829003601f168201915b505050505081526020016004820180546105b090614d7e565b80601f01602080910402602001604051908101604052809291908181526020018280546105dc90614d7e565b80156106295780601f106105fe57610100808354040283529160200191610629565b820191906000526020600020905b81548152906001019060200180831161060c57829003601f168201915b5050505050815260200160058201805461064290614d7e565b80601f016020809104026020016040519081016040528092919081815260200182805461066e90614d7e565b80156106bb5780601f10610690576101008083540402835291602001916106bb565b820191906000526020600020905b81548152906001019060200180831161069e57829003601f168201915b505050505081526020016006820180546106d490614d7e565b80601f016020809104026020016040519081016040528092919081815260200182805461070090614d7e565b801561074d5780601f106107225761010080835404028352916020019161074d565b820191906000526020600020905b81548152906001019060200180831161073057829003601f168201915b5050505050815260200160078201805461076690614d7e565b80601f016020809104026020016040519081016040528092919081815260200182805461079290614d7e565b80156107df5780601f106107b4576101008083540402835291602001916107df565b820191906000526020600020905b8154815290600101906020018083116107c257829003601f168201915b505050505081526020016008820180546107f890614d7e565b80601f016020809104026020016040519081016040528092919081815260200182805461082490614d7e565b80156108715780601f1061084657610100808354040283529160200191610871565b820191906000526020600020905b81548152906001019060200180831161085457829003601f168201915b5050505050815260200160098201805461088a90614d7e565b80601f01602080910402602001604051908101604052809291908181526020018280546108b690614d7e565b80156109035780601f106108d857610100808354040283529160200191610903565b820191906000526020600020905b8154815290600101906020018083116108e657829003601f168201915b50505050508152602001600a820160009054906101000a900460ff16151515158152602001600b8201548152505083838151811061094457610943614d20565b5b60200260200101819052505b808061095b90614db0565b915050610322565b50819250505090565b6000800160009054906101000a900473ffffffffffffffffffffffffffffffffffffffff1673ffffffffffffffffffffffffffffffffffffffff163373ffffffffffffffffffffffffffffffffffffffff16146109fe576040517f08c379a00000000000000000000000000000000000000000000000000000000081526004016109f590614e7c565b60405180910390fd5b60005b600980549050811015610b2a578173ffffffffffffffffffffffffffffffffffffffff1660098281548110610a3957610a38614d20565b5b906000526020600020906009020160000160009054906101000a900473ffffffffffffffffffffffffffffffffffffffff1673ffffffffffffffffffffffffffffffffffffffff161415610b1757600160098281548110610a9d57610a9c614d20565b5b906000526020600020906009020160080160006101000a81548160ff021916908315150217905550600d6000815480929190610ad890614db0565b91905055507fa379dad39af58b0f35f6930262c5bdf0cde3cb8aabe122a33a582648d6dbbb7a604051610b0a90614ee8565b60405180910390a1610b2a565b8080610b2290614db0565b915050610a01565b507fa379dad39af58b0f35f6930262c5bdf0cde3cb8aabe122a33a582648d6dbbb7a604051610b5890614f54565b60405180910390a150565b6060600a805480602002602001604051908101604052809291908181526020016000905b82821015610e1f57838290600052602060002090600702016040518060e0016040529081600082018054610bba90614d7e565b80601f0160208091040260200160405190810160405280929190818152602001828054610be690614d7e565b8015610c335780601f10610c0857610100808354040283529160200191610c33565b820191906000526020600020905b815481529060010190602001808311610c1657829003601f168201915b50505050508152602001600182018054610c4c90614d7e565b80601f0160208091040260200160405190810160405280929190818152602001828054610c7890614d7e565b8015610cc55780601f10610c9a57610100808354040283529160200191610cc5565b820191906000526020600020905b815481529060010190602001808311610ca857829003601f168201915b50505050508152602001600282018054610cde90614d7e565b80601f0160208091040260200160405190810160405280929190818152602001828054610d0a90614d7e565b8015610d575780601f10610d2c57610100808354040283529160200191610d57565b820191906000526020600020905b815481529060010190602001808311610d3a57829003601f168201915b5050505050815260200160038201548152602001600482018054610d7a90614d7e565b80601f0160208091040260200160405190810160405280929190818152602001828054610da690614d7e565b8015610df35780601f10610dc857610100808354040283529160200191610df3565b820191906000526020600020905b815481529060010190602001808311610dd657829003601f168201915b505050505081526020016005820154815260200160068201548152505081526020019060010190610b87565b50505050905090565b6000610e326117e2565b9050600073ffffffffffffffffffffffffffffffffffffffff16816000015173ffffffffffffffffffffffffffffffffffffffff1614610ea7576040517f08c379a0000000000000000000000000000000000000000000000000000000008152600401610e9e90614fc0565b60405180910390fd5b60006040518061018001604052803373ffffffffffffffffffffffffffffffffffffffff1681526020018b81526020018a81526020018981526020018881526020018781526020018681526020018581526020018481526020016040518060400160405280600581526020017f627579657200000000000000000000000000000000000000000000000000000081525081526020016000151581526020016000815250905060088190806001815401808255809150506001900390600052602060002090600c020160009091909190915060008201518160000160006101000a81548173ffffffffffffffffffffffffffffffffffffffff021916908373ffffffffffffffffffffffffffffffffffffffff1602179055506020820151816001019080519060200190610fdb929190613b8a565b506040820151816002019080519060200190610ff8929190613b8a565b506060820151816003019080519060200190611015929190613b8a565b506080820151816004019080519060200190611032929190613b8a565b5060a082015181600501908051906020019061104f929190613b8a565b5060c082015181600601908051906020019061106c929190613b8a565b5060e0820151816007019080519060200190611089929190613b8a565b506101008201518160080190805190602001906110a7929190613b8a565b506101208201518160090190805190602001906110c5929190613b8a565b5061014082015181600a0160006101000a81548160ff02191690831515021790555061016082015181600b015550507fe544271fb2ae6362ae468b495e2a08bd05f986fca644adb5acbeb97036a4cc89816040516111239190614625565b60405180910390a150505050505050505050565b60606000600c5467ffffffffffffffff81111561115757611156614228565b5b60405190808252806020026020018201604052801561119057816020015b61117d613b11565b8152602001906001900390816111755790505b5090506000805b6008805490508110156117d957600881815481106111b8576111b7614d20565b5b90600052602060002090600c0201600a0160009054906101000a900460ff16156117c657600881815481106111f0576111ef614d20565b5b90600052602060002090600c0201604051806101800160405290816000820160009054906101000a900473ffffffffffffffffffffffffffffffffffffffff1673ffffffffffffffffffffffffffffffffffffffff1673ffffffffffffffffffffffffffffffffffffffff16815260200160018201805461127090614d7e565b80601f016020809104026020016040519081016040528092919081815260200182805461129c90614d7e565b80156112e95780601f106112be576101008083540402835291602001916112e9565b820191906000526020600020905b8154815290600101906020018083116112cc57829003601f168201915b5050505050815260200160028201805461130290614d7e565b80601f016020809104026020016040519081016040528092919081815260200182805461132e90614d7e565b801561137b5780601f106113505761010080835404028352916020019161137b565b820191906000526020600020905b81548152906001019060200180831161135e57829003601f168201915b5050505050815260200160038201805461139490614d7e565b80601f01602080910402602001604051908101604052809291908181526020018280546113c090614d7e565b801561140d5780601f106113e25761010080835404028352916020019161140d565b820191906000526020600020905b8154815290600101906020018083116113f057829003601f168201915b5050505050815260200160048201805461142690614d7e565b80601f016020809104026020016040519081016040528092919081815260200182805461145290614d7e565b801561149f5780601f106114745761010080835404028352916020019161149f565b820191906000526020600020905b81548152906001019060200180831161148257829003601f168201915b505050505081526020016005820180546114b890614d7e565b80601f01602080910402602001604051908101604052809291908181526020018280546114e490614d7e565b80156115315780601f1061150657610100808354040283529160200191611531565b820191906000526020600020905b81548152906001019060200180831161151457829003601f168201915b5050505050815260200160068201805461154a90614d7e565b80601f016020809104026020016040519081016040528092919081815260200182805461157690614d7e565b80156115c35780601f10611598576101008083540402835291602001916115c3565b820191906000526020600020905b8154815290600101906020018083116115a657829003601f168201915b505050505081526020016007820180546115dc90614d7e565b80601f016020809104026020016040519081016040528092919081815260200182805461160890614d7e565b80156116555780601f1061162a57610100808354040283529160200191611655565b820191906000526020600020905b81548152906001019060200180831161163857829003601f168201915b5050505050815260200160088201805461166e90614d7e565b80601f016020809104026020016040519081016040528092919081815260200182805461169a90614d7e565b80156116e75780601f106116bc576101008083540402835291602001916116e7565b820191906000526020600020905b8154815290600101906020018083116116ca57829003601f168201915b5050505050815260200160098201805461170090614d7e565b80601f016020809104026020016040519081016040528092919081815260200182805461172c90614d7e565b80156117795780601f1061174e57610100808354040283529160200191611779565b820191906000526020600020905b81548152906001019060200180831161175c57829003601f168201915b50505050508152602001600a820160009054906101000a900460ff16151515158152602001600b820154815250508383815181106117ba576117b9614d20565b5b60200260200101819052505b80806117d190614db0565b915050611197565b50819250505090565b6117ea613b11565b6117f2613b11565b60005b600880549050811015611e5c573373ffffffffffffffffffffffffffffffffffffffff166008828154811061182d5761182c614d20565b5b90600052602060002090600c020160000160009054906101000a900473ffffffffffffffffffffffffffffffffffffffff1673ffffffffffffffffffffffffffffffffffffffff161415611e49576008818154811061188f5761188e614d20565b5b90600052602060002090600c0201604051806101800160405290816000820160009054906101000a900473ffffffffffffffffffffffffffffffffffffffff1673ffffffffffffffffffffffffffffffffffffffff1673ffffffffffffffffffffffffffffffffffffffff16815260200160018201805461190f90614d7e565b80601f016020809104026020016040519081016040528092919081815260200182805461193b90614d7e565b80156119885780601f1061195d57610100808354040283529160200191611988565b820191906000526020600020905b81548152906001019060200180831161196b57829003601f168201915b505050505081526020016002820180546119a190614d7e565b80601f01602080910402602001604051908101604052809291908181526020018280546119cd90614d7e565b8015611a1a5780601f106119ef57610100808354040283529160200191611a1a565b820191906000526020600020905b8154815290600101906020018083116119fd57829003601f168201915b50505050508152602001600382018054611a3390614d7e565b80601f0160208091040260200160405190810160405280929190818152602001828054611a5f90614d7e565b8015611aac5780601f10611a8157610100808354040283529160200191611aac565b820191906000526020600020905b815481529060010190602001808311611a8f57829003601f168201915b50505050508152602001600482018054611ac590614d7e565b80601f0160208091040260200160405190810160405280929190818152602001828054611af190614d7e565b8015611b3e5780601f10611b1357610100808354040283529160200191611b3e565b820191906000526020600020905b815481529060010190602001808311611b2157829003601f168201915b50505050508152602001600582018054611b5790614d7e565b80601f0160208091040260200160405190810160405280929190818152602001828054611b8390614d7e565b8015611bd05780601f10611ba557610100808354040283529160200191611bd0565b820191906000526020600020905b815481529060010190602001808311611bb357829003601f168201915b50505050508152602001600682018054611be990614d7e565b80601f0160208091040260200160405190810160405280929190818152602001828054611c1590614d7e565b8015611c625780601f10611c3757610100808354040283529160200191611c62565b820191906000526020600020905b815481529060010190602001808311611c4557829003601f168201915b50505050508152602001600782018054611c7b90614d7e565b80601f0160208091040260200160405190810160405280929190818152602001828054611ca790614d7e565b8015611cf45780601f10611cc957610100808354040283529160200191611cf4565b820191906000526020600020905b815481529060010190602001808311611cd757829003601f168201915b50505050508152602001600882018054611d0d90614d7e565b80601f0160208091040260200160405190810160405280929190818152602001828054611d3990614d7e565b8015611d865780601f10611d5b57610100808354040283529160200191611d86565b820191906000526020600020905b815481529060010190602001808311611d6957829003601f168201915b50505050508152602001600982018054611d9f90614d7e565b80601f0160208091040260200160405190810160405280929190818152602001828054611dcb90614d7e565b8015611e185780601f10611ded57610100808354040283529160200191611e18565b820191906000526020600020905b815481529060010190602001808311611dfb57829003601f168201915b50505050508152602001600a820160009054906101000a900460ff16151515158152602001600b8201548152505091505b8080611e5490614db0565b9150506117f5565b508091505090565b611e6c613c10565b6000604051806101000160405290816000820160009054906101000a900473ffffffffffffffffffffffffffffffffffffffff1673ffffffffffffffffffffffffffffffffffffffff1673ffffffffffffffffffffffffffffffffffffffff168152602001600182018054611ee090614d7e565b80601f0160208091040260200160405190810160405280929190818152602001828054611f0c90614d7e565b8015611f595780601f10611f2e57610100808354040283529160200191611f59565b820191906000526020600020905b815481529060010190602001808311611f3c57829003601f168201915b50505050508152602001600282018054611f7290614d7e565b80601f0160208091040260200160405190810160405280929190818152602001828054611f9e90614d7e565b8015611feb5780601f10611fc057610100808354040283529160200191611feb565b820191906000526020600020905b815481529060010190602001808311611fce57829003601f168201915b5050505050815260200160038201805461200490614d7e565b80601f016020809104026020016040519081016040528092919081815260200182805461203090614d7e565b801561207d5780601f106120525761010080835404028352916020019161207d565b820191906000526020600020905b81548152906001019060200180831161206057829003601f168201915b5050505050815260200160048201805461209690614d7e565b80601f01602080910402602001604051908101604052809291908181526020018280546120c290614d7e565b801561210f5780601f106120e45761010080835404028352916020019161210f565b820191906000526020600020905b8154815290600101906020018083116120f257829003601f168201915b5050505050815260200160058201805461212890614d7e565b80601f016020809104026020016040519081016040528092919081815260200182805461215490614d7e565b80156121a15780601f10612176576101008083540402835291602001916121a1565b820191906000526020600020905b81548152906001019060200180831161218457829003601f168201915b505050505081526020016006820180546121ba90614d7e565b80601f01602080910402602001604051908101604052809291908181526020018280546121e690614d7e565b80156122335780601f1061220857610100808354040283529160200191612233565b820191906000526020600020905b81548152906001019060200180831161221657829003601f168201915b505050505081526020016007820160009054906101000a900460ff161515151581525050905090565b6000800160009054906101000a900473ffffffffffffffffffffffffffffffffffffffff1673ffffffffffffffffffffffffffffffffffffffff163373ffffffffffffffffffffffffffffffffffffffff16146122ee576040517f08c379a00000000000000000000000000000000000000000000000000000000081526004016122e59061502c565b60405180910390fd5b60005b60088054905081101561241a578173ffffffffffffffffffffffffffffffffffffffff166008828154811061232957612328614d20565b5b90600052602060002090600c020160000160009054906101000a900473ffffffffffffffffffffffffffffffffffffffff1673ffffffffffffffffffffffffffffffffffffffff1614156124075760016008828154811061238d5761238c614d20565b5b90600052602060002090600c0201600a0160006101000a81548160ff021916908315150217905550600c60008154809291906123c890614db0565b91905055507f1fd367a936cb02134d1fcabf294982ccd371a72d89e3b0d3e788305d3600ddd46040516123fa90615098565b60405180910390a161241a565b808061241290614db0565b9150506122f1565b507f1fd367a936cb02134d1fcabf294982ccd371a72d89e3b0d3e788305d3600ddd460405161244890615104565b60405180910390a150565b6000600c54905090565b600061246761275b565b9050600073ffffffffffffffffffffffffffffffffffffffff16816000015173ffffffffffffffffffffffffffffffffffffffff1614156124dd576040517f08c379a00000000000000000000000000000000000000000000000000000000081526004016124d490615196565b60405180910390fd5b806101000151612522576040517f08c379a000000000000000000000000000000000000000000000000000000000815260040161251990615228565b60405180910390fd5b600061252d87613a6b565b90506000811215612573576040517f08c379a000000000000000000000000000000000000000000000000000000000815260040161256a90615294565b60405180910390fd5b600b546008828154811061258a57612589614d20565b5b90600052602060002090600c0201600b0154106125dc576040517f08c379a00000000000000000000000000000000000000000000000000000000081526004016125d390615326565b60405180910390fd5b60006040518060e001604052808b81526020018a8152602001898152602001888152602001878152602001868152602001858152509050600a819080600181540180825580915050600190039060005260206000209060070201600090919091909150600082015181600001908051906020019061265b929190613b8a565b506020820151816001019080519060200190612678929190613b8a565b506040820151816002019080519060200190612695929190613b8a565b506060820151816003015560808201518160040190805190602001906126bc929190613b8a565b5060a0820151816005015560c082015181600601555050600882815481106126e7576126e6614d20565b5b90600052602060002090600c0201600b01600081548092919061270990614db0565b91905055507fc67df93cc01178b4e493f44d147abbeb934eac7d25462456f5c5326a3a84c7cf8160405161273d91906153f7565b60405180910390a150505050505050505050565b6000600d54905090565b612763613c6d565b61276b613c6d565b60005b600980549050811015612ca7573373ffffffffffffffffffffffffffffffffffffffff16600982815481106127a6576127a5614d20565b5b906000526020600020906009020160000160009054906101000a900473ffffffffffffffffffffffffffffffffffffffff1673ffffffffffffffffffffffffffffffffffffffff161415612c94576009818154811061280857612807614d20565b5b9060005260206000209060090201604051806101200160405290816000820160009054906101000a900473ffffffffffffffffffffffffffffffffffffffff1673ffffffffffffffffffffffffffffffffffffffff1673ffffffffffffffffffffffffffffffffffffffff16815260200160018201805461288890614d7e565b80601f01602080910402602001604051908101604052809291908181526020018280546128b490614d7e565b80156129015780601f106128d657610100808354040283529160200191612901565b820191906000526020600020905b8154815290600101906020018083116128e457829003601f168201915b5050505050815260200160028201805461291a90614d7e565b80601f016020809104026020016040519081016040528092919081815260200182805461294690614d7e565b80156129935780601f1061296857610100808354040283529160200191612993565b820191906000526020600020905b81548152906001019060200180831161297657829003601f168201915b505050505081526020016003820180546129ac90614d7e565b80601f01602080910402602001604051908101604052809291908181526020018280546129d890614d7e565b8015612a255780601f106129fa57610100808354040283529160200191612a25565b820191906000526020600020905b815481529060010190602001808311612a0857829003601f168201915b50505050508152602001600482018054612a3e90614d7e565b80601f0160208091040260200160405190810160405280929190818152602001828054612a6a90614d7e565b8015612ab75780601f10612a8c57610100808354040283529160200191612ab7565b820191906000526020600020905b815481529060010190602001808311612a9a57829003601f168201915b50505050508152602001600582018054612ad090614d7e565b80601f0160208091040260200160405190810160405280929190818152602001828054612afc90614d7e565b8015612b495780601f10612b1e57610100808354040283529160200191612b49565b820191906000526020600020905b815481529060010190602001808311612b2c57829003601f168201915b50505050508152602001600682018054612b6290614d7e565b80601f0160208091040260200160405190810160405280929190818152602001828054612b8e90614d7e565b8015612bdb5780601f10612bb057610100808354040283529160200191612bdb565b820191906000526020600020905b815481529060010190602001808311612bbe57829003601f168201915b50505050508152602001600782018054612bf490614d7e565b80601f0160208091040260200160405190810160405280929190818152602001828054612c2090614d7e565b8015612c6d5780601f10612c4257610100808354040283529160200191612c6d565b820191906000526020600020905b815481529060010190602001808311612c5057829003601f168201915b505050505081526020016008820160009054906101000a900460ff16151515158152505091505b8080612c9f90614db0565b91505061276e565b508091505090565b6000612cb961275b565b9050600073ffffffffffffffffffffffffffffffffffffffff16816000015173ffffffffffffffffffffffffffffffffffffffff1614612d2e576040517f08c379a0000000000000000000000000000000000000000000000000000000008152600401612d2590615465565b60405180910390fd5b60006040518061012001604052803373ffffffffffffffffffffffffffffffffffffffff1681526020018981526020018881526020018781526020018681526020018581526020018481526020016040518060400160405280600681526020017f73656c6c657200000000000000000000000000000000000000000000000000008152508152602001600015158152509050600981908060018154018082558091505060019003906000526020600020906009020160009091909190915060008201518160000160006101000a81548173ffffffffffffffffffffffffffffffffffffffff021916908373ffffffffffffffffffffffffffffffffffffffff1602179055506020820151816001019080519060200190612e4f929190613b8a565b506040820151816002019080519060200190612e6c929190613b8a565b506060820151816003019080519060200190612e89929190613b8a565b506080820151816004019080519060200190612ea6929190613b8a565b5060a0820151816005019080519060200190612ec3929190613b8a565b5060c0820151816006019080519060200190612ee0929190613b8a565b5060e0820151816007019080519060200190612efd929190613b8a565b506101008201518160080160006101000a81548160ff02191690831515021790555050507f4d6c9cb9e736695727b9911179f91c71830c89645e085ef34943f6347666407581604051612f509190614993565b60405180910390a15050505050505050565b60606000600d54600980549050612f799190614cec565b67ffffffffffffffff811115612f9257612f91614228565b5b604051908082528060200260200182016040528015612fcb57816020015b612fb8613c6d565b815260200190600190039081612fb05790505b5090506000805b6009805490508110156134e55760098181548110612ff357612ff2614d20565b5b906000526020600020906009020160080160009054906101000a900460ff166134d2576009818154811061302a57613029614d20565b5b9060005260206000209060090201604051806101200160405290816000820160009054906101000a900473ffffffffffffffffffffffffffffffffffffffff1673ffffffffffffffffffffffffffffffffffffffff1673ffffffffffffffffffffffffffffffffffffffff1681526020016001820180546130aa90614d7e565b80601f01602080910402602001604051908101604052809291908181526020018280546130d690614d7e565b80156131235780601f106130f857610100808354040283529160200191613123565b820191906000526020600020905b81548152906001019060200180831161310657829003601f168201915b5050505050815260200160028201805461313c90614d7e565b80601f016020809104026020016040519081016040528092919081815260200182805461316890614d7e565b80156131b55780601f1061318a576101008083540402835291602001916131b5565b820191906000526020600020905b81548152906001019060200180831161319857829003601f168201915b505050505081526020016003820180546131ce90614d7e565b80601f01602080910402602001604051908101604052809291908181526020018280546131fa90614d7e565b80156132475780601f1061321c57610100808354040283529160200191613247565b820191906000526020600020905b81548152906001019060200180831161322a57829003601f168201915b5050505050815260200160048201805461326090614d7e565b80601f016020809104026020016040519081016040528092919081815260200182805461328c90614d7e565b80156132d95780601f106132ae576101008083540402835291602001916132d9565b820191906000526020600020905b8154815290600101906020018083116132bc57829003601f168201915b505050505081526020016005820180546132f290614d7e565b80601f016020809104026020016040519081016040528092919081815260200182805461331e90614d7e565b801561336b5780601f106133405761010080835404028352916020019161336b565b820191906000526020600020905b81548152906001019060200180831161334e57829003601f168201915b5050505050815260200160068201805461338490614d7e565b80601f01602080910402602001604051908101604052809291908181526020018280546133b090614d7e565b80156133fd5780601f106133d2576101008083540402835291602001916133fd565b820191906000526020600020905b8154815290600101906020018083116133e057829003601f168201915b5050505050815260200160078201805461341690614d7e565b80601f016020809104026020016040519081016040528092919081815260200182805461344290614d7e565b801561348f5780601f106134645761010080835404028352916020019161348f565b820191906000526020600020905b81548152906001019060200180831161347257829003601f168201915b505050505081526020016008820160009054906101000a900460ff1615151515815250508383815181106134c6576134c5614d20565b5b60200260200101819052505b80806134dd90614db0565b915050612fd2565b50819250505090565b60606000600d5467ffffffffffffffff81111561350e5761350d614228565b5b60405190808252806020026020018201604052801561354757816020015b613534613c6d565b81526020019060019003908161352c5790505b5090506000805b600980549050811015613a62576009818154811061356f5761356e614d20565b5b906000526020600020906009020160080160009054906101000a900460ff1615613a4f57600981815481106135a7576135a6614d20565b5b9060005260206000209060090201604051806101200160405290816000820160009054906101000a900473ffffffffffffffffffffffffffffffffffffffff1673ffffffffffffffffffffffffffffffffffffffff1673ffffffffffffffffffffffffffffffffffffffff16815260200160018201805461362790614d7e565b80601f016020809104026020016040519081016040528092919081815260200182805461365390614d7e565b80156136a05780601f10613675576101008083540402835291602001916136a0565b820191906000526020600020905b81548152906001019060200180831161368357829003601f168201915b505050505081526020016002820180546136b990614d7e565b80601f01602080910402602001604051908101604052809291908181526020018280546136e590614d7e565b80156137325780601f1061370757610100808354040283529160200191613732565b820191906000526020600020905b81548152906001019060200180831161371557829003601f168201915b5050505050815260200160038201805461374b90614d7e565b80601f016020809104026020016040519081016040528092919081815260200182805461377790614d7e565b80156137c45780601f10613799576101008083540402835291602001916137c4565b820191906000526020600020905b8154815290600101906020018083116137a757829003601f168201915b505050505081526020016004820180546137dd90614d7e565b80601f016020809104026020016040519081016040528092919081815260200182805461380990614d7e565b80156138565780601f1061382b57610100808354040283529160200191613856565b820191906000526020600020905b81548152906001019060200180831161383957829003601f168201915b5050505050815260200160058201805461386f90614d7e565b80601f016020809104026020016040519081016040528092919081815260200182805461389b90614d7e565b80156138e85780601f106138bd576101008083540402835291602001916138e8565b820191906000526020600020905b8154815290600101906020018083116138cb57829003601f168201915b5050505050815260200160068201805461390190614d7e565b80601f016020809104026020016040519081016040528092919081815260200182805461392d90614d7e565b801561397a5780601f1061394f5761010080835404028352916020019161397a565b820191906000526020600020905b81548152906001019060200180831161395d57829003601f168201915b5050505050815260200160078201805461399390614d7e565b80601f01602080910402602001604051908101604052809291908181526020018280546139bf90614d7e565b8015613a0c5780601f106139e157610100808354040283529160200191613a0c565b820191906000526020600020905b8154815290600101906020018083116139ef57829003601f168201915b505050505081526020016008820160009054906101000a900460ff161515151581525050838381518110613a4357613a42614d20565b5b60200260200101819052505b8080613a5a90614db0565b91505061354e565b50819250505090565b6000808280519060200120905060005b600880549050811015613ae65760088181548110613a9c57613a9b614d20565b5b90600052602060002090600c0201600401604051613aba9190615524565b6040518091039020821415613ad3578092505050613b0c565b8080613ade90614db0565b915050613a7b565b507fffffffffffffffffffffffffffffffffffffffffffffffffffffffffffffffff9150505b919050565b604051806101800160405280600073ffffffffffffffffffffffffffffffffffffffff168152602001606081526020016060815260200160608152602001606081526020016060815260200160608152602001606081526020016060815260200160608152602001600015158152602001600081525090565b828054613b9690614d7e565b90600052602060002090601f016020900481019282613bb85760008555613bff565b82601f10613bd157805160ff1916838001178555613bff565b82800160010185558215613bff579182015b82811115613bfe578251825591602001919060010190613be3565b5b509050613c0c9190613cd1565b5090565b604051806101000160405280600073ffffffffffffffffffffffffffffffffffffffff1681526020016060815260200160608152602001606081526020016060815260200160608152602001606081526020016000151581525090565b604051806101200160405280600073ffffffffffffffffffffffffffffffffffffffff168152602001606081526020016060815260200160608152602001606081526020016060815260200160608152602001606081526020016000151581525090565b5b80821115613cea576000816000905550600101613cd2565b5090565b600081519050919050565b600082825260208201905092915050565b6000819050602082019050919050565b600073ffffffffffffffffffffffffffffffffffffffff82169050919050565b6000613d4582613d1a565b9050919050565b613d5581613d3a565b82525050565b600081519050919050565b600082825260208201905092915050565b60005b83811015613d95578082015181840152602081019050613d7a565b83811115613da4576000848401525b50505050565b6000601f19601f8301169050919050565b6000613dc682613d5b565b613dd08185613d66565b9350613de0818560208601613d77565b613de981613daa565b840191505092915050565b60008115159050919050565b613e0981613df4565b82525050565b6000819050919050565b613e2281613e0f565b82525050565b600061018083016000830151613e416000860182613d4c565b5060208301518482036020860152613e598282613dbb565b91505060408301518482036040860152613e738282613dbb565b91505060608301518482036060860152613e8d8282613dbb565b91505060808301518482036080860152613ea78282613dbb565b91505060a083015184820360a0860152613ec18282613dbb565b91505060c083015184820360c0860152613edb8282613dbb565b91505060e083015184820360e0860152613ef58282613dbb565b915050610100830151848203610100860152613f118282613dbb565b915050610120830151848203610120860152613f2d8282613dbb565b915050610140830151613f44610140860182613e00565b50610160830151613f59610160860182613e19565b508091505092915050565b6000613f708383613e28565b905092915050565b6000602082019050919050565b6000613f9082613cee565b613f9a8185613cf9565b935083602082028501613fac85613d0a565b8060005b85811015613fe85784840389528151613fc98582613f64565b9450613fd483613f78565b925060208a01995050600181019050613fb0565b50829750879550505050505092915050565b600060208201905081810360008301526140148184613f85565b905092915050565b6000604051905090565b600080fd5b600080fd5b61403981613d3a565b811461404457600080fd5b50565b60008135905061405681614030565b92915050565b60006020828403121561407257614071614026565b5b600061408084828501614047565b91505092915050565b600081519050919050565b600082825260208201905092915050565b6000819050602082019050919050565b600060e08301600083015184820360008601526140d28282613dbb565b915050602083015184820360208601526140ec8282613dbb565b915050604083015184820360408601526141068282613dbb565b915050606083015161411b6060860182613e19565b50608083015184820360808601526141338282613dbb565b91505060a083015161414860a0860182613e19565b5060c083015161415b60c0860182613e19565b508091505092915050565b600061417283836140b5565b905092915050565b6000602082019050919050565b600061419282614089565b61419c8185614094565b9350836020820285016141ae856140a5565b8060005b858110156141ea57848403895281516141cb8582614166565b94506141d68361417a565b925060208a019950506001810190506141b2565b50829750879550505050505092915050565b600060208201905081810360008301526142168184614187565b905092915050565b600080fd5b600080fd5b7f4e487b7100000000000000000000000000000000000000000000000000000000600052604160045260246000fd5b61426082613daa565b810181811067ffffffffffffffff8211171561427f5761427e614228565b5b80604052505050565b600061429261401c565b905061429e8282614257565b919050565b600067ffffffffffffffff8211156142be576142bd614228565b5b6142c782613daa565b9050602081019050919050565b82818337600083830152505050565b60006142f66142f1846142a3565b614288565b90508281526020810184848401111561431257614311614223565b5b61431d8482856142d4565b509392505050565b600082601f83011261433a5761433961421e565b5b813561434a8482602086016142e3565b91505092915050565b600080600080600080600080610100898b03121561437457614373614026565b5b600089013567ffffffffffffffff8111156143925761439161402b565b5b61439e8b828c01614325565b985050602089013567ffffffffffffffff8111156143bf576143be61402b565b5b6143cb8b828c01614325565b975050604089013567ffffffffffffffff8111156143ec576143eb61402b565b5b6143f88b828c01614325565b965050606089013567ffffffffffffffff8111156144195761441861402b565b5b6144258b828c01614325565b955050608089013567ffffffffffffffff8111156144465761444561402b565b5b6144528b828c01614325565b94505060a089013567ffffffffffffffff8111156144735761447261402b565b5b61447f8b828c01614325565b93505060c089013567ffffffffffffffff8111156144a05761449f61402b565b5b6144ac8b828c01614325565b92505060e089013567ffffffffffffffff8111156144cd576144cc61402b565b5b6144d98b828c01614325565b9150509295985092959890939650565b6000610180830160008301516145026000860182613d4c565b506020830151848203602086015261451a8282613dbb565b915050604083015184820360408601526145348282613dbb565b9150506060830151848203606086015261454e8282613dbb565b915050608083015184820360808601526145688282613dbb565b91505060a083015184820360a08601526145828282613dbb565b91505060c083015184820360c086015261459c8282613dbb565b91505060e083015184820360e08601526145b68282613dbb565b9150506101008301518482036101008601526145d28282613dbb565b9150506101208301518482036101208601526145ee8282613dbb565b915050610140830151614605610140860182613e00565b5061016083015161461a610160860182613e19565b508091505092915050565b6000602082019050818103600083015261463f81846144e9565b905092915050565b6000610100830160008301516146606000860182613d4c565b50602083015184820360208601526146788282613dbb565b915050604083015184820360408601526146928282613dbb565b915050606083015184820360608601526146ac8282613dbb565b915050608083015184820360808601526146c68282613dbb565b91505060a083015184820360a08601526146e08282613dbb565b91505060c083015184820360c08601526146fa8282613dbb565b91505060e083015161470f60e0860182613e00565b508091505092915050565b600060208201905081810360008301526147348184614647565b905092915050565b61474581613e0f565b82525050565b6000602082019050614760600083018461473c565b92915050565b61476f81613e0f565b811461477a57600080fd5b50565b60008135905061478c81614766565b92915050565b600080600080600080600060e0888a0312156147b1576147b0614026565b5b600088013567ffffffffffffffff8111156147cf576147ce61402b565b5b6147db8a828b01614325565b975050602088013567ffffffffffffffff8111156147fc576147fb61402b565b5b6148088a828b01614325565b965050604088013567ffffffffffffffff8111156148295761482861402b565b5b6148358a828b01614325565b95505060606148468a828b0161477d565b945050608088013567ffffffffffffffff8111156148675761486661402b565b5b6148738a828b01614325565b93505060a06148848a828b0161477d565b92505060c06148958a828b0161477d565b91505092959891949750929550565b6000610120830160008301516148bd6000860182613d4c565b50602083015184820360208601526148d58282613dbb565b915050604083015184820360408601526148ef8282613dbb565b915050606083015184820360608601526149098282613dbb565b915050608083015184820360808601526149238282613dbb565b91505060a083015184820360a086015261493d8282613dbb565b91505060c083015184820360c08601526149578282613dbb565b91505060e083015184820360e08601526149718282613dbb565b915050610100830151614988610100860182613e00565b508091505092915050565b600060208201905081810360008301526149ad81846148a4565b905092915050565b60008060008060008060c087890312156149d2576149d1614026565b5b600087013567ffffffffffffffff8111156149f0576149ef61402b565b5b6149fc89828a01614325565b965050602087013567ffffffffffffffff811115614a1d57614a1c61402b565b5b614a2989828a01614325565b955050604087013567ffffffffffffffff811115614a4a57614a4961402b565b5b614a5689828a01614325565b945050606087013567ffffffffffffffff811115614a7757614a7661402b565b5b614a8389828a01614325565b935050608087013567ffffffffffffffff811115614aa457614aa361402b565b5b614ab089828a01614325565b92505060a087013567ffffffffffffffff811115614ad157614ad061402b565b5b614add89828a01614325565b9150509295509295509295565b600081519050919050565b600082825260208201905092915050565b6000819050602082019050919050565b600061012083016000830151614b2f6000860182613d4c565b5060208301518482036020860152614b478282613dbb565b91505060408301518482036040860152614b618282613dbb565b91505060608301518482036060860152614b7b8282613dbb565b91505060808301518482036080860152614b958282613dbb565b91505060a083015184820360a0860152614baf8282613dbb565b91505060c083015184820360c0860152614bc98282613dbb565b91505060e083015184820360e0860152614be38282613dbb565b915050610100830151614bfa610100860182613e00565b508091505092915050565b6000614c118383614b16565b905092915050565b6000602082019050919050565b6000614c3182614aea565b614c3b8185614af5565b935083602082028501614c4d85614b06565b8060005b85811015614c895784840389528151614c6a8582614c05565b9450614c7583614c19565b925060208a01995050600181019050614c51565b50829750879550505050505092915050565b60006020820190508181036000830152614cb58184614c26565b905092915050565b7f4e487b7100000000000000000000000000000000000000000000000000000000600052601160045260246000fd5b6000614cf782613e0f565b9150614d0283613e0f565b925082821015614d1557614d14614cbd565b5b828203905092915050565b7f4e487b7100000000000000000000000000000000000000000000000000000000600052603260045260246000fd5b7f4e487b7100000000000000000000000000000000000000000000000000000000600052602260045260246000fd5b60006002820490506001821680614d9657607f821691505b60208210811415614daa57614da9614d4f565b5b50919050565b6000614dbb82613e0f565b91507fffffffffffffffffffffffffffffffffffffffffffffffffffffffffffffffff821415614dee57614ded614cbd565b5b600182019050919050565b600082825260208201905092915050565b7f4f6e6c792061646d696e2063616e20766572696679204f7267616e697a61746960008201527f6f6e000000000000000000000000000000000000000000000000000000000000602082015250565b6000614e66602283614df9565b9150614e7182614e0a565b604082019050919050565b60006020820190508181036000830152614e9581614e59565b9050919050565b7f53656c6c65722075706461746520737563636573730000000000000000000000600082015250565b6000614ed2601583614df9565b9150614edd82614e9c565b602082019050919050565b60006020820190508181036000830152614f0181614ec5565b9050919050565b7f436f756c646e27742066696e642073656c6c65722e0000000000000000000000600082015250565b6000614f3e601583614df9565b9150614f4982614f08565b602082019050919050565b60006020820190508181036000830152614f6d81614f31565b9050919050565b7f4661726d657220616c7265616479207265676973746572640000000000000000600082015250565b6000614faa601883614df9565b9150614fb582614f74565b602082019050919050565b60006020820190508181036000830152614fd981614f9d565b9050919050565b7f4f6e6c792061646d696e2063616e207665726966792042757965720000000000600082015250565b6000615016601b83614df9565b915061502182614fe0565b602082019050919050565b6000602082019050818103600083015261504581615009565b9050919050565b7f4661726d65722075706461746520737563636573730000000000000000000000600082015250565b6000615082601583614df9565b915061508d8261504c565b602082019050919050565b600060208201905081810360008301526150b181615075565b9050919050565b7f436f756c646e27742066696e64206661726d65722e0000000000000000000000600082015250565b60006150ee601583614df9565b91506150f9826150b8565b602082019050919050565b6000602082019050818103600083015261511d816150e1565b9050919050565b7f4f6e6c7920726567697374657265642073656c6c6572732063616e20706c616360008201527f65206f7264657273000000000000000000000000000000000000000000000000602082015250565b6000615180602883614df9565b915061518b82615124565b604082019050919050565b600060208201905081810360008301526151af81615173565b9050919050565b7f4f6e6c792076657269666965642073656c6c6572732063616e20706c6163652060008201527f6f72646572730000000000000000000000000000000000000000000000000000602082015250565b6000615212602683614df9565b915061521d826151b6565b604082019050919050565b6000602082019050818103600083015261524181615205565b9050919050565b7f4661726d6572206e6f7420666f756e6400000000000000000000000000000000600082015250565b600061527e601083614df9565b915061528982615248565b602082019050919050565b600060208201905081810360008301526152ad81615271565b9050919050565b7f596f75206861766520657863656564656420796f7572206f72646572206c696d60008201527f6974000000000000000000000000000000000000000000000000000000000000602082015250565b6000615310602283614df9565b915061531b826152b4565b604082019050919050565b6000602082019050818103600083015261533f81615303565b9050919050565b600060e08301600083015184820360008601526153638282613dbb565b9150506020830151848203602086015261537d8282613dbb565b915050604083015184820360408601526153978282613dbb565b91505060608301516153ac6060860182613e19565b50608083015184820360808601526153c48282613dbb565b91505060a08301516153d960a0860182613e19565b5060c08301516153ec60c0860182613e19565b508091505092915050565b600060208201905081810360008301526154118184615346565b905092915050565b7f53656c6c657220416c7265616479205265676973746572656400000000000000600082015250565b600061544f601983614df9565b915061545a82615419565b602082019050919050565b6000602082019050818103600083015261547e81615442565b9050919050565b600081905092915050565b60008190508160005260206000209050919050565b600081546154b281614d7e565b6154bc8186615485565b945060018216600081146154d757600181146154e85761551b565b60ff1983168652818601935061551b565b6154f185615490565b60005b83811015615513578154818901526001820191506020810190506154f4565b838801955050505b50505092915050565b600061553082846154a5565b91508190509291505056fea264697066735822122097e61545aafd180ba2ba65be97ddcccf3e43e869078bc70aeaa56d653ad379d064736f6c634300080a0033",
  "immutableReferences": {},
  "source": "// SPDX-License-Identifier: GPL-3.0\npragma solidity >=0.5.0 <0.9.0;\npragma experimental ABIEncoderV2;\n\ncontract Org {\n\n    //address admin;\n    struct Admin {\n        address id;\n        bytes name;\n        bytes addr;\n        bytes email;\n        bytes con;\n        bytes typ;\n        bytes role;\n        bool verified;\n    }\n\n    struct Farmer {\n        address id;\n        bytes name;\n        bytes aadharno;\n        bytes addr;\n        bytes con; //contacts\n        bytes typ;\n        bytes landdetails;\n        bytes fertilizersused;\n        bytes noofcrops;\n        bytes role;\n        bool verified;\n        uint256 orderCount;\n    }\n\n    struct Seller {\n        address id;\n        bytes name;\n        bytes email;\n        bytes con;\n        bytes gstno;\n        bytes addr;\n        bytes typ;\n        bytes role;\n        bool verified;\n    }\n\n    struct Order {\n        bytes orderId;\n        bytes buyername;\n        bytes contact;\n        uint256 order_date;\n        //address sellerId;\n        //address buyerId;\n        bytes product;\n        uint256 quantity;\n        uint256 price;\n        //bool fulfilled;\n    }\n\n    //Variables for the objects\n    //Admin private admin;\n    Admin private adminval;\n    Farmer[] private farmers;\n    Seller[] private sellers;\n    Order[] private orders;\n    uint256 MAX_ORDER_COUNT = 5;\n    uint256 private verifiedBuyerCount = 0;\n    uint256 private verifiedSellerCount = 0;\n\n    //Events\n    event onFarmerRegistration(Farmer _farmervalue);\n    event onRegisterSeller(Seller _sellervalue);\n    event onAddOrders(Order _order);\n    event VerifyBuyers(string _message);\n    event VerifySellers(string _message);\n\n    //Contractor will create the admin for the contract\n    constructor(\n        bytes memory name,\n        bytes memory addr,\n        bytes memory email,\n        bytes memory con,\n        bytes memory typ\n    )  {\n        adminval = Admin(msg.sender, name, addr, email, con, typ, \"admin\", true);\n    }\n\n    //To onboard new farmer, will this address be other address ? as farmer will not have the technology for the same\n    function registerFarmer(\n        bytes memory name,\n        bytes memory aadharno,\n        bytes memory addr,\n        bytes memory con,\n        bytes memory typ,\n        bytes memory landdetails,\n        bytes memory fertilizersused,\n        bytes memory noofcrops\n    ) public {\n        //check for same address \n        Farmer memory farmer = getBuyer();\n\n        require(farmer.id == address(0), \"Farmer already registerd\");\n        \n        Farmer memory newFarmer = Farmer(\n            msg.sender,\n            name,\n            aadharno,\n            addr,\n            con,\n            typ,\n            landdetails,\n            fertilizersused,\n            noofcrops,\n            \"buyer\",\n            false,\n            0\n        );\n        farmers.push(newFarmer);\n        emit onFarmerRegistration(newFarmer);\n    }\n\n    //Registration of Seller\n    function registerSeller(\n        bytes memory name,\n        bytes memory email,\n        bytes memory con,\n        bytes memory gstno,\n        bytes memory addr,\n        bytes memory typ\n    ) public {\n        Seller memory seller = getSeller();\n        //Can't register same seller again and again\n        require(seller.id == address(0), \"Seller Already Registered\");\n\n        Seller memory sellervalue = Seller(\n            msg.sender,\n            name,\n            email,\n            con,\n            gstno,\n            addr,\n            typ,\n            \"seller\",\n            false\n        );\n        sellers.push(sellervalue);\n        emit onRegisterSeller(sellervalue);\n    }\n\n    function addOrders(\n        bytes memory orderId,\n        bytes memory buyername,\n        bytes memory contact,\n        uint256 order_date,\n        //address sellerId;\n        //address buyerId;\n        bytes memory product,\n        uint256 quantity,\n        uint256 price //bool fulfilled\n    ) public {\n        Seller memory seller = getSeller();\n\n        require(seller.id != address(0), \"Only registered sellers can place orders\");\n\n        require(seller.verified, \"Only verified sellers can place orders\");\n\n        int256 farmerIdx = getFarmerIdxByContact(contact);\n\n        require(farmerIdx >= 0 , \"Farmer not found\");\n\n        require(farmers[uint256(farmerIdx)].orderCount < MAX_ORDER_COUNT, \"You have exceeded your order limit\");\n\n        Order memory order = Order({\n            orderId: orderId,\n            buyername: buyername,\n            contact: contact,\n            order_date: order_date,\n            product: product,\n            quantity: quantity,\n            price: price\n            //fulfilled:fulfilled\n        });\n        orders.push(order);\n\n        // Update order count for the buyer\n        farmers[uint256(farmerIdx)].orderCount++;\n        emit onAddOrders(order);\n    }\n\n    function getOrders() public view returns (Order[] memory) {\n        return orders;\n    }\n\n    function getAdmin() public view returns (Admin memory) {\n        return adminval;\n    }\n\n    function getBuyer() public view returns (Farmer memory) {\n        Farmer memory farmer;\n        for (uint256 i = 0; i < farmers.length; i++) {\n            if (farmers[i].id == msg.sender) {\n                farmer = farmers[i];\n            }\n        }\n        return farmer;\n    }\n\n    function getSeller() public view returns (Seller memory) {\n        Seller memory seller;\n        for (uint256 i = 0; i < sellers.length; i++) {\n            if (sellers[i].id == msg.sender) {\n                seller = sellers[i];\n            }\n        }\n        return seller;\n    }\n\n    function getUnverifiedBuyers() public view returns (Farmer[] memory) {\n        Farmer[] memory unverifiedFarmer = new Farmer[](farmers.length - verifiedBuyerCount);\n        uint256 fidx = 0;\n        for (uint256 i = 0; i < farmers.length; i++) {\n            if (!farmers[i].verified) {\n                unverifiedFarmer[fidx] = farmers[i];\n            }\n        }\n        return unverifiedFarmer;\n    }\n\n    function getUnverifiedSellers() public view returns (Seller[] memory) {\n        Seller[] memory unverifiedSellers = new Seller[](sellers.length - verifiedSellerCount);\n        uint256 sidx = 0;\n        for (uint256 i = 0; i < sellers.length; i++) {\n            if (!sellers[i].verified) {\n                unverifiedSellers[sidx] = sellers[i];\n            }\n        }\n        return unverifiedSellers;\n    }\n\n    //Get verified farmers\n    function getVerifiedBuyers() public view returns (Farmer[] memory) {\n        Farmer[] memory verifiedFarmer = new Farmer[](verifiedBuyerCount);\n        uint256 fidx = 0;\n        for (uint256 i = 0; i < farmers.length; i++) {\n            if (farmers[i].verified) {\n                verifiedFarmer[fidx] = farmers[i];\n            }\n        }\n        return verifiedFarmer;\n    }\n\n    function getVerifiedSellers() public view returns (Seller[] memory) {\n        Seller[] memory verifiedSellers = new Seller[](verifiedSellerCount);\n        uint256 sidx = 0;\n        for (uint256 i = 0; i < sellers.length; i++) {\n            if (sellers[i].verified) {\n                verifiedSellers[sidx] = sellers[i];\n            }\n        }\n        return verifiedSellers;\n    }\n\n        //Farmer verification \n    function verifyBuyers(address _address) public {\n        require(msg.sender == adminval.id, \"Only admin can verify Buyer\");\n        for(uint256 i = 0; i < farmers.length; i++){\n            if(farmers[i].id == _address){\n                farmers[i].verified = true;\n                verifiedBuyerCount++;\n                emit VerifyBuyers(\"Farmer update success\");\n                break;\n            }\n        }\n        emit VerifyBuyers(\"Couldn't find farmer.\");\n    }\n\n    function verifySellers(address _address) public {\n        require(msg.sender == adminval.id, \"Only admin can verify Organization\");\n        for(uint256 i = 0; i < sellers.length; i++){\n            if(sellers[i].id == _address){\n                sellers[i].verified = true;\n                verifiedSellerCount++;\n                emit VerifySellers(\"Seller update success\");\n                break;\n            }\n        }\n        emit VerifySellers(\"Couldn't find seller.\");\n    }\n\n    function getFarmerIdxByContact(bytes memory contact) private view returns (int256){\n        bytes32 con = keccak256(contact);\n        for (uint256 i = 0; i < farmers.length; i++) {\n            if (con == keccak256(farmers[i].con)) {\n               return int256(i);\n            }\n        }\n        return -1;\n    }\n    \n    function getVerifiedBuyerCount() public view returns (uint256){\n        return verifiedBuyerCount;\n    }\n\n    function getVerifiedSellerCount() public view returns (uint256){\n        return verifiedSellerCount;\n    }\n}",
  "sourcePath": "E:/blockchain_final/DBT-main/contracts/Org.sol",
  "compiler": {
    "name": "solc",
    "version": "0.8.10+commit.fc410830.Emscripten.clang"
  },
  "schemaVersion": "3.3.4",
  "updatedAt": "2024-03-16T07:34:21.555Z",
  "networkType": "ethereum",
  "devdoc": {
    "kind": "dev",
    "methods": {},
    "version": 1
  },
  "userdoc": {
    "kind": "user",
    "methods": {},
    "version": 1
  }
}