{
  "contractName": "Org",
  "abi": [
    {
      "inputs": [
        {
          "internalType": "bytes",
          "name": "name",
          "type": "bytes"
        },
        {
          "internalType": "bytes",
          "name": "addr",
          "type": "bytes"
        },
        {
          "internalType": "bytes",
          "name": "email",
          "type": "bytes"
        },
        {
          "internalType": "bytes",
          "name": "con",
          "type": "bytes"
        },
        {
          "internalType": "bytes",
          "name": "typ",
          "type": "bytes"
        }
      ],
      "stateMutability": "nonpayable",
      "type": "constructor"
    },
    {
      "anonymous": false,
      "inputs": [
        {
          "indexed": false,
          "internalType": "string",
          "name": "_message",
          "type": "string"
        }
      ],
      "name": "VerifyBuyers",
      "type": "event"
    },
    {
      "anonymous": false,
      "inputs": [
        {
          "indexed": false,
          "internalType": "string",
          "name": "_message",
          "type": "string"
        }
      ],
      "name": "VerifySellers",
      "type": "event"
    },
    {
      "anonymous": false,
      "inputs": [
        {
          "components": [
            {
              "internalType": "bytes",
              "name": "orderId",
              "type": "bytes"
            },
            {
              "internalType": "bytes",
              "name": "buyername",
              "type": "bytes"
            },
            {
              "internalType": "bytes",
              "name": "contact",
              "type": "bytes"
            },
            {
              "internalType": "uint256",
              "name": "order_date",
              "type": "uint256"
            },
            {
              "internalType": "bytes",
              "name": "product",
              "type": "bytes"
            },
            {
              "internalType": "uint256",
              "name": "quantity",
              "type": "uint256"
            },
            {
              "internalType": "uint256",
              "name": "price",
              "type": "uint256"
            },
            {
              "internalType": "bytes",
              "name": "gstno",
              "type": "bytes"
            },
            {
              "internalType": "bytes",
              "name": "Mgstno",
              "type": "bytes"
            },
            {
              "internalType": "bool",
              "name": "fulfilled",
              "type": "bool"
            }
          ],
          "indexed": false,
          "internalType": "struct Org.Order",
          "name": "_order",
          "type": "tuple"
        }
      ],
      "name": "onAddOrders",
      "type": "event"
    },
    {
      "anonymous": false,
      "inputs": [
        {
          "components": [
            {
              "internalType": "bytes",
              "name": "orderId",
              "type": "bytes"
            },
            {
              "internalType": "bytes",
              "name": "buyername",
              "type": "bytes"
            },
            {
              "internalType": "bytes",
              "name": "contact",
              "type": "bytes"
            },
            {
              "internalType": "uint256",
              "name": "order_date",
              "type": "uint256"
            },
            {
              "internalType": "bytes",
              "name": "product",
              "type": "bytes"
            },
            {
              "internalType": "uint256",
              "name": "quantity",
              "type": "uint256"
            },
            {
              "internalType": "uint256",
              "name": "price",
              "type": "uint256"
            },
            {
              "internalType": "bytes",
              "name": "gstno",
              "type": "bytes"
            },
            {
              "internalType": "bytes",
              "name": "Mgstno",
              "type": "bytes"
            },
            {
              "internalType": "bool",
              "name": "fulfilled",
              "type": "bool"
            }
          ],
          "indexed": false,
          "internalType": "struct Org.Order",
          "name": "_order",
          "type": "tuple"
        }
      ],
      "name": "onAddOrdersWholeseller",
      "type": "event"
    },
    {
      "anonymous": false,
      "inputs": [
        {
          "components": [
            {
              "internalType": "address",
              "name": "id",
              "type": "address"
            },
            {
              "internalType": "bytes",
              "name": "name",
              "type": "bytes"
            },
            {
              "internalType": "bytes",
              "name": "aadharno",
              "type": "bytes"
            },
            {
              "internalType": "bytes",
              "name": "addr",
              "type": "bytes"
            },
            {
              "internalType": "bytes",
              "name": "con",
              "type": "bytes"
            },
            {
              "internalType": "bytes",
              "name": "typ",
              "type": "bytes"
            },
            {
              "internalType": "bytes",
              "name": "landdetails",
              "type": "bytes"
            },
            {
              "internalType": "bytes",
              "name": "fertilizersused",
              "type": "bytes"
            },
            {
              "internalType": "bytes",
              "name": "noofcrops",
              "type": "bytes"
            },
            {
              "internalType": "bytes",
              "name": "role",
              "type": "bytes"
            },
            {
              "internalType": "bool",
              "name": "verified",
              "type": "bool"
            },
            {
              "internalType": "uint256",
              "name": "orderCount",
              "type": "uint256"
            }
          ],
          "indexed": false,
          "internalType": "struct Org.Farmer",
          "name": "_farmervalue",
          "type": "tuple"
        }
      ],
      "name": "onFarmerRegistration",
      "type": "event"
    },
    {
      "anonymous": false,
      "inputs": [
        {
          "components": [
            {
              "internalType": "address",
              "name": "id",
              "type": "address"
            },
            {
              "internalType": "bytes",
              "name": "name",
              "type": "bytes"
            },
            {
              "internalType": "bytes",
              "name": "email",
              "type": "bytes"
            },
            {
              "internalType": "bytes",
              "name": "con",
              "type": "bytes"
            },
            {
              "internalType": "bytes",
              "name": "gstno",
              "type": "bytes"
            },
            {
              "internalType": "bytes",
              "name": "addr",
              "type": "bytes"
            },
            {
              "internalType": "bytes",
              "name": "typ",
              "type": "bytes"
            },
            {
              "internalType": "bytes",
              "name": "role",
              "type": "bytes"
            },
            {
              "internalType": "bool",
              "name": "verified",
              "type": "bool"
            }
          ],
          "indexed": false,
          "internalType": "struct Org.Seller",
          "name": "_sellervalue",
          "type": "tuple"
        }
      ],
      "name": "onRegisterSeller",
      "type": "event"
    },
    {
      "inputs": [
        {
          "internalType": "bytes",
          "name": "name",
          "type": "bytes"
        },
        {
          "internalType": "bytes",
          "name": "aadharno",
          "type": "bytes"
        },
        {
          "internalType": "bytes",
          "name": "addr",
          "type": "bytes"
        },
        {
          "internalType": "bytes",
          "name": "con",
          "type": "bytes"
        },
        {
          "internalType": "bytes",
          "name": "typ",
          "type": "bytes"
        },
        {
          "internalType": "bytes",
          "name": "landdetails",
          "type": "bytes"
        },
        {
          "internalType": "bytes",
          "name": "fertilizersused",
          "type": "bytes"
        },
        {
          "internalType": "bytes",
          "name": "noofcrops",
          "type": "bytes"
        }
      ],
      "name": "registerFarmer",
      "outputs": [],
      "stateMutability": "nonpayable",
      "type": "function"
    },
    {
      "inputs": [
        {
          "internalType": "bytes",
          "name": "name",
          "type": "bytes"
        },
        {
          "internalType": "bytes",
          "name": "email",
          "type": "bytes"
        },
        {
          "internalType": "bytes",
          "name": "con",
          "type": "bytes"
        },
        {
          "internalType": "bytes",
          "name": "gstno",
          "type": "bytes"
        },
        {
          "internalType": "bytes",
          "name": "addr",
          "type": "bytes"
        },
        {
          "internalType": "bytes",
          "name": "typ",
          "type": "bytes"
        }
      ],
      "name": "registerSeller",
      "outputs": [],
      "stateMutability": "nonpayable",
      "type": "function"
    },
    {
      "inputs": [
        {
          "internalType": "bytes",
          "name": "orderId",
          "type": "bytes"
        },
        {
          "internalType": "bytes",
          "name": "buyername",
          "type": "bytes"
        },
        {
          "internalType": "bytes",
          "name": "contact",
          "type": "bytes"
        },
        {
          "internalType": "uint256",
          "name": "order_date",
          "type": "uint256"
        },
        {
          "internalType": "bytes",
          "name": "product",
          "type": "bytes"
        },
        {
          "internalType": "uint256",
          "name": "quantity",
          "type": "uint256"
        },
        {
          "internalType": "uint256",
          "name": "price",
          "type": "uint256"
        },
        {
          "internalType": "bytes",
          "name": "gstno",
          "type": "bytes"
        }
      ],
      "name": "addOrders",
      "outputs": [],
      "stateMutability": "nonpayable",
      "type": "function"
    },
    {
      "inputs": [],
      "name": "getOrders",
      "outputs": [
        {
          "components": [
            {
              "internalType": "bytes",
              "name": "orderId",
              "type": "bytes"
            },
            {
              "internalType": "bytes",
              "name": "buyername",
              "type": "bytes"
            },
            {
              "internalType": "bytes",
              "name": "contact",
              "type": "bytes"
            },
            {
              "internalType": "uint256",
              "name": "order_date",
              "type": "uint256"
            },
            {
              "internalType": "bytes",
              "name": "product",
              "type": "bytes"
            },
            {
              "internalType": "uint256",
              "name": "quantity",
              "type": "uint256"
            },
            {
              "internalType": "uint256",
              "name": "price",
              "type": "uint256"
            },
            {
              "internalType": "bytes",
              "name": "gstno",
              "type": "bytes"
            },
            {
              "internalType": "bytes",
              "name": "Mgstno",
              "type": "bytes"
            },
            {
              "internalType": "bool",
              "name": "fulfilled",
              "type": "bool"
            }
          ],
          "internalType": "struct Org.Order[]",
          "name": "",
          "type": "tuple[]"
        }
      ],
      "stateMutability": "view",
      "type": "function",
      "constant": true
    },
    {
      "inputs": [
        {
          "internalType": "bytes",
          "name": "orderId",
          "type": "bytes"
        },
        {
          "internalType": "bytes",
          "name": "manufacturerGstno",
          "type": "bytes"
        }
      ],
      "name": "forwardToManuFacturer",
      "outputs": [],
      "stateMutability": "nonpayable",
      "type": "function"
    },
    {
      "inputs": [
        {
          "internalType": "bytes",
          "name": "orderId",
          "type": "bytes"
        }
      ],
      "name": "fulfillOrderManufacturer",
      "outputs": [],
      "stateMutability": "nonpayable",
      "type": "function"
    },
    {
      "inputs": [],
      "name": "getAdmin",
      "outputs": [
        {
          "components": [
            {
              "internalType": "address",
              "name": "id",
              "type": "address"
            },
            {
              "internalType": "bytes",
              "name": "name",
              "type": "bytes"
            },
            {
              "internalType": "bytes",
              "name": "addr",
              "type": "bytes"
            },
            {
              "internalType": "bytes",
              "name": "email",
              "type": "bytes"
            },
            {
              "internalType": "bytes",
              "name": "con",
              "type": "bytes"
            },
            {
              "internalType": "bytes",
              "name": "typ",
              "type": "bytes"
            },
            {
              "internalType": "bytes",
              "name": "role",
              "type": "bytes"
            },
            {
              "internalType": "bool",
              "name": "verified",
              "type": "bool"
            }
          ],
          "internalType": "struct Org.Admin",
          "name": "",
          "type": "tuple"
        }
      ],
      "stateMutability": "view",
      "type": "function",
      "constant": true
    },
    {
      "inputs": [],
      "name": "getBuyer",
      "outputs": [
        {
          "components": [
            {
              "internalType": "address",
              "name": "id",
              "type": "address"
            },
            {
              "internalType": "bytes",
              "name": "name",
              "type": "bytes"
            },
            {
              "internalType": "bytes",
              "name": "aadharno",
              "type": "bytes"
            },
            {
              "internalType": "bytes",
              "name": "addr",
              "type": "bytes"
            },
            {
              "internalType": "bytes",
              "name": "con",
              "type": "bytes"
            },
            {
              "internalType": "bytes",
              "name": "typ",
              "type": "bytes"
            },
            {
              "internalType": "bytes",
              "name": "landdetails",
              "type": "bytes"
            },
            {
              "internalType": "bytes",
              "name": "fertilizersused",
              "type": "bytes"
            },
            {
              "internalType": "bytes",
              "name": "noofcrops",
              "type": "bytes"
            },
            {
              "internalType": "bytes",
              "name": "role",
              "type": "bytes"
            },
            {
              "internalType": "bool",
              "name": "verified",
              "type": "bool"
            },
            {
              "internalType": "uint256",
              "name": "orderCount",
              "type": "uint256"
            }
          ],
          "internalType": "struct Org.Farmer",
          "name": "",
          "type": "tuple"
        }
      ],
      "stateMutability": "view",
      "type": "function",
      "constant": true
    },
    {
      "inputs": [],
      "name": "getSeller",
      "outputs": [
        {
          "components": [
            {
              "internalType": "address",
              "name": "id",
              "type": "address"
            },
            {
              "internalType": "bytes",
              "name": "name",
              "type": "bytes"
            },
            {
              "internalType": "bytes",
              "name": "email",
              "type": "bytes"
            },
            {
              "internalType": "bytes",
              "name": "con",
              "type": "bytes"
            },
            {
              "internalType": "bytes",
              "name": "gstno",
              "type": "bytes"
            },
            {
              "internalType": "bytes",
              "name": "addr",
              "type": "bytes"
            },
            {
              "internalType": "bytes",
              "name": "typ",
              "type": "bytes"
            },
            {
              "internalType": "bytes",
              "name": "role",
              "type": "bytes"
            },
            {
              "internalType": "bool",
              "name": "verified",
              "type": "bool"
            }
          ],
          "internalType": "struct Org.Seller",
          "name": "",
          "type": "tuple"
        }
      ],
      "stateMutability": "view",
      "type": "function",
      "constant": true
    },
    {
      "inputs": [],
      "name": "getUnverifiedBuyers",
      "outputs": [
        {
          "components": [
            {
              "internalType": "address",
              "name": "id",
              "type": "address"
            },
            {
              "internalType": "bytes",
              "name": "name",
              "type": "bytes"
            },
            {
              "internalType": "bytes",
              "name": "aadharno",
              "type": "bytes"
            },
            {
              "internalType": "bytes",
              "name": "addr",
              "type": "bytes"
            },
            {
              "internalType": "bytes",
              "name": "con",
              "type": "bytes"
            },
            {
              "internalType": "bytes",
              "name": "typ",
              "type": "bytes"
            },
            {
              "internalType": "bytes",
              "name": "landdetails",
              "type": "bytes"
            },
            {
              "internalType": "bytes",
              "name": "fertilizersused",
              "type": "bytes"
            },
            {
              "internalType": "bytes",
              "name": "noofcrops",
              "type": "bytes"
            },
            {
              "internalType": "bytes",
              "name": "role",
              "type": "bytes"
            },
            {
              "internalType": "bool",
              "name": "verified",
              "type": "bool"
            },
            {
              "internalType": "uint256",
              "name": "orderCount",
              "type": "uint256"
            }
          ],
          "internalType": "struct Org.Farmer[]",
          "name": "",
          "type": "tuple[]"
        }
      ],
      "stateMutability": "view",
      "type": "function",
      "constant": true
    },
    {
      "inputs": [],
      "name": "getUnverifiedSellers",
      "outputs": [
        {
          "components": [
            {
              "internalType": "address",
              "name": "id",
              "type": "address"
            },
            {
              "internalType": "bytes",
              "name": "name",
              "type": "bytes"
            },
            {
              "internalType": "bytes",
              "name": "email",
              "type": "bytes"
            },
            {
              "internalType": "bytes",
              "name": "con",
              "type": "bytes"
            },
            {
              "internalType": "bytes",
              "name": "gstno",
              "type": "bytes"
            },
            {
              "internalType": "bytes",
              "name": "addr",
              "type": "bytes"
            },
            {
              "internalType": "bytes",
              "name": "typ",
              "type": "bytes"
            },
            {
              "internalType": "bytes",
              "name": "role",
              "type": "bytes"
            },
            {
              "internalType": "bool",
              "name": "verified",
              "type": "bool"
            }
          ],
          "internalType": "struct Org.Seller[]",
          "name": "",
          "type": "tuple[]"
        }
      ],
      "stateMutability": "view",
      "type": "function",
      "constant": true
    },
    {
      "inputs": [],
      "name": "getVerifiedBuyers",
      "outputs": [
        {
          "components": [
            {
              "internalType": "address",
              "name": "id",
              "type": "address"
            },
            {
              "internalType": "bytes",
              "name": "name",
              "type": "bytes"
            },
            {
              "internalType": "bytes",
              "name": "aadharno",
              "type": "bytes"
            },
            {
              "internalType": "bytes",
              "name": "addr",
              "type": "bytes"
            },
            {
              "internalType": "bytes",
              "name": "con",
              "type": "bytes"
            },
            {
              "internalType": "bytes",
              "name": "typ",
              "type": "bytes"
            },
            {
              "internalType": "bytes",
              "name": "landdetails",
              "type": "bytes"
            },
            {
              "internalType": "bytes",
              "name": "fertilizersused",
              "type": "bytes"
            },
            {
              "internalType": "bytes",
              "name": "noofcrops",
              "type": "bytes"
            },
            {
              "internalType": "bytes",
              "name": "role",
              "type": "bytes"
            },
            {
              "internalType": "bool",
              "name": "verified",
              "type": "bool"
            },
            {
              "internalType": "uint256",
              "name": "orderCount",
              "type": "uint256"
            }
          ],
          "internalType": "struct Org.Farmer[]",
          "name": "",
          "type": "tuple[]"
        }
      ],
      "stateMutability": "view",
      "type": "function",
      "constant": true
    },
    {
      "inputs": [],
      "name": "getVerifiedSellers",
      "outputs": [
        {
          "components": [
            {
              "internalType": "address",
              "name": "id",
              "type": "address"
            },
            {
              "internalType": "bytes",
              "name": "name",
              "type": "bytes"
            },
            {
              "internalType": "bytes",
              "name": "email",
              "type": "bytes"
            },
            {
              "internalType": "bytes",
              "name": "con",
              "type": "bytes"
            },
            {
              "internalType": "bytes",
              "name": "gstno",
              "type": "bytes"
            },
            {
              "internalType": "bytes",
              "name": "addr",
              "type": "bytes"
            },
            {
              "internalType": "bytes",
              "name": "typ",
              "type": "bytes"
            },
            {
              "internalType": "bytes",
              "name": "role",
              "type": "bytes"
            },
            {
              "internalType": "bool",
              "name": "verified",
              "type": "bool"
            }
          ],
          "internalType": "struct Org.Seller[]",
          "name": "",
          "type": "tuple[]"
        }
      ],
      "stateMutability": "view",
      "type": "function",
      "constant": true
    },
    {
      "inputs": [
        {
          "internalType": "address",
          "name": "_address",
          "type": "address"
        }
      ],
      "name": "verifyBuyers",
      "outputs": [],
      "stateMutability": "nonpayable",
      "type": "function"
    },
    {
      "inputs": [
        {
          "internalType": "address",
          "name": "_address",
          "type": "address"
        }
      ],
      "name": "verifySellers",
      "outputs": [],
      "stateMutability": "nonpayable",
      "type": "function"
    },
    {
      "inputs": [],
      "name": "getVerifiedBuyerCount",
      "outputs": [
        {
          "internalType": "uint256",
          "name": "",
          "type": "uint256"
        }
      ],
      "stateMutability": "view",
      "type": "function",
      "constant": true
    },
    {
      "inputs": [],
      "name": "getVerifiedSellerCount",
      "outputs": [
        {
          "internalType": "uint256",
          "name": "",
          "type": "uint256"
        }
      ],
      "stateMutability": "view",
      "type": "function",
      "constant": true
    }
  ],
  "bytecode": "0x60806040526005600b556000600c556000600d553480156200002057600080fd5b506040516200648e3803806200648e83398181016040528101906200004691906200044b565b6040518061010001604052803373ffffffffffffffffffffffffffffffffffffffff1681526020018681526020018581526020018481526020018381526020018281526020016040518060400160405280600581526020017f61646d696e0000000000000000000000000000000000000000000000000000008152508152602001600115158152506000808201518160000160006101000a81548173ffffffffffffffffffffffffffffffffffffffff021916908373ffffffffffffffffffffffffffffffffffffffff160217905550602082015181600101908051906020019062000134929190620001fe565b50604082015181600201908051906020019062000153929190620001fe565b50606082015181600301908051906020019062000172929190620001fe565b50608082015181600401908051906020019062000191929190620001fe565b5060a0820151816005019080519060200190620001b0929190620001fe565b5060c0820151816006019080519060200190620001cf929190620001fe565b5060e08201518160070160006101000a81548160ff0219169083151502179055509050505050505050620005d3565b8280546200020c906200059d565b90600052602060002090601f0160209004810192826200023057600085556200027c565b82601f106200024b57805160ff19168380011785556200027c565b828001600101855582156200027c579182015b828111156200027b5782518255916020019190600101906200025e565b5b5090506200028b91906200028f565b5090565b5b80821115620002aa57600081600090555060010162000290565b5090565b6000604051905090565b600080fd5b600080fd5b600080fd5b600080fd5b6000601f19601f8301169050919050565b7f4e487b7100000000000000000000000000000000000000000000000000000000600052604160045260246000fd5b6200031782620002cc565b810181811067ffffffffffffffff82111715620003395762000338620002dd565b5b80604052505050565b60006200034e620002ae565b90506200035c82826200030c565b919050565b600067ffffffffffffffff8211156200037f576200037e620002dd565b5b6200038a82620002cc565b9050602081019050919050565b60005b83811015620003b75780820151818401526020810190506200039a565b83811115620003c7576000848401525b50505050565b6000620003e4620003de8462000361565b62000342565b905082815260208101848484011115620004035762000402620002c7565b5b6200041084828562000397565b509392505050565b600082601f83011262000430576200042f620002c2565b5b815162000442848260208601620003cd565b91505092915050565b600080600080600060a086880312156200046a5762000469620002b8565b5b600086015167ffffffffffffffff8111156200048b576200048a620002bd565b5b620004998882890162000418565b955050602086015167ffffffffffffffff811115620004bd57620004bc620002bd565b5b620004cb8882890162000418565b945050604086015167ffffffffffffffff811115620004ef57620004ee620002bd565b5b620004fd8882890162000418565b935050606086015167ffffffffffffffff811115620005215762000520620002bd565b5b6200052f8882890162000418565b925050608086015167ffffffffffffffff811115620005535762000552620002bd565b5b620005618882890162000418565b9150509295509295909350565b7f4e487b7100000000000000000000000000000000000000000000000000000000600052602260045260246000fd5b60006002820490506001821680620005b657607f821691505b60208210811415620005cd57620005cc6200056e565b5b50919050565b615eab80620005e36000396000f3fe608060405234801561001057600080fd5b506004361061010b5760003560e01c806371f64abd116100a2578063abde863011610071578063abde86301461026c578063dbd0e1b61461028a578063f08cfbed146102a8578063f5187095146102c4578063f75fcb9f146102e25761010b565b806371f64abd146101fa57806376b52ee61461021657806376ee69dc14610234578063a85362a1146102505761010b565b806345e86b41116100de57806345e86b411461018457806352765a9e146101a0578063603daf9a146101be5780636e9960c3146101dc5761010b565b80631055a241146101105780631a71004b1461012e57806321f20c191461014a5780632e2dc43e14610166575b600080fd5b610118610300565b60405161012591906146ad565b60405180910390f35b61014860048036038101906101439190614844565b6109c6565b005b610164600480360381019061015f91906149b2565b610db4565b005b61016e610fab565b60405161017b9190614b9e565b60405180910390f35b61019e60048036038101906101999190614bc0565b6113b0565b005b6101a86116bf565b6040516101b591906146ad565b60405180910390f35b6101c6611d76565b6040516101d39190614e92565b60405180910390f35b6101e46123f8565b6040516101f19190614f87565b60405180910390f35b610214600480360381019061020f91906149b2565b6127f0565b005b61021e6129e7565b60405161022b9190614fb8565b60405180910390f35b61024e60048036038101906102499190614fd3565b6129f1565b005b61026a6004803603810190610265919061501c565b612b4a565b005b610274612ca0565b6040516102819190614fb8565b60405180910390f35b610292612caa565b60405161029f9190615183565b60405180910390f35b6102c260048036038101906102bd91906151a5565b6131fe565b005b6102cc6134b1565b6040516102d9919061548b565b60405180910390f35b6102ea613a49565b6040516102f7919061548b565b60405180910390f35b60606000600c5460088054905061031791906154dc565b67ffffffffffffffff8111156103305761032f6146ed565b5b60405190808252806020026020018201604052801561036957816020015b6103566141c4565b81526020019060019003908161034e5790505b5090506000805b6008805490508110156109bd576008818154811061039157610390615510565b5b90600052602060002090600c0201600a0160009054906101000a900460ff166109aa57600881815481106103c8576103c7615510565b5b90600052602060002090600c0201604051806101800160405290816000820160009054906101000a900473ffffffffffffffffffffffffffffffffffffffff1673ffffffffffffffffffffffffffffffffffffffff1673ffffffffffffffffffffffffffffffffffffffff1681526020016001820180546104489061556e565b80601f01602080910402602001604051908101604052809291908181526020018280546104749061556e565b80156104c15780601f10610496576101008083540402835291602001916104c1565b820191906000526020600020905b8154815290600101906020018083116104a457829003601f168201915b505050505081526020016002820180546104da9061556e565b80601f01602080910402602001604051908101604052809291908181526020018280546105069061556e565b80156105535780601f1061052857610100808354040283529160200191610553565b820191906000526020600020905b81548152906001019060200180831161053657829003601f168201915b5050505050815260200160038201805461056c9061556e565b80601f01602080910402602001604051908101604052809291908181526020018280546105989061556e565b80156105e55780601f106105ba576101008083540402835291602001916105e5565b820191906000526020600020905b8154815290600101906020018083116105c857829003601f168201915b505050505081526020016004820180546105fe9061556e565b80601f016020809104026020016040519081016040528092919081815260200182805461062a9061556e565b80156106775780601f1061064c57610100808354040283529160200191610677565b820191906000526020600020905b81548152906001019060200180831161065a57829003601f168201915b505050505081526020016005820180546106909061556e565b80601f01602080910402602001604051908101604052809291908181526020018280546106bc9061556e565b80156107095780601f106106de57610100808354040283529160200191610709565b820191906000526020600020905b8154815290600101906020018083116106ec57829003601f168201915b505050505081526020016006820180546107229061556e565b80601f016020809104026020016040519081016040528092919081815260200182805461074e9061556e565b801561079b5780601f106107705761010080835404028352916020019161079b565b820191906000526020600020905b81548152906001019060200180831161077e57829003601f168201915b505050505081526020016007820180546107b49061556e565b80601f01602080910402602001604051908101604052809291908181526020018280546107e09061556e565b801561082d5780601f106108025761010080835404028352916020019161082d565b820191906000526020600020905b81548152906001019060200180831161081057829003601f168201915b505050505081526020016008820180546108469061556e565b80601f01602080910402602001604051908101604052809291908181526020018280546108729061556e565b80156108bf5780601f10610894576101008083540402835291602001916108bf565b820191906000526020600020905b8154815290600101906020018083116108a257829003601f168201915b505050505081526020016009820180546108d89061556e565b80601f01602080910402602001604051908101604052809291908181526020018280546109049061556e565b80156109515780601f1061092657610100808354040283529160200191610951565b820191906000526020600020905b81548152906001019060200180831161093457829003601f168201915b50505050508152602001600a820160009054906101000a900460ff16151515158152602001600b8201548152505083838061098b906155a0565b94508151811061099e5761099d615510565b5b60200260200101819052505b80806109b5906155a0565b915050610370565b50819250505090565b60006109d0612caa565b9050600073ffffffffffffffffffffffffffffffffffffffff16816000015173ffffffffffffffffffffffffffffffffffffffff161415610a46576040517f08c379a0000000000000000000000000000000000000000000000000000000008152600401610a3d9061566c565b60405180910390fd5b806101000151610a8b576040517f08c379a0000000000000000000000000000000000000000000000000000000008152600401610a82906156fe565b60405180910390fd5b6000610a9688613fd2565b90506000811215610adc576040517f08c379a0000000000000000000000000000000000000000000000000000000008152600401610ad39061576a565b60405180910390fd5b600b5460088281548110610af357610af2615510565b5b90600052602060002090600c0201600b015410610b45576040517f08c379a0000000000000000000000000000000000000000000000000000000008152600401610b3c906157fc565b60405180910390fd5b6000610b508b614078565b90506000811215610b96576040517f08c379a0000000000000000000000000000000000000000000000000000000008152600401610b8d9061588e565b60405180910390fd5b60006040518061014001604052808d81526020018c81526020018b81526020018a81526020018981526020018881526020018781526020018681526020016040518060400160405280600481526020017f30783330000000000000000000000000000000000000000000000000000000008152508152602001600015158152509050600a8190806001815401808255809150506001900390600052602060002090600a02016000909190919091506000820151816000019080519060200190610c6092919061423d565b506020820151816001019080519060200190610c7d92919061423d565b506040820151816002019080519060200190610c9a92919061423d565b50606082015181600301556080820151816004019080519060200190610cc192919061423d565b5060a0820151816005015560c0820151816006015560e0820151816007019080519060200190610cf292919061423d565b50610100820151816008019080519060200190610d1092919061423d565b506101208201518160090160006101000a81548160ff021916908315150217905550505060088381548110610d4857610d47615510565b5b90600052602060002090600c0201600b016000815480929190610d6a906155a0565b91905055507f0ece566ce4830d90da3413a5b4d5ba8b3f76586d42505a4655515d415763f25081604051610d9e91906159ab565b60405180910390a1505050505050505050505050565b6000800160009054906101000a900473ffffffffffffffffffffffffffffffffffffffff1673ffffffffffffffffffffffffffffffffffffffff163373ffffffffffffffffffffffffffffffffffffffff1614610e46576040517f08c379a0000000000000000000000000000000000000000000000000000000008152600401610e3d90615a3f565b60405180910390fd5b60005b600980549050811015610f72578173ffffffffffffffffffffffffffffffffffffffff1660098281548110610e8157610e80615510565b5b906000526020600020906009020160000160009054906101000a900473ffffffffffffffffffffffffffffffffffffffff1673ffffffffffffffffffffffffffffffffffffffff161415610f5f57600160098281548110610ee557610ee4615510565b5b906000526020600020906009020160080160006101000a81548160ff021916908315150217905550600d6000815480929190610f20906155a0565b91905055507fa379dad39af58b0f35f6930262c5bdf0cde3cb8aabe122a33a582648d6dbbb7a604051610f5290615aab565b60405180910390a1610f72565b8080610f6a906155a0565b915050610e49565b507fa379dad39af58b0f35f6930262c5bdf0cde3cb8aabe122a33a582648d6dbbb7a604051610fa090615b17565b60405180910390a150565b6060600a805480602002602001604051908101604052809291908181526020016000905b828210156113a757838290600052602060002090600a0201604051806101400160405290816000820180546110039061556e565b80601f016020809104026020016040519081016040528092919081815260200182805461102f9061556e565b801561107c5780601f106110515761010080835404028352916020019161107c565b820191906000526020600020905b81548152906001019060200180831161105f57829003601f168201915b505050505081526020016001820180546110959061556e565b80601f01602080910402602001604051908101604052809291908181526020018280546110c19061556e565b801561110e5780601f106110e35761010080835404028352916020019161110e565b820191906000526020600020905b8154815290600101906020018083116110f157829003601f168201915b505050505081526020016002820180546111279061556e565b80601f01602080910402602001604051908101604052809291908181526020018280546111539061556e565b80156111a05780601f10611175576101008083540402835291602001916111a0565b820191906000526020600020905b81548152906001019060200180831161118357829003601f168201915b50505050508152602001600382015481526020016004820180546111c39061556e565b80601f01602080910402602001604051908101604052809291908181526020018280546111ef9061556e565b801561123c5780601f106112115761010080835404028352916020019161123c565b820191906000526020600020905b81548152906001019060200180831161121f57829003601f168201915b5050505050815260200160058201548152602001600682015481526020016007820180546112699061556e565b80601f01602080910402602001604051908101604052809291908181526020018280546112959061556e565b80156112e25780601f106112b7576101008083540402835291602001916112e2565b820191906000526020600020905b8154815290600101906020018083116112c557829003601f168201915b505050505081526020016008820180546112fb9061556e565b80601f01602080910402602001604051908101604052809291908181526020018280546113279061556e565b80156113745780601f1061134957610100808354040283529160200191611374565b820191906000526020600020905b81548152906001019060200180831161135757829003601f168201915b505050505081526020016009820160009054906101000a900460ff16151515158152505081526020019060010190610fcf565b50505050905090565b60006113ba611d76565b9050600073ffffffffffffffffffffffffffffffffffffffff16816000015173ffffffffffffffffffffffffffffffffffffffff161461142f576040517f08c379a000000000000000000000000000000000000000000000000000000000815260040161142690615b83565b60405180910390fd5b60006040518061018001604052803373ffffffffffffffffffffffffffffffffffffffff1681526020018b81526020018a81526020018981526020018881526020018781526020018681526020018581526020018481526020016040518060400160405280600581526020017f627579657200000000000000000000000000000000000000000000000000000081525081526020016000151581526020016000815250905060088190806001815401808255809150506001900390600052602060002090600c020160009091909190915060008201518160000160006101000a81548173ffffffffffffffffffffffffffffffffffffffff021916908373ffffffffffffffffffffffffffffffffffffffff160217905550602082015181600101908051906020019061156392919061423d565b50604082015181600201908051906020019061158092919061423d565b50606082015181600301908051906020019061159d92919061423d565b5060808201518160040190805190602001906115ba92919061423d565b5060a08201518160050190805190602001906115d792919061423d565b5060c08201518160060190805190602001906115f492919061423d565b5060e082015181600701908051906020019061161192919061423d565b5061010082015181600801908051906020019061162f92919061423d565b5061012082015181600901908051906020019061164d92919061423d565b5061014082015181600a0160006101000a81548160ff02191690831515021790555061016082015181600b015550507fe544271fb2ae6362ae468b495e2a08bd05f986fca644adb5acbeb97036a4cc89816040516116ab9190614e92565b60405180910390a150505050505050505050565b60606000600c5467ffffffffffffffff8111156116df576116de6146ed565b5b60405190808252806020026020018201604052801561171857816020015b6117056141c4565b8152602001906001900390816116fd5790505b5090506000805b600880549050811015611d6d57600881815481106117405761173f615510565b5b90600052602060002090600c0201600a0160009054906101000a900460ff1615611d5a576008818154811061177857611777615510565b5b90600052602060002090600c0201604051806101800160405290816000820160009054906101000a900473ffffffffffffffffffffffffffffffffffffffff1673ffffffffffffffffffffffffffffffffffffffff1673ffffffffffffffffffffffffffffffffffffffff1681526020016001820180546117f89061556e565b80601f01602080910402602001604051908101604052809291908181526020018280546118249061556e565b80156118715780601f1061184657610100808354040283529160200191611871565b820191906000526020600020905b81548152906001019060200180831161185457829003601f168201915b5050505050815260200160028201805461188a9061556e565b80601f01602080910402602001604051908101604052809291908181526020018280546118b69061556e565b80156119035780601f106118d857610100808354040283529160200191611903565b820191906000526020600020905b8154815290600101906020018083116118e657829003601f168201915b5050505050815260200160038201805461191c9061556e565b80601f01602080910402602001604051908101604052809291908181526020018280546119489061556e565b80156119955780601f1061196a57610100808354040283529160200191611995565b820191906000526020600020905b81548152906001019060200180831161197857829003601f168201915b505050505081526020016004820180546119ae9061556e565b80601f01602080910402602001604051908101604052809291908181526020018280546119da9061556e565b8015611a275780601f106119fc57610100808354040283529160200191611a27565b820191906000526020600020905b815481529060010190602001808311611a0a57829003601f168201915b50505050508152602001600582018054611a409061556e565b80601f0160208091040260200160405190810160405280929190818152602001828054611a6c9061556e565b8015611ab95780601f10611a8e57610100808354040283529160200191611ab9565b820191906000526020600020905b815481529060010190602001808311611a9c57829003601f168201915b50505050508152602001600682018054611ad29061556e565b80601f0160208091040260200160405190810160405280929190818152602001828054611afe9061556e565b8015611b4b5780601f10611b2057610100808354040283529160200191611b4b565b820191906000526020600020905b815481529060010190602001808311611b2e57829003601f168201915b50505050508152602001600782018054611b649061556e565b80601f0160208091040260200160405190810160405280929190818152602001828054611b909061556e565b8015611bdd5780601f10611bb257610100808354040283529160200191611bdd565b820191906000526020600020905b815481529060010190602001808311611bc057829003601f168201915b50505050508152602001600882018054611bf69061556e565b80601f0160208091040260200160405190810160405280929190818152602001828054611c229061556e565b8015611c6f5780601f10611c4457610100808354040283529160200191611c6f565b820191906000526020600020905b815481529060010190602001808311611c5257829003601f168201915b50505050508152602001600982018054611c889061556e565b80601f0160208091040260200160405190810160405280929190818152602001828054611cb49061556e565b8015611d015780601f10611cd657610100808354040283529160200191611d01565b820191906000526020600020905b815481529060010190602001808311611ce457829003601f168201915b50505050508152602001600a820160009054906101000a900460ff16151515158152602001600b82015481525050838380611d3b906155a0565b945081518110611d4e57611d4d615510565b5b60200260200101819052505b8080611d65906155a0565b91505061171f565b50819250505090565b611d7e6141c4565b611d866141c4565b60005b6008805490508110156123f0573373ffffffffffffffffffffffffffffffffffffffff1660088281548110611dc157611dc0615510565b5b90600052602060002090600c020160000160009054906101000a900473ffffffffffffffffffffffffffffffffffffffff1673ffffffffffffffffffffffffffffffffffffffff1614156123dd5760088181548110611e2357611e22615510565b5b90600052602060002090600c0201604051806101800160405290816000820160009054906101000a900473ffffffffffffffffffffffffffffffffffffffff1673ffffffffffffffffffffffffffffffffffffffff1673ffffffffffffffffffffffffffffffffffffffff168152602001600182018054611ea39061556e565b80601f0160208091040260200160405190810160405280929190818152602001828054611ecf9061556e565b8015611f1c5780601f10611ef157610100808354040283529160200191611f1c565b820191906000526020600020905b815481529060010190602001808311611eff57829003601f168201915b50505050508152602001600282018054611f359061556e565b80601f0160208091040260200160405190810160405280929190818152602001828054611f619061556e565b8015611fae5780601f10611f8357610100808354040283529160200191611fae565b820191906000526020600020905b815481529060010190602001808311611f9157829003601f168201915b50505050508152602001600382018054611fc79061556e565b80601f0160208091040260200160405190810160405280929190818152602001828054611ff39061556e565b80156120405780601f1061201557610100808354040283529160200191612040565b820191906000526020600020905b81548152906001019060200180831161202357829003601f168201915b505050505081526020016004820180546120599061556e565b80601f01602080910402602001604051908101604052809291908181526020018280546120859061556e565b80156120d25780601f106120a7576101008083540402835291602001916120d2565b820191906000526020600020905b8154815290600101906020018083116120b557829003601f168201915b505050505081526020016005820180546120eb9061556e565b80601f01602080910402602001604051908101604052809291908181526020018280546121179061556e565b80156121645780601f1061213957610100808354040283529160200191612164565b820191906000526020600020905b81548152906001019060200180831161214757829003601f168201915b5050505050815260200160068201805461217d9061556e565b80601f01602080910402602001604051908101604052809291908181526020018280546121a99061556e565b80156121f65780601f106121cb576101008083540402835291602001916121f6565b820191906000526020600020905b8154815290600101906020018083116121d957829003601f168201915b5050505050815260200160078201805461220f9061556e565b80601f016020809104026020016040519081016040528092919081815260200182805461223b9061556e565b80156122885780601f1061225d57610100808354040283529160200191612288565b820191906000526020600020905b81548152906001019060200180831161226b57829003601f168201915b505050505081526020016008820180546122a19061556e565b80601f01602080910402602001604051908101604052809291908181526020018280546122cd9061556e565b801561231a5780601f106122ef5761010080835404028352916020019161231a565b820191906000526020600020905b8154815290600101906020018083116122fd57829003601f168201915b505050505081526020016009820180546123339061556e565b80601f016020809104026020016040519081016040528092919081815260200182805461235f9061556e565b80156123ac5780601f10612381576101008083540402835291602001916123ac565b820191906000526020600020905b81548152906001019060200180831161238f57829003601f168201915b50505050508152602001600a820160009054906101000a900460ff16151515158152602001600b8201548152505091505b80806123e8906155a0565b915050611d89565b508091505090565b6124006142c3565b6000604051806101000160405290816000820160009054906101000a900473ffffffffffffffffffffffffffffffffffffffff1673ffffffffffffffffffffffffffffffffffffffff1673ffffffffffffffffffffffffffffffffffffffff1681526020016001820180546124749061556e565b80601f01602080910402602001604051908101604052809291908181526020018280546124a09061556e565b80156124ed5780601f106124c2576101008083540402835291602001916124ed565b820191906000526020600020905b8154815290600101906020018083116124d057829003601f168201915b505050505081526020016002820180546125069061556e565b80601f01602080910402602001604051908101604052809291908181526020018280546125329061556e565b801561257f5780601f106125545761010080835404028352916020019161257f565b820191906000526020600020905b81548152906001019060200180831161256257829003601f168201915b505050505081526020016003820180546125989061556e565b80601f01602080910402602001604051908101604052809291908181526020018280546125c49061556e565b80156126115780601f106125e657610100808354040283529160200191612611565b820191906000526020600020905b8154815290600101906020018083116125f457829003601f168201915b5050505050815260200160048201805461262a9061556e565b80601f01602080910402602001604051908101604052809291908181526020018280546126569061556e565b80156126a35780601f10612678576101008083540402835291602001916126a3565b820191906000526020600020905b81548152906001019060200180831161268657829003601f168201915b505050505081526020016005820180546126bc9061556e565b80601f01602080910402602001604051908101604052809291908181526020018280546126e89061556e565b80156127355780601f1061270a57610100808354040283529160200191612735565b820191906000526020600020905b81548152906001019060200180831161271857829003601f168201915b5050505050815260200160068201805461274e9061556e565b80601f016020809104026020016040519081016040528092919081815260200182805461277a9061556e565b80156127c75780601f1061279c576101008083540402835291602001916127c7565b820191906000526020600020905b8154815290600101906020018083116127aa57829003601f168201915b505050505081526020016007820160009054906101000a900460ff161515151581525050905090565b6000800160009054906101000a900473ffffffffffffffffffffffffffffffffffffffff1673ffffffffffffffffffffffffffffffffffffffff163373ffffffffffffffffffffffffffffffffffffffff1614612882576040517f08c379a000000000000000000000000000000000000000000000000000000000815260040161287990615bef565b60405180910390fd5b60005b6008805490508110156129ae578173ffffffffffffffffffffffffffffffffffffffff16600882815481106128bd576128bc615510565b5b90600052602060002090600c020160000160009054906101000a900473ffffffffffffffffffffffffffffffffffffffff1673ffffffffffffffffffffffffffffffffffffffff16141561299b5760016008828154811061292157612920615510565b5b90600052602060002090600c0201600a0160006101000a81548160ff021916908315150217905550600c600081548092919061295c906155a0565b91905055507f1fd367a936cb02134d1fcabf294982ccd371a72d89e3b0d3e788305d3600ddd460405161298e90615c5b565b60405180910390a16129ae565b80806129a6906155a0565b915050612885565b507f1fd367a936cb02134d1fcabf294982ccd371a72d89e3b0d3e788305d3600ddd46040516129dc90615cc7565b60405180910390a150565b6000600c54905090565b60006129fb612caa565b9050600073ffffffffffffffffffffffffffffffffffffffff16816000015173ffffffffffffffffffffffffffffffffffffffff161415612a71576040517f08c379a0000000000000000000000000000000000000000000000000000000008152600401612a689061566c565b60405180910390fd5b806101000151612ab6576040517f08c379a0000000000000000000000000000000000000000000000000000000008152600401612aad906156fe565b60405180910390fd5b6000612ac18361411e565b90506000811215612b07576040517f08c379a0000000000000000000000000000000000000000000000000000000008152600401612afe90615d33565b60405180910390fd5b6001600a8281548110612b1d57612b1c615510565b5b90600052602060002090600a020160090160006101000a81548160ff021916908315150217905550505050565b6000612b54612caa565b9050600073ffffffffffffffffffffffffffffffffffffffff16816000015173ffffffffffffffffffffffffffffffffffffffff161415612bca576040517f08c379a0000000000000000000000000000000000000000000000000000000008152600401612bc19061566c565b60405180910390fd5b806101000151612c0f576040517f08c379a0000000000000000000000000000000000000000000000000000000008152600401612c06906156fe565b60405180910390fd5b6000612c1a8461411e565b90506000811215612c60576040517f08c379a0000000000000000000000000000000000000000000000000000000008152600401612c5790615d33565b60405180910390fd5b82600a8281548110612c7557612c74615510565b5b90600052602060002090600a02016008019080519060200190612c9992919061423d565b5050505050565b6000600d54905090565b612cb2614320565b612cba614320565b60005b6009805490508110156131f6573373ffffffffffffffffffffffffffffffffffffffff1660098281548110612cf557612cf4615510565b5b906000526020600020906009020160000160009054906101000a900473ffffffffffffffffffffffffffffffffffffffff1673ffffffffffffffffffffffffffffffffffffffff1614156131e35760098181548110612d5757612d56615510565b5b9060005260206000209060090201604051806101200160405290816000820160009054906101000a900473ffffffffffffffffffffffffffffffffffffffff1673ffffffffffffffffffffffffffffffffffffffff1673ffffffffffffffffffffffffffffffffffffffff168152602001600182018054612dd79061556e565b80601f0160208091040260200160405190810160405280929190818152602001828054612e039061556e565b8015612e505780601f10612e2557610100808354040283529160200191612e50565b820191906000526020600020905b815481529060010190602001808311612e3357829003601f168201915b50505050508152602001600282018054612e699061556e565b80601f0160208091040260200160405190810160405280929190818152602001828054612e959061556e565b8015612ee25780601f10612eb757610100808354040283529160200191612ee2565b820191906000526020600020905b815481529060010190602001808311612ec557829003601f168201915b50505050508152602001600382018054612efb9061556e565b80601f0160208091040260200160405190810160405280929190818152602001828054612f279061556e565b8015612f745780601f10612f4957610100808354040283529160200191612f74565b820191906000526020600020905b815481529060010190602001808311612f5757829003601f168201915b50505050508152602001600482018054612f8d9061556e565b80601f0160208091040260200160405190810160405280929190818152602001828054612fb99061556e565b80156130065780601f10612fdb57610100808354040283529160200191613006565b820191906000526020600020905b815481529060010190602001808311612fe957829003601f168201915b5050505050815260200160058201805461301f9061556e565b80601f016020809104026020016040519081016040528092919081815260200182805461304b9061556e565b80156130985780601f1061306d57610100808354040283529160200191613098565b820191906000526020600020905b81548152906001019060200180831161307b57829003601f168201915b505050505081526020016006820180546130b19061556e565b80601f01602080910402602001604051908101604052809291908181526020018280546130dd9061556e565b801561312a5780601f106130ff5761010080835404028352916020019161312a565b820191906000526020600020905b81548152906001019060200180831161310d57829003601f168201915b505050505081526020016007820180546131439061556e565b80601f016020809104026020016040519081016040528092919081815260200182805461316f9061556e565b80156131bc5780601f10613191576101008083540402835291602001916131bc565b820191906000526020600020905b81548152906001019060200180831161319f57829003601f168201915b505050505081526020016008820160009054906101000a900460ff16151515158152505091505b80806131ee906155a0565b915050612cbd565b508091505090565b6000613208612caa565b9050600073ffffffffffffffffffffffffffffffffffffffff16816000015173ffffffffffffffffffffffffffffffffffffffff161461327d576040517f08c379a000000000000000000000000000000000000000000000000000000000815260040161327490615d9f565b60405180910390fd5b60006040518061012001604052803373ffffffffffffffffffffffffffffffffffffffff1681526020018981526020018881526020018781526020018681526020018581526020018481526020016040518060400160405280600681526020017f73656c6c657200000000000000000000000000000000000000000000000000008152508152602001600015158152509050600981908060018154018082558091505060019003906000526020600020906009020160009091909190915060008201518160000160006101000a81548173ffffffffffffffffffffffffffffffffffffffff021916908373ffffffffffffffffffffffffffffffffffffffff160217905550602082015181600101908051906020019061339e92919061423d565b5060408201518160020190805190602001906133bb92919061423d565b5060608201518160030190805190602001906133d892919061423d565b5060808201518160040190805190602001906133f592919061423d565b5060a082015181600501908051906020019061341292919061423d565b5060c082015181600601908051906020019061342f92919061423d565b5060e082015181600701908051906020019061344c92919061423d565b506101008201518160080160006101000a81548160ff02191690831515021790555050507f4d6c9cb9e736695727b9911179f91c71830c89645e085ef34943f634766640758160405161349f9190615183565b60405180910390a15050505050505050565b60606000600d546009805490506134c891906154dc565b67ffffffffffffffff8111156134e1576134e06146ed565b5b60405190808252806020026020018201604052801561351a57816020015b613507614320565b8152602001906001900390816134ff5790505b5090506000805b600980549050811015613a40576009818154811061354257613541615510565b5b906000526020600020906009020160080160009054906101000a900460ff16613a2d576009818154811061357957613578615510565b5b9060005260206000209060090201604051806101200160405290816000820160009054906101000a900473ffffffffffffffffffffffffffffffffffffffff1673ffffffffffffffffffffffffffffffffffffffff1673ffffffffffffffffffffffffffffffffffffffff1681526020016001820180546135f99061556e565b80601f01602080910402602001604051908101604052809291908181526020018280546136259061556e565b80156136725780601f1061364757610100808354040283529160200191613672565b820191906000526020600020905b81548152906001019060200180831161365557829003601f168201915b5050505050815260200160028201805461368b9061556e565b80601f01602080910402602001604051908101604052809291908181526020018280546136b79061556e565b80156137045780601f106136d957610100808354040283529160200191613704565b820191906000526020600020905b8154815290600101906020018083116136e757829003601f168201915b5050505050815260200160038201805461371d9061556e565b80601f01602080910402602001604051908101604052809291908181526020018280546137499061556e565b80156137965780601f1061376b57610100808354040283529160200191613796565b820191906000526020600020905b81548152906001019060200180831161377957829003601f168201915b505050505081526020016004820180546137af9061556e565b80601f01602080910402602001604051908101604052809291908181526020018280546137db9061556e565b80156138285780601f106137fd57610100808354040283529160200191613828565b820191906000526020600020905b81548152906001019060200180831161380b57829003601f168201915b505050505081526020016005820180546138419061556e565b80601f016020809104026020016040519081016040528092919081815260200182805461386d9061556e565b80156138ba5780601f1061388f576101008083540402835291602001916138ba565b820191906000526020600020905b81548152906001019060200180831161389d57829003601f168201915b505050505081526020016006820180546138d39061556e565b80601f01602080910402602001604051908101604052809291908181526020018280546138ff9061556e565b801561394c5780601f106139215761010080835404028352916020019161394c565b820191906000526020600020905b81548152906001019060200180831161392f57829003601f168201915b505050505081526020016007820180546139659061556e565b80601f01602080910402602001604051908101604052809291908181526020018280546139919061556e565b80156139de5780601f106139b3576101008083540402835291602001916139de565b820191906000526020600020905b8154815290600101906020018083116139c157829003601f168201915b505050505081526020016008820160009054906101000a900460ff161515151581525050838380613a0e906155a0565b945081518110613a2157613a20615510565b5b60200260200101819052505b8080613a38906155a0565b915050613521565b50819250505090565b60606000600d5467ffffffffffffffff811115613a6957613a686146ed565b5b604051908082528060200260200182016040528015613aa257816020015b613a8f614320565b815260200190600190039081613a875790505b5090506000805b600980549050811015613fc95760098181548110613aca57613ac9615510565b5b906000526020600020906009020160080160009054906101000a900460ff1615613fb65760098181548110613b0257613b01615510565b5b9060005260206000209060090201604051806101200160405290816000820160009054906101000a900473ffffffffffffffffffffffffffffffffffffffff1673ffffffffffffffffffffffffffffffffffffffff1673ffffffffffffffffffffffffffffffffffffffff168152602001600182018054613b829061556e565b80601f0160208091040260200160405190810160405280929190818152602001828054613bae9061556e565b8015613bfb5780601f10613bd057610100808354040283529160200191613bfb565b820191906000526020600020905b815481529060010190602001808311613bde57829003601f168201915b50505050508152602001600282018054613c149061556e565b80601f0160208091040260200160405190810160405280929190818152602001828054613c409061556e565b8015613c8d5780601f10613c6257610100808354040283529160200191613c8d565b820191906000526020600020905b815481529060010190602001808311613c7057829003601f168201915b50505050508152602001600382018054613ca69061556e565b80601f0160208091040260200160405190810160405280929190818152602001828054613cd29061556e565b8015613d1f5780601f10613cf457610100808354040283529160200191613d1f565b820191906000526020600020905b815481529060010190602001808311613d0257829003601f168201915b50505050508152602001600482018054613d389061556e565b80601f0160208091040260200160405190810160405280929190818152602001828054613d649061556e565b8015613db15780601f10613d8657610100808354040283529160200191613db1565b820191906000526020600020905b815481529060010190602001808311613d9457829003601f168201915b50505050508152602001600582018054613dca9061556e565b80601f0160208091040260200160405190810160405280929190818152602001828054613df69061556e565b8015613e435780601f10613e1857610100808354040283529160200191613e43565b820191906000526020600020905b815481529060010190602001808311613e2657829003601f168201915b50505050508152602001600682018054613e5c9061556e565b80601f0160208091040260200160405190810160405280929190818152602001828054613e889061556e565b8015613ed55780601f10613eaa57610100808354040283529160200191613ed5565b820191906000526020600020905b815481529060010190602001808311613eb857829003601f168201915b50505050508152602001600782018054613eee9061556e565b80601f0160208091040260200160405190810160405280929190818152602001828054613f1a9061556e565b8015613f675780601f10613f3c57610100808354040283529160200191613f67565b820191906000526020600020905b815481529060010190602001808311613f4a57829003601f168201915b505050505081526020016008820160009054906101000a900460ff161515151581525050838380613f97906155a0565b945081518110613faa57613fa9615510565b5b60200260200101819052505b8080613fc1906155a0565b915050613aa9565b50819250505090565b6000808280519060200120905060005b60088054905081101561404d576008818154811061400357614002615510565b5b90600052602060002090600c02016004016040516140219190615e5e565b604051809103902082141561403a578092505050614073565b8080614045906155a0565b915050613fe2565b507fffffffffffffffffffffffffffffffffffffffffffffffffffffffffffffffff9150505b919050565b6000808280519060200120905060005b600a8054905081101561411357600a81815481106140a9576140a8615510565b5b90600052602060002090600a02016000016040516140c79190615e5e565b6040518091039020821415614100577fffffffffffffffffffffffffffffffffffffffffffffffffffffffffffffffff92505050614119565b808061410b906155a0565b915050614088565b80925050505b919050565b6000808280519060200120905060005b600a8054905081101561419957600a818154811061414f5761414e615510565b5b90600052602060002090600a020160000160405161416d9190615e5e565b60405180910390208214156141865780925050506141bf565b8080614191906155a0565b91505061412e565b507fffffffffffffffffffffffffffffffffffffffffffffffffffffffffffffffff9150505b919050565b604051806101800160405280600073ffffffffffffffffffffffffffffffffffffffff168152602001606081526020016060815260200160608152602001606081526020016060815260200160608152602001606081526020016060815260200160608152602001600015158152602001600081525090565b8280546142499061556e565b90600052602060002090601f01602090048101928261426b57600085556142b2565b82601f1061428457805160ff19168380011785556142b2565b828001600101855582156142b2579182015b828111156142b1578251825591602001919060010190614296565b5b5090506142bf9190614384565b5090565b604051806101000160405280600073ffffffffffffffffffffffffffffffffffffffff1681526020016060815260200160608152602001606081526020016060815260200160608152602001606081526020016000151581525090565b604051806101200160405280600073ffffffffffffffffffffffffffffffffffffffff168152602001606081526020016060815260200160608152602001606081526020016060815260200160608152602001606081526020016000151581525090565b5b8082111561439d576000816000905550600101614385565b5090565b600081519050919050565b600082825260208201905092915050565b6000819050602082019050919050565b600073ffffffffffffffffffffffffffffffffffffffff82169050919050565b60006143f8826143cd565b9050919050565b614408816143ed565b82525050565b600081519050919050565b600082825260208201905092915050565b60005b8381101561444857808201518184015260208101905061442d565b83811115614457576000848401525b50505050565b6000601f19601f8301169050919050565b60006144798261440e565b6144838185614419565b935061449381856020860161442a565b61449c8161445d565b840191505092915050565b60008115159050919050565b6144bc816144a7565b82525050565b6000819050919050565b6144d5816144c2565b82525050565b6000610180830160008301516144f460008601826143ff565b506020830151848203602086015261450c828261446e565b91505060408301518482036040860152614526828261446e565b91505060608301518482036060860152614540828261446e565b9150506080830151848203608086015261455a828261446e565b91505060a083015184820360a0860152614574828261446e565b91505060c083015184820360c086015261458e828261446e565b91505060e083015184820360e08601526145a8828261446e565b9150506101008301518482036101008601526145c4828261446e565b9150506101208301518482036101208601526145e0828261446e565b9150506101408301516145f76101408601826144b3565b5061016083015161460c6101608601826144cc565b508091505092915050565b600061462383836144db565b905092915050565b6000602082019050919050565b6000614643826143a1565b61464d81856143ac565b93508360208202850161465f856143bd565b8060005b8581101561469b578484038952815161467c8582614617565b94506146878361462b565b925060208a01995050600181019050614663565b50829750879550505050505092915050565b600060208201905081810360008301526146c78184614638565b905092915050565b6000604051905090565b600080fd5b600080fd5b600080fd5b600080fd5b7f4e487b7100000000000000000000000000000000000000000000000000000000600052604160045260246000fd5b6147258261445d565b810181811067ffffffffffffffff82111715614744576147436146ed565b5b80604052505050565b60006147576146cf565b9050614763828261471c565b919050565b600067ffffffffffffffff821115614783576147826146ed565b5b61478c8261445d565b9050602081019050919050565b82818337600083830152505050565b60006147bb6147b684614768565b61474d565b9050828152602081018484840111156147d7576147d66146e8565b5b6147e2848285614799565b509392505050565b600082601f8301126147ff576147fe6146e3565b5b813561480f8482602086016147a8565b91505092915050565b614821816144c2565b811461482c57600080fd5b50565b60008135905061483e81614818565b92915050565b600080600080600080600080610100898b031215614865576148646146d9565b5b600089013567ffffffffffffffff811115614883576148826146de565b5b61488f8b828c016147ea565b985050602089013567ffffffffffffffff8111156148b0576148af6146de565b5b6148bc8b828c016147ea565b975050604089013567ffffffffffffffff8111156148dd576148dc6146de565b5b6148e98b828c016147ea565b96505060606148fa8b828c0161482f565b955050608089013567ffffffffffffffff81111561491b5761491a6146de565b5b6149278b828c016147ea565b94505060a06149388b828c0161482f565b93505060c06149498b828c0161482f565b92505060e089013567ffffffffffffffff81111561496a576149696146de565b5b6149768b828c016147ea565b9150509295985092959890939650565b61498f816143ed565b811461499a57600080fd5b50565b6000813590506149ac81614986565b92915050565b6000602082840312156149c8576149c76146d9565b5b60006149d68482850161499d565b91505092915050565b600081519050919050565b600082825260208201905092915050565b6000819050602082019050919050565b6000610140830160008301518482036000860152614a29828261446e565b91505060208301518482036020860152614a43828261446e565b91505060408301518482036040860152614a5d828261446e565b9150506060830151614a7260608601826144cc565b5060808301518482036080860152614a8a828261446e565b91505060a0830151614a9f60a08601826144cc565b5060c0830151614ab260c08601826144cc565b5060e083015184820360e0860152614aca828261446e565b915050610100830151848203610100860152614ae6828261446e565b915050610120830151614afd6101208601826144b3565b508091505092915050565b6000614b148383614a0b565b905092915050565b6000602082019050919050565b6000614b34826149df565b614b3e81856149ea565b935083602082028501614b50856149fb565b8060005b85811015614b8c5784840389528151614b6d8582614b08565b9450614b7883614b1c565b925060208a01995050600181019050614b54565b50829750879550505050505092915050565b60006020820190508181036000830152614bb88184614b29565b905092915050565b600080600080600080600080610100898b031215614be157614be06146d9565b5b600089013567ffffffffffffffff811115614bff57614bfe6146de565b5b614c0b8b828c016147ea565b985050602089013567ffffffffffffffff811115614c2c57614c2b6146de565b5b614c388b828c016147ea565b975050604089013567ffffffffffffffff811115614c5957614c586146de565b5b614c658b828c016147ea565b965050606089013567ffffffffffffffff811115614c8657614c856146de565b5b614c928b828c016147ea565b955050608089013567ffffffffffffffff811115614cb357614cb26146de565b5b614cbf8b828c016147ea565b94505060a089013567ffffffffffffffff811115614ce057614cdf6146de565b5b614cec8b828c016147ea565b93505060c089013567ffffffffffffffff811115614d0d57614d0c6146de565b5b614d198b828c016147ea565b92505060e089013567ffffffffffffffff811115614d3a57614d396146de565b5b614d468b828c016147ea565b9150509295985092959890939650565b600061018083016000830151614d6f60008601826143ff565b5060208301518482036020860152614d87828261446e565b91505060408301518482036040860152614da1828261446e565b91505060608301518482036060860152614dbb828261446e565b91505060808301518482036080860152614dd5828261446e565b91505060a083015184820360a0860152614def828261446e565b91505060c083015184820360c0860152614e09828261446e565b91505060e083015184820360e0860152614e23828261446e565b915050610100830151848203610100860152614e3f828261446e565b915050610120830151848203610120860152614e5b828261446e565b915050610140830151614e726101408601826144b3565b50610160830151614e876101608601826144cc565b508091505092915050565b60006020820190508181036000830152614eac8184614d56565b905092915050565b600061010083016000830151614ecd60008601826143ff565b5060208301518482036020860152614ee5828261446e565b91505060408301518482036040860152614eff828261446e565b91505060608301518482036060860152614f19828261446e565b91505060808301518482036080860152614f33828261446e565b91505060a083015184820360a0860152614f4d828261446e565b91505060c083015184820360c0860152614f67828261446e565b91505060e0830151614f7c60e08601826144b3565b508091505092915050565b60006020820190508181036000830152614fa18184614eb4565b905092915050565b614fb2816144c2565b82525050565b6000602082019050614fcd6000830184614fa9565b92915050565b600060208284031215614fe957614fe86146d9565b5b600082013567ffffffffffffffff811115615007576150066146de565b5b615013848285016147ea565b91505092915050565b60008060408385031215615033576150326146d9565b5b600083013567ffffffffffffffff811115615051576150506146de565b5b61505d858286016147ea565b925050602083013567ffffffffffffffff81111561507e5761507d6146de565b5b61508a858286016147ea565b9150509250929050565b6000610120830160008301516150ad60008601826143ff565b50602083015184820360208601526150c5828261446e565b915050604083015184820360408601526150df828261446e565b915050606083015184820360608601526150f9828261446e565b91505060808301518482036080860152615113828261446e565b91505060a083015184820360a086015261512d828261446e565b91505060c083015184820360c0860152615147828261446e565b91505060e083015184820360e0860152615161828261446e565b9150506101008301516151786101008601826144b3565b508091505092915050565b6000602082019050818103600083015261519d8184615094565b905092915050565b60008060008060008060c087890312156151c2576151c16146d9565b5b600087013567ffffffffffffffff8111156151e0576151df6146de565b5b6151ec89828a016147ea565b965050602087013567ffffffffffffffff81111561520d5761520c6146de565b5b61521989828a016147ea565b955050604087013567ffffffffffffffff81111561523a576152396146de565b5b61524689828a016147ea565b945050606087013567ffffffffffffffff811115615267576152666146de565b5b61527389828a016147ea565b935050608087013567ffffffffffffffff811115615294576152936146de565b5b6152a089828a016147ea565b92505060a087013567ffffffffffffffff8111156152c1576152c06146de565b5b6152cd89828a016147ea565b9150509295509295509295565b600081519050919050565b600082825260208201905092915050565b6000819050602082019050919050565b60006101208301600083015161531f60008601826143ff565b5060208301518482036020860152615337828261446e565b91505060408301518482036040860152615351828261446e565b9150506060830151848203606086015261536b828261446e565b91505060808301518482036080860152615385828261446e565b91505060a083015184820360a086015261539f828261446e565b91505060c083015184820360c08601526153b9828261446e565b91505060e083015184820360e08601526153d3828261446e565b9150506101008301516153ea6101008601826144b3565b508091505092915050565b60006154018383615306565b905092915050565b6000602082019050919050565b6000615421826152da565b61542b81856152e5565b93508360208202850161543d856152f6565b8060005b85811015615479578484038952815161545a85826153f5565b945061546583615409565b925060208a01995050600181019050615441565b50829750879550505050505092915050565b600060208201905081810360008301526154a58184615416565b905092915050565b7f4e487b7100000000000000000000000000000000000000000000000000000000600052601160045260246000fd5b60006154e7826144c2565b91506154f2836144c2565b925082821015615505576155046154ad565b5b828203905092915050565b7f4e487b7100000000000000000000000000000000000000000000000000000000600052603260045260246000fd5b7f4e487b7100000000000000000000000000000000000000000000000000000000600052602260045260246000fd5b6000600282049050600182168061558657607f821691505b6020821081141561559a5761559961553f565b5b50919050565b60006155ab826144c2565b91507fffffffffffffffffffffffffffffffffffffffffffffffffffffffffffffffff8214156155de576155dd6154ad565b5b600182019050919050565b600082825260208201905092915050565b7f4f6e6c7920726567697374657265642073656c6c6572732063616e20706c616360008201527f65206f7264657273000000000000000000000000000000000000000000000000602082015250565b60006156566028836155e9565b9150615661826155fa565b604082019050919050565b6000602082019050818103600083015261568581615649565b9050919050565b7f4f6e6c792076657269666965642073656c6c6572732063616e20706c6163652060008201527f6f72646572730000000000000000000000000000000000000000000000000000602082015250565b60006156e86026836155e9565b91506156f38261568c565b604082019050919050565b60006020820190508181036000830152615717816156db565b9050919050565b7f4661726d6572206e6f7420666f756e6400000000000000000000000000000000600082015250565b60006157546010836155e9565b915061575f8261571e565b602082019050919050565b6000602082019050818103600083015261578381615747565b9050919050565b7f596f75206861766520657863656564656420796f7572206f72646572206c696d60008201527f6974000000000000000000000000000000000000000000000000000000000000602082015250565b60006157e66022836155e9565b91506157f18261578a565b604082019050919050565b60006020820190508181036000830152615815816157d9565b9050919050565b7f43616e6e6f7420706c616365206d756c7469706c65206f72646572206174207360008201527f616d652064617921210000000000000000000000000000000000000000000000602082015250565b60006158786029836155e9565b91506158838261581c565b604082019050919050565b600060208201905081810360008301526158a78161586b565b9050919050565b60006101408301600083015184820360008601526158cc828261446e565b915050602083015184820360208601526158e6828261446e565b91505060408301518482036040860152615900828261446e565b915050606083015161591560608601826144cc565b506080830151848203608086015261592d828261446e565b91505060a083015161594260a08601826144cc565b5060c083015161595560c08601826144cc565b5060e083015184820360e086015261596d828261446e565b915050610100830151848203610100860152615989828261446e565b9150506101208301516159a06101208601826144b3565b508091505092915050565b600060208201905081810360008301526159c581846158ae565b905092915050565b7f4f6e6c792061646d696e2063616e20766572696679204f7267616e697a61746960008201527f6f6e000000000000000000000000000000000000000000000000000000000000602082015250565b6000615a296022836155e9565b9150615a34826159cd565b604082019050919050565b60006020820190508181036000830152615a5881615a1c565b9050919050565b7f53656c6c65722075706461746520737563636573730000000000000000000000600082015250565b6000615a956015836155e9565b9150615aa082615a5f565b602082019050919050565b60006020820190508181036000830152615ac481615a88565b9050919050565b7f436f756c646e27742066696e642073656c6c65722e0000000000000000000000600082015250565b6000615b016015836155e9565b9150615b0c82615acb565b602082019050919050565b60006020820190508181036000830152615b3081615af4565b9050919050565b7f4661726d657220616c7265616479207265676973746572640000000000000000600082015250565b6000615b6d6018836155e9565b9150615b7882615b37565b602082019050919050565b60006020820190508181036000830152615b9c81615b60565b9050919050565b7f4f6e6c792061646d696e2063616e207665726966792042757965720000000000600082015250565b6000615bd9601b836155e9565b9150615be482615ba3565b602082019050919050565b60006020820190508181036000830152615c0881615bcc565b9050919050565b7f4661726d65722075706461746520737563636573730000000000000000000000600082015250565b6000615c456015836155e9565b9150615c5082615c0f565b602082019050919050565b60006020820190508181036000830152615c7481615c38565b9050919050565b7f436f756c646e27742066696e64206661726d65722e0000000000000000000000600082015250565b6000615cb16015836155e9565b9150615cbc82615c7b565b602082019050919050565b60006020820190508181036000830152615ce081615ca4565b9050919050565b7f496e76616c6964204f7264657220496400000000000000000000000000000000600082015250565b6000615d1d6010836155e9565b9150615d2882615ce7565b602082019050919050565b60006020820190508181036000830152615d4c81615d10565b9050919050565b7f53656c6c657220416c7265616479205265676973746572656400000000000000600082015250565b6000615d896019836155e9565b9150615d9482615d53565b602082019050919050565b60006020820190508181036000830152615db881615d7c565b9050919050565b600081905092915050565b60008190508160005260206000209050919050565b60008154615dec8161556e565b615df68186615dbf565b94506001821660008114615e115760018114615e2257615e55565b60ff19831686528186019350615e55565b615e2b85615dca565b60005b83811015615e4d57815481890152600182019150602081019050615e2e565b838801955050505b50505092915050565b6000615e6a8284615ddf565b91508190509291505056fea2646970667358221220c3bcc19e76974574b5aa9e5dc87651078460eb852e0e4f9b1ca432d4a0c1f27d64736f6c634300080a0033",
  "immutableReferences": {},
  "source": "// SPDX-License-Identifier: GPL-3.0\npragma solidity >=0.5.0 <0.9.0;\npragma experimental ABIEncoderV2;\n\ncontract Org {\n\n    //address admin;\n    struct Admin {\n        address id;\n        bytes name;\n        bytes addr;\n        bytes email;\n        bytes con;\n        bytes typ;\n        bytes role;\n        bool verified;\n    }\n\n    struct Farmer {\n        address id;\n        bytes name;\n        bytes aadharno;\n        bytes addr;\n        bytes con; //contacts\n        bytes typ;\n        bytes landdetails;\n        bytes fertilizersused;\n        bytes noofcrops;\n        bytes role;\n        bool verified;\n        uint256 orderCount;\n    }\n\n    struct Seller {\n        address id;\n        bytes name;\n        bytes email;\n        bytes con;\n        bytes gstno;\n        bytes addr;\n        bytes typ;\n        bytes role;\n        bool verified;\n    }\n\n    struct Order {\n        bytes orderId;\n        bytes buyername;\n        bytes contact;\n        uint256 order_date;\n        //address sellerId;\n        //address buyerId;\n        bytes product;\n        uint256 quantity;\n        uint256 price;\n        bytes  gstno;\n        bytes Mgstno;\n        bool fulfilled;\n    }\n\n    //Variables for the objects\n    //Admin private admin;\n    Admin private adminval;\n    Farmer[] private farmers;\n    Seller[] private sellers;\n    Order[] private orders;\n    uint256 MAX_ORDER_COUNT = 5;\n    uint256 private verifiedBuyerCount = 0;\n    uint256 private verifiedSellerCount = 0;\n\n    //Events\n    event onFarmerRegistration(Farmer _farmervalue);\n    event onRegisterSeller(Seller _sellervalue);\n    event onAddOrders(Order _order);\n    event onAddOrdersWholeseller(Order _order);\n    event VerifyBuyers(string _message);\n    event VerifySellers(string _message);\n\n    //Contractor will create the admin for the contract\n    constructor(\n        bytes memory name,\n        bytes memory addr,\n        bytes memory email,\n        bytes memory con,\n        bytes memory typ\n    )  {\n        adminval = Admin(msg.sender, name, addr, email, con, typ, \"admin\", true);\n    }\n\n    //To onboard new farmer, will this address be other address ? as farmer will not have the technology for the same\n    function registerFarmer(\n        bytes memory name,\n        bytes memory aadharno,\n        bytes memory addr,\n        bytes memory con,\n        bytes memory typ,\n        bytes memory landdetails,\n        bytes memory fertilizersused,\n        bytes memory noofcrops\n    ) public {\n        //check for same address \n        Farmer memory farmer = getBuyer();\n\n        require(farmer.id == address(0), \"Farmer already registerd\");\n        \n        Farmer memory newFarmer = Farmer(\n            msg.sender,\n            name,\n            aadharno,\n            addr,\n            con,\n            typ,\n            landdetails,\n            fertilizersused,\n            noofcrops,\n            \"buyer\",\n            false,\n            0\n        );\n        farmers.push(newFarmer);\n        emit onFarmerRegistration(newFarmer);\n    }\n\n    //Registration of Seller\n    function registerSeller(\n        bytes memory name,\n        bytes memory email,\n        bytes memory con,\n        bytes memory gstno,\n        bytes memory addr,\n        bytes memory typ\n    ) public {\n        Seller memory seller = getSeller();\n        //Can't register same seller again and again\n        require(seller.id == address(0), \"Seller Already Registered\");\n\n        Seller memory sellervalue = Seller(\n            msg.sender,\n            name,\n            email,\n            con,\n            gstno,\n            addr,\n            typ,\n            \"seller\",\n            false\n        );\n        sellers.push(sellervalue);\n        emit onRegisterSeller(sellervalue);\n    }\n\n    function addOrders(\n        bytes memory orderId,\n        bytes memory buyername,\n        bytes memory contact,\n        uint256 order_date,\n        //address sellerId;\n        //address buyerId;\n        bytes memory product,\n        uint256 quantity,\n        uint256 price, \n        bytes memory gstno\n    ) public {\n        Seller memory seller = getSeller();\n\n        require(seller.id != address(0), \"Only registered sellers can place orders\");\n\n        require(seller.verified, \"Only verified sellers can place orders\");\n\n        int256 farmerIdx = getFarmerIdxByContact(contact);\n\n        require(farmerIdx >= 0 , \"Farmer not found\");\n\n        require(farmers[uint256(farmerIdx)].orderCount < MAX_ORDER_COUNT, \"You have exceeded your order limit\");\n        //cannot place more than one order at same day\n        int256 OrderAtSameDate=NoOrderAtSameDate(orderId);\n        require(OrderAtSameDate >= 0 , \"Cannot place multiple order at same day!!\");\n        Order memory order = Order({\n            orderId: orderId,\n            buyername: buyername,\n            contact: contact,\n            order_date: order_date,\n            product: product,\n            quantity: quantity,\n            price: price,\n            gstno: gstno,\n            Mgstno: \"0x30\",\n            fulfilled:false\n        });\n        orders.push(order);\n\n        // Update order count for the buyer\n        farmers[uint256(farmerIdx)].orderCount++;\n        emit onAddOrders(order);\n    }\n\n    function getOrders() public view returns (Order[] memory) {\n        return orders;\n    }\n    //Function to forward order from wholeseller to manufacturer\n    function forwardToManuFacturer(\n        bytes memory orderId,\n        bytes memory manufacturerGstno\n    ) public{\n        Seller memory seller = getSeller();\n\n        require(seller.id != address(0), \"Only registered sellers can place orders\");\n\n        require(seller.verified, \"Only verified sellers can place orders\");\n        \n        int256 orderIdx = getOrderIdxByOrderId(orderId);\n\n        require(orderIdx >= 0 , \"Invalid Order Id\");\n        orders[uint256(orderIdx)].Mgstno=manufacturerGstno;\n    }\n\n    //Function to Fulfill/accept order at Manufacturer end \n    function fulfillOrderManufacturer(bytes memory orderId) public {\n\n        Seller memory seller = getSeller();\n\n        require(seller.id != address(0), \"Only registered sellers can place orders\");\n\n        require(seller.verified, \"Only verified sellers can place orders\");\n       \n        int256 orderIdx = getOrderIdxByOrderId(orderId);\n\n        require(orderIdx >= 0 , \"Invalid Order Id\");\n        orders[uint256(orderIdx)].fulfilled=true;\n    }\n\n\n    function getAdmin() public view returns (Admin memory) {\n        return adminval;\n    }\n\n    function getBuyer() public view returns (Farmer memory) {\n        Farmer memory farmer;\n        for (uint256 i = 0; i < farmers.length; i++) {\n            if (farmers[i].id == msg.sender) {\n                farmer = farmers[i];\n            }\n        }\n        return farmer;\n    }\n\n    function getSeller() public view returns (Seller memory) {\n        Seller memory seller;\n        for (uint256 i = 0; i < sellers.length; i++) {\n            if (sellers[i].id == msg.sender) {\n                seller = sellers[i];\n            }\n        }\n        return seller;\n    }\n\n    function getUnverifiedBuyers() public view returns (Farmer[] memory) {\n        Farmer[] memory unverifiedFarmer = new Farmer[](farmers.length - verifiedBuyerCount);\n        uint256 fidx = 0;\n        for (uint256 i = 0; i < farmers.length; i++) {\n            if (!farmers[i].verified) {\n                unverifiedFarmer[fidx++] = farmers[i];\n            }\n        }\n        return unverifiedFarmer;\n    }\n\n    function getUnverifiedSellers() public view returns (Seller[] memory) {\n        Seller[] memory unverifiedSellers = new Seller[](sellers.length - verifiedSellerCount);\n        uint256 sidx = 0;\n        for (uint256 i = 0; i < sellers.length; i++) {\n            if (!sellers[i].verified) {\n                unverifiedSellers[sidx++] = sellers[i];\n            }\n        }\n        return unverifiedSellers;\n    }\n\n    //Get verified farmers\n    function getVerifiedBuyers() public view returns (Farmer[] memory) {\n        Farmer[] memory verifiedFarmer = new Farmer[](verifiedBuyerCount);\n        uint256 fidx = 0;\n        for (uint256 i = 0; i < farmers.length; i++) {\n            if (farmers[i].verified) {\n                verifiedFarmer[fidx++] = farmers[i];\n            }\n        }\n        return verifiedFarmer;\n    }\n\n    function getVerifiedSellers() public view returns (Seller[] memory) {\n        Seller[] memory verifiedSellers = new Seller[](verifiedSellerCount);\n        uint256 sidx = 0;\n        for (uint256 i = 0; i < sellers.length; i++) {\n            if (sellers[i].verified) {\n                verifiedSellers[sidx++] = sellers[i];\n            }\n        }\n        return verifiedSellers;\n    }\n\n        //Farmer verification \n    function verifyBuyers(address _address) public {\n        require(msg.sender == adminval.id, \"Only admin can verify Buyer\");\n        for(uint256 i = 0; i < farmers.length; i++){\n            if(farmers[i].id == _address){\n                farmers[i].verified = true;\n                verifiedBuyerCount++;\n                emit VerifyBuyers(\"Farmer update success\");\n                break;\n            }\n        }\n        emit VerifyBuyers(\"Couldn't find farmer.\");\n    }\n\n    function verifySellers(address _address) public {\n        require(msg.sender == adminval.id, \"Only admin can verify Organization\");\n        for(uint256 i = 0; i < sellers.length; i++){\n            if(sellers[i].id == _address){\n                sellers[i].verified = true;\n                verifiedSellerCount++;\n                emit VerifySellers(\"Seller update success\");\n                break;\n            }\n        }\n        emit VerifySellers(\"Couldn't find seller.\");\n    }\n\n    function getFarmerIdxByContact(bytes memory contact) private view returns (int256){\n        bytes32 con = keccak256(contact);\n        for (uint256 i = 0; i < farmers.length; i++) {\n            if (con == keccak256(farmers[i].con)) {\n               return int256(i);\n            }\n        }\n        return -1;\n    }\n    function getOrderIdxByOrderId(bytes memory orderId) private view returns(int256){\n        bytes32 oid=keccak256(orderId);\n        for (uint256 i = 0; i < orders.length; i++) {\n            if (oid == keccak256(orders[i].orderId)) {\n               return int256(i);\n            }\n        }\n        return -1;\n    }\n \n    /*Function for cannot place more than one order at same day,if oid matches with orderid\n    from orders array will return -1 else will return index*/\n    function NoOrderAtSameDate(bytes memory orderId) private view returns(int256){\n        bytes32 oid=keccak256(orderId);\n        uint256 i;\n        for (i = 0; i < orders.length; i++) {\n            if (oid == keccak256(orders[i].orderId)) {\n               return -1;\n            }\n        }\n        return int256(i);\n    }\n\n\n    function getVerifiedBuyerCount() public view returns (uint256){\n        return verifiedBuyerCount;\n    }\n\n    function getVerifiedSellerCount() public view returns (uint256){\n        return verifiedSellerCount;\n    }\n}",
  "sourcePath": "E:/blockchain_final/DBT-main/contracts/Org.sol",
  "compiler": {
    "name": "solc",
    "version": "0.8.10+commit.fc410830.Emscripten.clang"
  },
  "schemaVersion": "3.3.4",
  "updatedAt": "2024-03-26T10:33:29.063Z",
  "networkType": "ethereum",
  "devdoc": {
    "kind": "dev",
    "methods": {},
    "version": 1
  },
  "userdoc": {
    "kind": "user",
    "methods": {},
    "version": 1
  }
}