{
  "contractName": "Org",
  "abi": [
    {
      "inputs": [
        {
          "internalType": "bytes",
          "name": "name",
          "type": "bytes"
        },
        {
          "internalType": "bytes",
          "name": "addr",
          "type": "bytes"
        },
        {
          "internalType": "bytes",
          "name": "email",
          "type": "bytes"
        },
        {
          "internalType": "bytes",
          "name": "con",
          "type": "bytes"
        },
        {
          "internalType": "bytes",
          "name": "typ",
          "type": "bytes"
        }
      ],
      "stateMutability": "nonpayable",
      "type": "constructor"
    },
    {
      "anonymous": false,
      "inputs": [
        {
          "indexed": false,
          "internalType": "string",
          "name": "_message",
          "type": "string"
        }
      ],
      "name": "VerifyBuyers",
      "type": "event"
    },
    {
      "anonymous": false,
      "inputs": [
        {
          "indexed": false,
          "internalType": "string",
          "name": "_message",
          "type": "string"
        }
      ],
      "name": "VerifySellers",
      "type": "event"
    },
    {
      "anonymous": false,
      "inputs": [
        {
          "components": [
            {
              "internalType": "bytes",
              "name": "orderId",
              "type": "bytes"
            },
            {
              "internalType": "bytes",
              "name": "buyername",
              "type": "bytes"
            },
            {
              "internalType": "bytes",
              "name": "contact",
              "type": "bytes"
            },
            {
              "internalType": "uint256",
              "name": "order_date",
              "type": "uint256"
            },
            {
              "internalType": "bytes",
              "name": "product",
              "type": "bytes"
            },
            {
              "internalType": "uint256",
              "name": "quantity",
              "type": "uint256"
            },
            {
              "internalType": "uint256",
              "name": "price",
              "type": "uint256"
            },
            {
              "internalType": "bytes",
              "name": "Rgstno",
              "type": "bytes"
            },
            {
              "internalType": "bytes",
              "name": "gstno",
              "type": "bytes"
            },
            {
              "internalType": "bytes",
              "name": "Mgstno",
              "type": "bytes"
            },
            {
              "internalType": "bool",
              "name": "fulfilled",
              "type": "bool"
            }
          ],
          "indexed": false,
          "internalType": "struct Org.Order",
          "name": "_order",
          "type": "tuple"
        }
      ],
      "name": "onAddOrders",
      "type": "event"
    },
    {
      "anonymous": false,
      "inputs": [
        {
          "components": [
            {
              "internalType": "bytes",
              "name": "orderId",
              "type": "bytes"
            },
            {
              "internalType": "bytes",
              "name": "buyername",
              "type": "bytes"
            },
            {
              "internalType": "bytes",
              "name": "contact",
              "type": "bytes"
            },
            {
              "internalType": "uint256",
              "name": "order_date",
              "type": "uint256"
            },
            {
              "internalType": "bytes",
              "name": "product",
              "type": "bytes"
            },
            {
              "internalType": "uint256",
              "name": "quantity",
              "type": "uint256"
            },
            {
              "internalType": "uint256",
              "name": "price",
              "type": "uint256"
            },
            {
              "internalType": "bytes",
              "name": "Rgstno",
              "type": "bytes"
            },
            {
              "internalType": "bytes",
              "name": "gstno",
              "type": "bytes"
            },
            {
              "internalType": "bytes",
              "name": "Mgstno",
              "type": "bytes"
            },
            {
              "internalType": "bool",
              "name": "fulfilled",
              "type": "bool"
            }
          ],
          "indexed": false,
          "internalType": "struct Org.Order",
          "name": "_order",
          "type": "tuple"
        }
      ],
      "name": "onAddOrdersWholeseller",
      "type": "event"
    },
    {
      "anonymous": false,
      "inputs": [
        {
          "components": [
            {
              "internalType": "address",
              "name": "id",
              "type": "address"
            },
            {
              "internalType": "bytes",
              "name": "name",
              "type": "bytes"
            },
            {
              "internalType": "bytes",
              "name": "aadharno",
              "type": "bytes"
            },
            {
              "internalType": "bytes",
              "name": "addr",
              "type": "bytes"
            },
            {
              "internalType": "bytes",
              "name": "con",
              "type": "bytes"
            },
            {
              "internalType": "bytes",
              "name": "typ",
              "type": "bytes"
            },
            {
              "internalType": "bytes",
              "name": "landdetails",
              "type": "bytes"
            },
            {
              "internalType": "bytes",
              "name": "fertilizersused",
              "type": "bytes"
            },
            {
              "internalType": "bytes",
              "name": "noofcrops",
              "type": "bytes"
            },
            {
              "internalType": "bytes",
              "name": "role",
              "type": "bytes"
            },
            {
              "internalType": "bool",
              "name": "verified",
              "type": "bool"
            },
            {
              "internalType": "uint256",
              "name": "orderCount",
              "type": "uint256"
            }
          ],
          "indexed": false,
          "internalType": "struct Org.Farmer",
          "name": "_farmervalue",
          "type": "tuple"
        }
      ],
      "name": "onFarmerRegistration",
      "type": "event"
    },
    {
      "anonymous": false,
      "inputs": [
        {
          "components": [
            {
              "internalType": "address",
              "name": "id",
              "type": "address"
            },
            {
              "internalType": "bytes",
              "name": "name",
              "type": "bytes"
            },
            {
              "internalType": "bytes",
              "name": "email",
              "type": "bytes"
            },
            {
              "internalType": "bytes",
              "name": "con",
              "type": "bytes"
            },
            {
              "internalType": "bytes",
              "name": "gstno",
              "type": "bytes"
            },
            {
              "internalType": "bytes",
              "name": "addr",
              "type": "bytes"
            },
            {
              "internalType": "bytes",
              "name": "typ",
              "type": "bytes"
            },
            {
              "internalType": "bytes",
              "name": "role",
              "type": "bytes"
            },
            {
              "internalType": "bool",
              "name": "verified",
              "type": "bool"
            }
          ],
          "indexed": false,
          "internalType": "struct Org.Seller",
          "name": "_sellervalue",
          "type": "tuple"
        }
      ],
      "name": "onRegisterSeller",
      "type": "event"
    },
    {
      "inputs": [
        {
          "internalType": "bytes",
          "name": "name",
          "type": "bytes"
        },
        {
          "internalType": "bytes",
          "name": "aadharno",
          "type": "bytes"
        },
        {
          "internalType": "bytes",
          "name": "addr",
          "type": "bytes"
        },
        {
          "internalType": "bytes",
          "name": "con",
          "type": "bytes"
        },
        {
          "internalType": "bytes",
          "name": "typ",
          "type": "bytes"
        },
        {
          "internalType": "bytes",
          "name": "landdetails",
          "type": "bytes"
        },
        {
          "internalType": "bytes",
          "name": "fertilizersused",
          "type": "bytes"
        },
        {
          "internalType": "bytes",
          "name": "noofcrops",
          "type": "bytes"
        }
      ],
      "name": "registerFarmer",
      "outputs": [],
      "stateMutability": "nonpayable",
      "type": "function"
    },
    {
      "inputs": [
        {
          "internalType": "bytes",
          "name": "name",
          "type": "bytes"
        },
        {
          "internalType": "bytes",
          "name": "email",
          "type": "bytes"
        },
        {
          "internalType": "bytes",
          "name": "con",
          "type": "bytes"
        },
        {
          "internalType": "bytes",
          "name": "gstno",
          "type": "bytes"
        },
        {
          "internalType": "bytes",
          "name": "addr",
          "type": "bytes"
        },
        {
          "internalType": "bytes",
          "name": "typ",
          "type": "bytes"
        }
      ],
      "name": "registerSeller",
      "outputs": [],
      "stateMutability": "nonpayable",
      "type": "function"
    },
    {
      "inputs": [
        {
          "internalType": "bytes",
          "name": "orderId",
          "type": "bytes"
        },
        {
          "internalType": "bytes",
          "name": "buyername",
          "type": "bytes"
        },
        {
          "internalType": "bytes",
          "name": "contact",
          "type": "bytes"
        },
        {
          "internalType": "uint256",
          "name": "order_date",
          "type": "uint256"
        },
        {
          "internalType": "bytes",
          "name": "product",
          "type": "bytes"
        },
        {
          "internalType": "uint256",
          "name": "quantity",
          "type": "uint256"
        },
        {
          "internalType": "uint256",
          "name": "price",
          "type": "uint256"
        },
        {
          "internalType": "bytes",
          "name": "Rgstno",
          "type": "bytes"
        },
        {
          "internalType": "bytes",
          "name": "gstno",
          "type": "bytes"
        }
      ],
      "name": "addOrders",
      "outputs": [],
      "stateMutability": "nonpayable",
      "type": "function"
    },
    {
      "inputs": [],
      "name": "getOrders",
      "outputs": [
        {
          "components": [
            {
              "internalType": "bytes",
              "name": "orderId",
              "type": "bytes"
            },
            {
              "internalType": "bytes",
              "name": "buyername",
              "type": "bytes"
            },
            {
              "internalType": "bytes",
              "name": "contact",
              "type": "bytes"
            },
            {
              "internalType": "uint256",
              "name": "order_date",
              "type": "uint256"
            },
            {
              "internalType": "bytes",
              "name": "product",
              "type": "bytes"
            },
            {
              "internalType": "uint256",
              "name": "quantity",
              "type": "uint256"
            },
            {
              "internalType": "uint256",
              "name": "price",
              "type": "uint256"
            },
            {
              "internalType": "bytes",
              "name": "Rgstno",
              "type": "bytes"
            },
            {
              "internalType": "bytes",
              "name": "gstno",
              "type": "bytes"
            },
            {
              "internalType": "bytes",
              "name": "Mgstno",
              "type": "bytes"
            },
            {
              "internalType": "bool",
              "name": "fulfilled",
              "type": "bool"
            }
          ],
          "internalType": "struct Org.Order[]",
          "name": "",
          "type": "tuple[]"
        }
      ],
      "stateMutability": "view",
      "type": "function",
      "constant": true
    },
    {
      "inputs": [
        {
          "internalType": "bytes",
          "name": "orderId",
          "type": "bytes"
        },
        {
          "internalType": "bytes",
          "name": "manufacturerGstno",
          "type": "bytes"
        }
      ],
      "name": "forwardToManuFacturer",
      "outputs": [],
      "stateMutability": "nonpayable",
      "type": "function"
    },
    {
      "inputs": [
        {
          "internalType": "bytes",
          "name": "orderId",
          "type": "bytes"
        }
      ],
      "name": "fulfillOrderManufacturer",
      "outputs": [],
      "stateMutability": "nonpayable",
      "type": "function"
    },
    {
      "inputs": [],
      "name": "getAdmin",
      "outputs": [
        {
          "components": [
            {
              "internalType": "address",
              "name": "id",
              "type": "address"
            },
            {
              "internalType": "bytes",
              "name": "name",
              "type": "bytes"
            },
            {
              "internalType": "bytes",
              "name": "addr",
              "type": "bytes"
            },
            {
              "internalType": "bytes",
              "name": "email",
              "type": "bytes"
            },
            {
              "internalType": "bytes",
              "name": "con",
              "type": "bytes"
            },
            {
              "internalType": "bytes",
              "name": "typ",
              "type": "bytes"
            },
            {
              "internalType": "bytes",
              "name": "role",
              "type": "bytes"
            },
            {
              "internalType": "bool",
              "name": "verified",
              "type": "bool"
            }
          ],
          "internalType": "struct Org.Admin",
          "name": "",
          "type": "tuple"
        }
      ],
      "stateMutability": "view",
      "type": "function",
      "constant": true
    },
    {
      "inputs": [],
      "name": "getBuyer",
      "outputs": [
        {
          "components": [
            {
              "internalType": "address",
              "name": "id",
              "type": "address"
            },
            {
              "internalType": "bytes",
              "name": "name",
              "type": "bytes"
            },
            {
              "internalType": "bytes",
              "name": "aadharno",
              "type": "bytes"
            },
            {
              "internalType": "bytes",
              "name": "addr",
              "type": "bytes"
            },
            {
              "internalType": "bytes",
              "name": "con",
              "type": "bytes"
            },
            {
              "internalType": "bytes",
              "name": "typ",
              "type": "bytes"
            },
            {
              "internalType": "bytes",
              "name": "landdetails",
              "type": "bytes"
            },
            {
              "internalType": "bytes",
              "name": "fertilizersused",
              "type": "bytes"
            },
            {
              "internalType": "bytes",
              "name": "noofcrops",
              "type": "bytes"
            },
            {
              "internalType": "bytes",
              "name": "role",
              "type": "bytes"
            },
            {
              "internalType": "bool",
              "name": "verified",
              "type": "bool"
            },
            {
              "internalType": "uint256",
              "name": "orderCount",
              "type": "uint256"
            }
          ],
          "internalType": "struct Org.Farmer",
          "name": "",
          "type": "tuple"
        }
      ],
      "stateMutability": "view",
      "type": "function",
      "constant": true
    },
    {
      "inputs": [],
      "name": "getSeller",
      "outputs": [
        {
          "components": [
            {
              "internalType": "address",
              "name": "id",
              "type": "address"
            },
            {
              "internalType": "bytes",
              "name": "name",
              "type": "bytes"
            },
            {
              "internalType": "bytes",
              "name": "email",
              "type": "bytes"
            },
            {
              "internalType": "bytes",
              "name": "con",
              "type": "bytes"
            },
            {
              "internalType": "bytes",
              "name": "gstno",
              "type": "bytes"
            },
            {
              "internalType": "bytes",
              "name": "addr",
              "type": "bytes"
            },
            {
              "internalType": "bytes",
              "name": "typ",
              "type": "bytes"
            },
            {
              "internalType": "bytes",
              "name": "role",
              "type": "bytes"
            },
            {
              "internalType": "bool",
              "name": "verified",
              "type": "bool"
            }
          ],
          "internalType": "struct Org.Seller",
          "name": "",
          "type": "tuple"
        }
      ],
      "stateMutability": "view",
      "type": "function",
      "constant": true
    },
    {
      "inputs": [],
      "name": "getUnverifiedBuyers",
      "outputs": [
        {
          "components": [
            {
              "internalType": "address",
              "name": "id",
              "type": "address"
            },
            {
              "internalType": "bytes",
              "name": "name",
              "type": "bytes"
            },
            {
              "internalType": "bytes",
              "name": "aadharno",
              "type": "bytes"
            },
            {
              "internalType": "bytes",
              "name": "addr",
              "type": "bytes"
            },
            {
              "internalType": "bytes",
              "name": "con",
              "type": "bytes"
            },
            {
              "internalType": "bytes",
              "name": "typ",
              "type": "bytes"
            },
            {
              "internalType": "bytes",
              "name": "landdetails",
              "type": "bytes"
            },
            {
              "internalType": "bytes",
              "name": "fertilizersused",
              "type": "bytes"
            },
            {
              "internalType": "bytes",
              "name": "noofcrops",
              "type": "bytes"
            },
            {
              "internalType": "bytes",
              "name": "role",
              "type": "bytes"
            },
            {
              "internalType": "bool",
              "name": "verified",
              "type": "bool"
            },
            {
              "internalType": "uint256",
              "name": "orderCount",
              "type": "uint256"
            }
          ],
          "internalType": "struct Org.Farmer[]",
          "name": "",
          "type": "tuple[]"
        }
      ],
      "stateMutability": "view",
      "type": "function",
      "constant": true
    },
    {
      "inputs": [],
      "name": "getUnverifiedSellers",
      "outputs": [
        {
          "components": [
            {
              "internalType": "address",
              "name": "id",
              "type": "address"
            },
            {
              "internalType": "bytes",
              "name": "name",
              "type": "bytes"
            },
            {
              "internalType": "bytes",
              "name": "email",
              "type": "bytes"
            },
            {
              "internalType": "bytes",
              "name": "con",
              "type": "bytes"
            },
            {
              "internalType": "bytes",
              "name": "gstno",
              "type": "bytes"
            },
            {
              "internalType": "bytes",
              "name": "addr",
              "type": "bytes"
            },
            {
              "internalType": "bytes",
              "name": "typ",
              "type": "bytes"
            },
            {
              "internalType": "bytes",
              "name": "role",
              "type": "bytes"
            },
            {
              "internalType": "bool",
              "name": "verified",
              "type": "bool"
            }
          ],
          "internalType": "struct Org.Seller[]",
          "name": "",
          "type": "tuple[]"
        }
      ],
      "stateMutability": "view",
      "type": "function",
      "constant": true
    },
    {
      "inputs": [],
      "name": "getVerifiedBuyers",
      "outputs": [
        {
          "components": [
            {
              "internalType": "address",
              "name": "id",
              "type": "address"
            },
            {
              "internalType": "bytes",
              "name": "name",
              "type": "bytes"
            },
            {
              "internalType": "bytes",
              "name": "aadharno",
              "type": "bytes"
            },
            {
              "internalType": "bytes",
              "name": "addr",
              "type": "bytes"
            },
            {
              "internalType": "bytes",
              "name": "con",
              "type": "bytes"
            },
            {
              "internalType": "bytes",
              "name": "typ",
              "type": "bytes"
            },
            {
              "internalType": "bytes",
              "name": "landdetails",
              "type": "bytes"
            },
            {
              "internalType": "bytes",
              "name": "fertilizersused",
              "type": "bytes"
            },
            {
              "internalType": "bytes",
              "name": "noofcrops",
              "type": "bytes"
            },
            {
              "internalType": "bytes",
              "name": "role",
              "type": "bytes"
            },
            {
              "internalType": "bool",
              "name": "verified",
              "type": "bool"
            },
            {
              "internalType": "uint256",
              "name": "orderCount",
              "type": "uint256"
            }
          ],
          "internalType": "struct Org.Farmer[]",
          "name": "",
          "type": "tuple[]"
        }
      ],
      "stateMutability": "view",
      "type": "function",
      "constant": true
    },
    {
      "inputs": [],
      "name": "getVerifiedSellers",
      "outputs": [
        {
          "components": [
            {
              "internalType": "address",
              "name": "id",
              "type": "address"
            },
            {
              "internalType": "bytes",
              "name": "name",
              "type": "bytes"
            },
            {
              "internalType": "bytes",
              "name": "email",
              "type": "bytes"
            },
            {
              "internalType": "bytes",
              "name": "con",
              "type": "bytes"
            },
            {
              "internalType": "bytes",
              "name": "gstno",
              "type": "bytes"
            },
            {
              "internalType": "bytes",
              "name": "addr",
              "type": "bytes"
            },
            {
              "internalType": "bytes",
              "name": "typ",
              "type": "bytes"
            },
            {
              "internalType": "bytes",
              "name": "role",
              "type": "bytes"
            },
            {
              "internalType": "bool",
              "name": "verified",
              "type": "bool"
            }
          ],
          "internalType": "struct Org.Seller[]",
          "name": "",
          "type": "tuple[]"
        }
      ],
      "stateMutability": "view",
      "type": "function",
      "constant": true
    },
    {
      "inputs": [
        {
          "internalType": "address",
          "name": "_address",
          "type": "address"
        }
      ],
      "name": "verifyBuyers",
      "outputs": [],
      "stateMutability": "nonpayable",
      "type": "function"
    },
    {
      "inputs": [
        {
          "internalType": "address",
          "name": "_address",
          "type": "address"
        }
      ],
      "name": "verifySellers",
      "outputs": [],
      "stateMutability": "nonpayable",
      "type": "function"
    },
    {
      "inputs": [],
      "name": "getVerifiedBuyerCount",
      "outputs": [
        {
          "internalType": "uint256",
          "name": "",
          "type": "uint256"
        }
      ],
      "stateMutability": "view",
      "type": "function",
      "constant": true
    },
    {
      "inputs": [],
      "name": "getVerifiedSellerCount",
      "outputs": [
        {
          "internalType": "uint256",
          "name": "",
          "type": "uint256"
        }
      ],
      "stateMutability": "view",
      "type": "function",
      "constant": true
    }
  ],
  "bytecode": "0x60806040526005600b556000600c556000600d553480156200002057600080fd5b50604051620065ad380380620065ad83398181016040528101906200004691906200044b565b6040518061010001604052803373ffffffffffffffffffffffffffffffffffffffff1681526020018681526020018581526020018481526020018381526020018281526020016040518060400160405280600581526020017f61646d696e0000000000000000000000000000000000000000000000000000008152508152602001600115158152506000808201518160000160006101000a81548173ffffffffffffffffffffffffffffffffffffffff021916908373ffffffffffffffffffffffffffffffffffffffff160217905550602082015181600101908051906020019062000134929190620001fe565b50604082015181600201908051906020019062000153929190620001fe565b50606082015181600301908051906020019062000172929190620001fe565b50608082015181600401908051906020019062000191929190620001fe565b5060a0820151816005019080519060200190620001b0929190620001fe565b5060c0820151816006019080519060200190620001cf929190620001fe565b5060e08201518160070160006101000a81548160ff0219169083151502179055509050505050505050620005d3565b8280546200020c906200059d565b90600052602060002090601f0160209004810192826200023057600085556200027c565b82601f106200024b57805160ff19168380011785556200027c565b828001600101855582156200027c579182015b828111156200027b5782518255916020019190600101906200025e565b5b5090506200028b91906200028f565b5090565b5b80821115620002aa57600081600090555060010162000290565b5090565b6000604051905090565b600080fd5b600080fd5b600080fd5b600080fd5b6000601f19601f8301169050919050565b7f4e487b7100000000000000000000000000000000000000000000000000000000600052604160045260246000fd5b6200031782620002cc565b810181811067ffffffffffffffff82111715620003395762000338620002dd565b5b80604052505050565b60006200034e620002ae565b90506200035c82826200030c565b919050565b600067ffffffffffffffff8211156200037f576200037e620002dd565b5b6200038a82620002cc565b9050602081019050919050565b60005b83811015620003b75780820151818401526020810190506200039a565b83811115620003c7576000848401525b50505050565b6000620003e4620003de8462000361565b62000342565b905082815260208101848484011115620004035762000402620002c7565b5b6200041084828562000397565b509392505050565b600082601f83011262000430576200042f620002c2565b5b815162000442848260208601620003cd565b91505092915050565b600080600080600060a086880312156200046a5762000469620002b8565b5b600086015167ffffffffffffffff8111156200048b576200048a620002bd565b5b620004998882890162000418565b955050602086015167ffffffffffffffff811115620004bd57620004bc620002bd565b5b620004cb8882890162000418565b945050604086015167ffffffffffffffff811115620004ef57620004ee620002bd565b5b620004fd8882890162000418565b935050606086015167ffffffffffffffff811115620005215762000520620002bd565b5b6200052f8882890162000418565b925050608086015167ffffffffffffffff811115620005535762000552620002bd565b5b620005618882890162000418565b9150509295509295909350565b7f4e487b7100000000000000000000000000000000000000000000000000000000600052602260045260246000fd5b60006002820490506001821680620005b657607f821691505b60208210811415620005cd57620005cc6200056e565b5b50919050565b615fca80620005e36000396000f3fe608060405234801561001057600080fd5b506004361061010b5760003560e01c806376b52ee6116100a2578063dbd0e1b611610071578063dbd0e1b61461026e578063e808f2331461028c578063f08cfbed146102a8578063f5187095146102c4578063f75fcb9f146102e25761010b565b806376b52ee6146101fa57806376ee69dc14610218578063a85362a114610234578063abde8630146102505761010b565b806352765a9e116100de57806352765a9e14610184578063603daf9a146101a25780636e9960c3146101c057806371f64abd146101de5761010b565b80631055a2411461011057806321f20c191461012e5780632e2dc43e1461014a57806345e86b4114610168575b600080fd5b610118610300565b6040516101259190614764565b60405180910390f35b610148600480360381019061014391906147c6565b6109c6565b005b610152610bbd565b60405161015f91906149ce565b60405180910390f35b610182600480360381019061017d9190614b25565b611054565b005b61018c611363565b6040516101999190614764565b60405180910390f35b6101aa611a1a565b6040516101b79190614df7565b60405180910390f35b6101c861209c565b6040516101d59190614eec565b60405180910390f35b6101f860048036038101906101f391906147c6565b612494565b005b61020261268b565b60405161020f9190614f1d565b60405180910390f35b610232600480360381019061022d9190614f38565b612695565b005b61024e60048036038101906102499190614f81565b6127ee565b005b610258612944565b6040516102659190614f1d565b60405180910390f35b61027661294e565b60405161028391906150e8565b60405180910390f35b6102a660048036038101906102a19190615136565b612ea2565b005b6102c260048036038101906102bd91906152a8565b6132b5565b005b6102cc613568565b6040516102d9919061558e565b60405180910390f35b6102ea613b00565b6040516102f7919061558e565b60405180910390f35b60606000600c5460088054905061031791906155df565b67ffffffffffffffff8111156103305761032f6149fa565b5b60405190808252806020026020018201604052801561036957816020015b61035661427b565b81526020019060019003908161034e5790505b5090506000805b6008805490508110156109bd576008818154811061039157610390615613565b5b90600052602060002090600c0201600a0160009054906101000a900460ff166109aa57600881815481106103c8576103c7615613565b5b90600052602060002090600c0201604051806101800160405290816000820160009054906101000a900473ffffffffffffffffffffffffffffffffffffffff1673ffffffffffffffffffffffffffffffffffffffff1673ffffffffffffffffffffffffffffffffffffffff16815260200160018201805461044890615671565b80601f016020809104026020016040519081016040528092919081815260200182805461047490615671565b80156104c15780601f10610496576101008083540402835291602001916104c1565b820191906000526020600020905b8154815290600101906020018083116104a457829003601f168201915b505050505081526020016002820180546104da90615671565b80601f016020809104026020016040519081016040528092919081815260200182805461050690615671565b80156105535780601f1061052857610100808354040283529160200191610553565b820191906000526020600020905b81548152906001019060200180831161053657829003601f168201915b5050505050815260200160038201805461056c90615671565b80601f016020809104026020016040519081016040528092919081815260200182805461059890615671565b80156105e55780601f106105ba576101008083540402835291602001916105e5565b820191906000526020600020905b8154815290600101906020018083116105c857829003601f168201915b505050505081526020016004820180546105fe90615671565b80601f016020809104026020016040519081016040528092919081815260200182805461062a90615671565b80156106775780601f1061064c57610100808354040283529160200191610677565b820191906000526020600020905b81548152906001019060200180831161065a57829003601f168201915b5050505050815260200160058201805461069090615671565b80601f01602080910402602001604051908101604052809291908181526020018280546106bc90615671565b80156107095780601f106106de57610100808354040283529160200191610709565b820191906000526020600020905b8154815290600101906020018083116106ec57829003601f168201915b5050505050815260200160068201805461072290615671565b80601f016020809104026020016040519081016040528092919081815260200182805461074e90615671565b801561079b5780601f106107705761010080835404028352916020019161079b565b820191906000526020600020905b81548152906001019060200180831161077e57829003601f168201915b505050505081526020016007820180546107b490615671565b80601f01602080910402602001604051908101604052809291908181526020018280546107e090615671565b801561082d5780601f106108025761010080835404028352916020019161082d565b820191906000526020600020905b81548152906001019060200180831161081057829003601f168201915b5050505050815260200160088201805461084690615671565b80601f016020809104026020016040519081016040528092919081815260200182805461087290615671565b80156108bf5780601f10610894576101008083540402835291602001916108bf565b820191906000526020600020905b8154815290600101906020018083116108a257829003601f168201915b505050505081526020016009820180546108d890615671565b80601f016020809104026020016040519081016040528092919081815260200182805461090490615671565b80156109515780601f1061092657610100808354040283529160200191610951565b820191906000526020600020905b81548152906001019060200180831161093457829003601f168201915b50505050508152602001600a820160009054906101000a900460ff16151515158152602001600b8201548152505083838061098b906156a3565b94508151811061099e5761099d615613565b5b60200260200101819052505b80806109b5906156a3565b915050610370565b50819250505090565b6000800160009054906101000a900473ffffffffffffffffffffffffffffffffffffffff1673ffffffffffffffffffffffffffffffffffffffff163373ffffffffffffffffffffffffffffffffffffffff1614610a58576040517f08c379a0000000000000000000000000000000000000000000000000000000008152600401610a4f9061576f565b60405180910390fd5b60005b600980549050811015610b84578173ffffffffffffffffffffffffffffffffffffffff1660098281548110610a9357610a92615613565b5b906000526020600020906009020160000160009054906101000a900473ffffffffffffffffffffffffffffffffffffffff1673ffffffffffffffffffffffffffffffffffffffff161415610b7157600160098281548110610af757610af6615613565b5b906000526020600020906009020160080160006101000a81548160ff021916908315150217905550600d6000815480929190610b32906156a3565b91905055507fa379dad39af58b0f35f6930262c5bdf0cde3cb8aabe122a33a582648d6dbbb7a604051610b64906157db565b60405180910390a1610b84565b8080610b7c906156a3565b915050610a5b565b507fa379dad39af58b0f35f6930262c5bdf0cde3cb8aabe122a33a582648d6dbbb7a604051610bb290615847565b60405180910390a150565b6060600a805480602002602001604051908101604052809291908181526020016000905b8282101561104b57838290600052602060002090600b020160405180610160016040529081600082018054610c1590615671565b80601f0160208091040260200160405190810160405280929190818152602001828054610c4190615671565b8015610c8e5780601f10610c6357610100808354040283529160200191610c8e565b820191906000526020600020905b815481529060010190602001808311610c7157829003601f168201915b50505050508152602001600182018054610ca790615671565b80601f0160208091040260200160405190810160405280929190818152602001828054610cd390615671565b8015610d205780601f10610cf557610100808354040283529160200191610d20565b820191906000526020600020905b815481529060010190602001808311610d0357829003601f168201915b50505050508152602001600282018054610d3990615671565b80601f0160208091040260200160405190810160405280929190818152602001828054610d6590615671565b8015610db25780601f10610d8757610100808354040283529160200191610db2565b820191906000526020600020905b815481529060010190602001808311610d9557829003601f168201915b5050505050815260200160038201548152602001600482018054610dd590615671565b80601f0160208091040260200160405190810160405280929190818152602001828054610e0190615671565b8015610e4e5780601f10610e2357610100808354040283529160200191610e4e565b820191906000526020600020905b815481529060010190602001808311610e3157829003601f168201915b505050505081526020016005820154815260200160068201548152602001600782018054610e7b90615671565b80601f0160208091040260200160405190810160405280929190818152602001828054610ea790615671565b8015610ef45780601f10610ec957610100808354040283529160200191610ef4565b820191906000526020600020905b815481529060010190602001808311610ed757829003601f168201915b50505050508152602001600882018054610f0d90615671565b80601f0160208091040260200160405190810160405280929190818152602001828054610f3990615671565b8015610f865780601f10610f5b57610100808354040283529160200191610f86565b820191906000526020600020905b815481529060010190602001808311610f6957829003601f168201915b50505050508152602001600982018054610f9f90615671565b80601f0160208091040260200160405190810160405280929190818152602001828054610fcb90615671565b80156110185780601f10610fed57610100808354040283529160200191611018565b820191906000526020600020905b815481529060010190602001808311610ffb57829003601f168201915b50505050508152602001600a820160009054906101000a900460ff16151515158152505081526020019060010190610be1565b50505050905090565b600061105e611a1a565b9050600073ffffffffffffffffffffffffffffffffffffffff16816000015173ffffffffffffffffffffffffffffffffffffffff16146110d3576040517f08c379a00000000000000000000000000000000000000000000000000000000081526004016110ca906158b3565b60405180910390fd5b60006040518061018001604052803373ffffffffffffffffffffffffffffffffffffffff1681526020018b81526020018a81526020018981526020018881526020018781526020018681526020018581526020018481526020016040518060400160405280600581526020017f627579657200000000000000000000000000000000000000000000000000000081525081526020016000151581526020016000815250905060088190806001815401808255809150506001900390600052602060002090600c020160009091909190915060008201518160000160006101000a81548173ffffffffffffffffffffffffffffffffffffffff021916908373ffffffffffffffffffffffffffffffffffffffff16021790555060208201518160010190805190602001906112079291906142f4565b5060408201518160020190805190602001906112249291906142f4565b5060608201518160030190805190602001906112419291906142f4565b50608082015181600401908051906020019061125e9291906142f4565b5060a082015181600501908051906020019061127b9291906142f4565b5060c08201518160060190805190602001906112989291906142f4565b5060e08201518160070190805190602001906112b59291906142f4565b506101008201518160080190805190602001906112d39291906142f4565b506101208201518160090190805190602001906112f19291906142f4565b5061014082015181600a0160006101000a81548160ff02191690831515021790555061016082015181600b015550507fe544271fb2ae6362ae468b495e2a08bd05f986fca644adb5acbeb97036a4cc898160405161134f9190614df7565b60405180910390a150505050505050505050565b60606000600c5467ffffffffffffffff811115611383576113826149fa565b5b6040519080825280602002602001820160405280156113bc57816020015b6113a961427b565b8152602001906001900390816113a15790505b5090506000805b600880549050811015611a1157600881815481106113e4576113e3615613565b5b90600052602060002090600c0201600a0160009054906101000a900460ff16156119fe576008818154811061141c5761141b615613565b5b90600052602060002090600c0201604051806101800160405290816000820160009054906101000a900473ffffffffffffffffffffffffffffffffffffffff1673ffffffffffffffffffffffffffffffffffffffff1673ffffffffffffffffffffffffffffffffffffffff16815260200160018201805461149c90615671565b80601f01602080910402602001604051908101604052809291908181526020018280546114c890615671565b80156115155780601f106114ea57610100808354040283529160200191611515565b820191906000526020600020905b8154815290600101906020018083116114f857829003601f168201915b5050505050815260200160028201805461152e90615671565b80601f016020809104026020016040519081016040528092919081815260200182805461155a90615671565b80156115a75780601f1061157c576101008083540402835291602001916115a7565b820191906000526020600020905b81548152906001019060200180831161158a57829003601f168201915b505050505081526020016003820180546115c090615671565b80601f01602080910402602001604051908101604052809291908181526020018280546115ec90615671565b80156116395780601f1061160e57610100808354040283529160200191611639565b820191906000526020600020905b81548152906001019060200180831161161c57829003601f168201915b5050505050815260200160048201805461165290615671565b80601f016020809104026020016040519081016040528092919081815260200182805461167e90615671565b80156116cb5780601f106116a0576101008083540402835291602001916116cb565b820191906000526020600020905b8154815290600101906020018083116116ae57829003601f168201915b505050505081526020016005820180546116e490615671565b80601f016020809104026020016040519081016040528092919081815260200182805461171090615671565b801561175d5780601f106117325761010080835404028352916020019161175d565b820191906000526020600020905b81548152906001019060200180831161174057829003601f168201915b5050505050815260200160068201805461177690615671565b80601f01602080910402602001604051908101604052809291908181526020018280546117a290615671565b80156117ef5780601f106117c4576101008083540402835291602001916117ef565b820191906000526020600020905b8154815290600101906020018083116117d257829003601f168201915b5050505050815260200160078201805461180890615671565b80601f016020809104026020016040519081016040528092919081815260200182805461183490615671565b80156118815780601f1061185657610100808354040283529160200191611881565b820191906000526020600020905b81548152906001019060200180831161186457829003601f168201915b5050505050815260200160088201805461189a90615671565b80601f01602080910402602001604051908101604052809291908181526020018280546118c690615671565b80156119135780601f106118e857610100808354040283529160200191611913565b820191906000526020600020905b8154815290600101906020018083116118f657829003601f168201915b5050505050815260200160098201805461192c90615671565b80601f016020809104026020016040519081016040528092919081815260200182805461195890615671565b80156119a55780601f1061197a576101008083540402835291602001916119a5565b820191906000526020600020905b81548152906001019060200180831161198857829003601f168201915b50505050508152602001600a820160009054906101000a900460ff16151515158152602001600b820154815250508383806119df906156a3565b9450815181106119f2576119f1615613565b5b60200260200101819052505b8080611a09906156a3565b9150506113c3565b50819250505090565b611a2261427b565b611a2a61427b565b60005b600880549050811015612094573373ffffffffffffffffffffffffffffffffffffffff1660088281548110611a6557611a64615613565b5b90600052602060002090600c020160000160009054906101000a900473ffffffffffffffffffffffffffffffffffffffff1673ffffffffffffffffffffffffffffffffffffffff1614156120815760088181548110611ac757611ac6615613565b5b90600052602060002090600c0201604051806101800160405290816000820160009054906101000a900473ffffffffffffffffffffffffffffffffffffffff1673ffffffffffffffffffffffffffffffffffffffff1673ffffffffffffffffffffffffffffffffffffffff168152602001600182018054611b4790615671565b80601f0160208091040260200160405190810160405280929190818152602001828054611b7390615671565b8015611bc05780601f10611b9557610100808354040283529160200191611bc0565b820191906000526020600020905b815481529060010190602001808311611ba357829003601f168201915b50505050508152602001600282018054611bd990615671565b80601f0160208091040260200160405190810160405280929190818152602001828054611c0590615671565b8015611c525780601f10611c2757610100808354040283529160200191611c52565b820191906000526020600020905b815481529060010190602001808311611c3557829003601f168201915b50505050508152602001600382018054611c6b90615671565b80601f0160208091040260200160405190810160405280929190818152602001828054611c9790615671565b8015611ce45780601f10611cb957610100808354040283529160200191611ce4565b820191906000526020600020905b815481529060010190602001808311611cc757829003601f168201915b50505050508152602001600482018054611cfd90615671565b80601f0160208091040260200160405190810160405280929190818152602001828054611d2990615671565b8015611d765780601f10611d4b57610100808354040283529160200191611d76565b820191906000526020600020905b815481529060010190602001808311611d5957829003601f168201915b50505050508152602001600582018054611d8f90615671565b80601f0160208091040260200160405190810160405280929190818152602001828054611dbb90615671565b8015611e085780601f10611ddd57610100808354040283529160200191611e08565b820191906000526020600020905b815481529060010190602001808311611deb57829003601f168201915b50505050508152602001600682018054611e2190615671565b80601f0160208091040260200160405190810160405280929190818152602001828054611e4d90615671565b8015611e9a5780601f10611e6f57610100808354040283529160200191611e9a565b820191906000526020600020905b815481529060010190602001808311611e7d57829003601f168201915b50505050508152602001600782018054611eb390615671565b80601f0160208091040260200160405190810160405280929190818152602001828054611edf90615671565b8015611f2c5780601f10611f0157610100808354040283529160200191611f2c565b820191906000526020600020905b815481529060010190602001808311611f0f57829003601f168201915b50505050508152602001600882018054611f4590615671565b80601f0160208091040260200160405190810160405280929190818152602001828054611f7190615671565b8015611fbe5780601f10611f9357610100808354040283529160200191611fbe565b820191906000526020600020905b815481529060010190602001808311611fa157829003601f168201915b50505050508152602001600982018054611fd790615671565b80601f016020809104026020016040519081016040528092919081815260200182805461200390615671565b80156120505780601f1061202557610100808354040283529160200191612050565b820191906000526020600020905b81548152906001019060200180831161203357829003601f168201915b50505050508152602001600a820160009054906101000a900460ff16151515158152602001600b8201548152505091505b808061208c906156a3565b915050611a2d565b508091505090565b6120a461437a565b6000604051806101000160405290816000820160009054906101000a900473ffffffffffffffffffffffffffffffffffffffff1673ffffffffffffffffffffffffffffffffffffffff1673ffffffffffffffffffffffffffffffffffffffff16815260200160018201805461211890615671565b80601f016020809104026020016040519081016040528092919081815260200182805461214490615671565b80156121915780601f1061216657610100808354040283529160200191612191565b820191906000526020600020905b81548152906001019060200180831161217457829003601f168201915b505050505081526020016002820180546121aa90615671565b80601f01602080910402602001604051908101604052809291908181526020018280546121d690615671565b80156122235780601f106121f857610100808354040283529160200191612223565b820191906000526020600020905b81548152906001019060200180831161220657829003601f168201915b5050505050815260200160038201805461223c90615671565b80601f016020809104026020016040519081016040528092919081815260200182805461226890615671565b80156122b55780601f1061228a576101008083540402835291602001916122b5565b820191906000526020600020905b81548152906001019060200180831161229857829003601f168201915b505050505081526020016004820180546122ce90615671565b80601f01602080910402602001604051908101604052809291908181526020018280546122fa90615671565b80156123475780601f1061231c57610100808354040283529160200191612347565b820191906000526020600020905b81548152906001019060200180831161232a57829003601f168201915b5050505050815260200160058201805461236090615671565b80601f016020809104026020016040519081016040528092919081815260200182805461238c90615671565b80156123d95780601f106123ae576101008083540402835291602001916123d9565b820191906000526020600020905b8154815290600101906020018083116123bc57829003601f168201915b505050505081526020016006820180546123f290615671565b80601f016020809104026020016040519081016040528092919081815260200182805461241e90615671565b801561246b5780601f106124405761010080835404028352916020019161246b565b820191906000526020600020905b81548152906001019060200180831161244e57829003601f168201915b505050505081526020016007820160009054906101000a900460ff161515151581525050905090565b6000800160009054906101000a900473ffffffffffffffffffffffffffffffffffffffff1673ffffffffffffffffffffffffffffffffffffffff163373ffffffffffffffffffffffffffffffffffffffff1614612526576040517f08c379a000000000000000000000000000000000000000000000000000000000815260040161251d9061591f565b60405180910390fd5b60005b600880549050811015612652578173ffffffffffffffffffffffffffffffffffffffff166008828154811061256157612560615613565b5b90600052602060002090600c020160000160009054906101000a900473ffffffffffffffffffffffffffffffffffffffff1673ffffffffffffffffffffffffffffffffffffffff16141561263f576001600882815481106125c5576125c4615613565b5b90600052602060002090600c0201600a0160006101000a81548160ff021916908315150217905550600c6000815480929190612600906156a3565b91905055507f1fd367a936cb02134d1fcabf294982ccd371a72d89e3b0d3e788305d3600ddd46040516126329061598b565b60405180910390a1612652565b808061264a906156a3565b915050612529565b507f1fd367a936cb02134d1fcabf294982ccd371a72d89e3b0d3e788305d3600ddd4604051612680906159f7565b60405180910390a150565b6000600c54905090565b600061269f61294e565b9050600073ffffffffffffffffffffffffffffffffffffffff16816000015173ffffffffffffffffffffffffffffffffffffffff161415612715576040517f08c379a000000000000000000000000000000000000000000000000000000000815260040161270c90615a89565b60405180910390fd5b80610100015161275a576040517f08c379a000000000000000000000000000000000000000000000000000000000815260040161275190615b1b565b60405180910390fd5b600061276583614089565b905060008112156127ab576040517f08c379a00000000000000000000000000000000000000000000000000000000081526004016127a290615b87565b60405180910390fd5b6001600a82815481106127c1576127c0615613565b5b90600052602060002090600b0201600a0160006101000a81548160ff021916908315150217905550505050565b60006127f861294e565b9050600073ffffffffffffffffffffffffffffffffffffffff16816000015173ffffffffffffffffffffffffffffffffffffffff16141561286e576040517f08c379a000000000000000000000000000000000000000000000000000000000815260040161286590615a89565b60405180910390fd5b8061010001516128b3576040517f08c379a00000000000000000000000000000000000000000000000000000000081526004016128aa90615b1b565b60405180910390fd5b60006128be84614089565b90506000811215612904576040517f08c379a00000000000000000000000000000000000000000000000000000000081526004016128fb90615b87565b60405180910390fd5b82600a828154811061291957612918615613565b5b90600052602060002090600b0201600901908051906020019061293d9291906142f4565b5050505050565b6000600d54905090565b6129566143d7565b61295e6143d7565b60005b600980549050811015612e9a573373ffffffffffffffffffffffffffffffffffffffff166009828154811061299957612998615613565b5b906000526020600020906009020160000160009054906101000a900473ffffffffffffffffffffffffffffffffffffffff1673ffffffffffffffffffffffffffffffffffffffff161415612e8757600981815481106129fb576129fa615613565b5b9060005260206000209060090201604051806101200160405290816000820160009054906101000a900473ffffffffffffffffffffffffffffffffffffffff1673ffffffffffffffffffffffffffffffffffffffff1673ffffffffffffffffffffffffffffffffffffffff168152602001600182018054612a7b90615671565b80601f0160208091040260200160405190810160405280929190818152602001828054612aa790615671565b8015612af45780601f10612ac957610100808354040283529160200191612af4565b820191906000526020600020905b815481529060010190602001808311612ad757829003601f168201915b50505050508152602001600282018054612b0d90615671565b80601f0160208091040260200160405190810160405280929190818152602001828054612b3990615671565b8015612b865780601f10612b5b57610100808354040283529160200191612b86565b820191906000526020600020905b815481529060010190602001808311612b6957829003601f168201915b50505050508152602001600382018054612b9f90615671565b80601f0160208091040260200160405190810160405280929190818152602001828054612bcb90615671565b8015612c185780601f10612bed57610100808354040283529160200191612c18565b820191906000526020600020905b815481529060010190602001808311612bfb57829003601f168201915b50505050508152602001600482018054612c3190615671565b80601f0160208091040260200160405190810160405280929190818152602001828054612c5d90615671565b8015612caa5780601f10612c7f57610100808354040283529160200191612caa565b820191906000526020600020905b815481529060010190602001808311612c8d57829003601f168201915b50505050508152602001600582018054612cc390615671565b80601f0160208091040260200160405190810160405280929190818152602001828054612cef90615671565b8015612d3c5780601f10612d1157610100808354040283529160200191612d3c565b820191906000526020600020905b815481529060010190602001808311612d1f57829003601f168201915b50505050508152602001600682018054612d5590615671565b80601f0160208091040260200160405190810160405280929190818152602001828054612d8190615671565b8015612dce5780601f10612da357610100808354040283529160200191612dce565b820191906000526020600020905b815481529060010190602001808311612db157829003601f168201915b50505050508152602001600782018054612de790615671565b80601f0160208091040260200160405190810160405280929190818152602001828054612e1390615671565b8015612e605780601f10612e3557610100808354040283529160200191612e60565b820191906000526020600020905b815481529060010190602001808311612e4357829003601f168201915b505050505081526020016008820160009054906101000a900460ff16151515158152505091505b8080612e92906156a3565b915050612961565b508091505090565b6000612eac61294e565b9050600073ffffffffffffffffffffffffffffffffffffffff16816000015173ffffffffffffffffffffffffffffffffffffffff161415612f22576040517f08c379a0000000000000000000000000000000000000000000000000000000008152600401612f1990615a89565b60405180910390fd5b806101000151612f67576040517f08c379a0000000000000000000000000000000000000000000000000000000008152600401612f5e90615b1b565b60405180910390fd5b6000612f728961412f565b90506000811215612fb8576040517f08c379a0000000000000000000000000000000000000000000000000000000008152600401612faf90615bf3565b60405180910390fd5b600b5460088281548110612fcf57612fce615613565b5b90600052602060002090600c0201600b015410613021576040517f08c379a000000000000000000000000000000000000000000000000000000000815260040161301890615c85565b60405180910390fd5b600061302c8c6141d5565b90506000811215613072576040517f08c379a000000000000000000000000000000000000000000000000000000000815260040161306990615d17565b60405180910390fd5b60006040518061016001604052808e81526020018d81526020018c81526020018b81526020018a81526020018981526020018881526020018781526020018681526020016040518060400160405280600481526020017f30783330000000000000000000000000000000000000000000000000000000008152508152602001600015158152509050600a8190806001815401808255809150506001900390600052602060002090600b020160009091909190915060008201518160000190805190602001906131429291906142f4565b50602082015181600101908051906020019061315f9291906142f4565b50604082015181600201908051906020019061317c9291906142f4565b506060820151816003015560808201518160040190805190602001906131a39291906142f4565b5060a0820151816005015560c0820151816006015560e08201518160070190805190602001906131d49291906142f4565b506101008201518160080190805190602001906131f29291906142f4565b506101208201518160090190805190602001906132109291906142f4565b5061014082015181600a0160006101000a81548160ff02191690831515021790555050506008838154811061324857613247615613565b5b90600052602060002090600c0201600b01600081548092919061326a906156a3565b91905055507fc10f1278da6698c288160bd052d11596038faf54756fe3b042b003301bb65dd28160405161329e9190615e50565b60405180910390a150505050505050505050505050565b60006132bf61294e565b9050600073ffffffffffffffffffffffffffffffffffffffff16816000015173ffffffffffffffffffffffffffffffffffffffff1614613334576040517f08c379a000000000000000000000000000000000000000000000000000000000815260040161332b90615ebe565b60405180910390fd5b60006040518061012001604052803373ffffffffffffffffffffffffffffffffffffffff1681526020018981526020018881526020018781526020018681526020018581526020018481526020016040518060400160405280600681526020017f73656c6c657200000000000000000000000000000000000000000000000000008152508152602001600015158152509050600981908060018154018082558091505060019003906000526020600020906009020160009091909190915060008201518160000160006101000a81548173ffffffffffffffffffffffffffffffffffffffff021916908373ffffffffffffffffffffffffffffffffffffffff16021790555060208201518160010190805190602001906134559291906142f4565b5060408201518160020190805190602001906134729291906142f4565b50606082015181600301908051906020019061348f9291906142f4565b5060808201518160040190805190602001906134ac9291906142f4565b5060a08201518160050190805190602001906134c99291906142f4565b5060c08201518160060190805190602001906134e69291906142f4565b5060e08201518160070190805190602001906135039291906142f4565b506101008201518160080160006101000a81548160ff02191690831515021790555050507f4d6c9cb9e736695727b9911179f91c71830c89645e085ef34943f634766640758160405161355691906150e8565b60405180910390a15050505050505050565b60606000600d5460098054905061357f91906155df565b67ffffffffffffffff811115613598576135976149fa565b5b6040519080825280602002602001820160405280156135d157816020015b6135be6143d7565b8152602001906001900390816135b65790505b5090506000805b600980549050811015613af757600981815481106135f9576135f8615613565b5b906000526020600020906009020160080160009054906101000a900460ff16613ae457600981815481106136305761362f615613565b5b9060005260206000209060090201604051806101200160405290816000820160009054906101000a900473ffffffffffffffffffffffffffffffffffffffff1673ffffffffffffffffffffffffffffffffffffffff1673ffffffffffffffffffffffffffffffffffffffff1681526020016001820180546136b090615671565b80601f01602080910402602001604051908101604052809291908181526020018280546136dc90615671565b80156137295780601f106136fe57610100808354040283529160200191613729565b820191906000526020600020905b81548152906001019060200180831161370c57829003601f168201915b5050505050815260200160028201805461374290615671565b80601f016020809104026020016040519081016040528092919081815260200182805461376e90615671565b80156137bb5780601f10613790576101008083540402835291602001916137bb565b820191906000526020600020905b81548152906001019060200180831161379e57829003601f168201915b505050505081526020016003820180546137d490615671565b80601f016020809104026020016040519081016040528092919081815260200182805461380090615671565b801561384d5780601f106138225761010080835404028352916020019161384d565b820191906000526020600020905b81548152906001019060200180831161383057829003601f168201915b5050505050815260200160048201805461386690615671565b80601f016020809104026020016040519081016040528092919081815260200182805461389290615671565b80156138df5780601f106138b4576101008083540402835291602001916138df565b820191906000526020600020905b8154815290600101906020018083116138c257829003601f168201915b505050505081526020016005820180546138f890615671565b80601f016020809104026020016040519081016040528092919081815260200182805461392490615671565b80156139715780601f1061394657610100808354040283529160200191613971565b820191906000526020600020905b81548152906001019060200180831161395457829003601f168201915b5050505050815260200160068201805461398a90615671565b80601f01602080910402602001604051908101604052809291908181526020018280546139b690615671565b8015613a035780601f106139d857610100808354040283529160200191613a03565b820191906000526020600020905b8154815290600101906020018083116139e657829003601f168201915b50505050508152602001600782018054613a1c90615671565b80601f0160208091040260200160405190810160405280929190818152602001828054613a4890615671565b8015613a955780601f10613a6a57610100808354040283529160200191613a95565b820191906000526020600020905b815481529060010190602001808311613a7857829003601f168201915b505050505081526020016008820160009054906101000a900460ff161515151581525050838380613ac5906156a3565b945081518110613ad857613ad7615613565b5b60200260200101819052505b8080613aef906156a3565b9150506135d8565b50819250505090565b60606000600d5467ffffffffffffffff811115613b2057613b1f6149fa565b5b604051908082528060200260200182016040528015613b5957816020015b613b466143d7565b815260200190600190039081613b3e5790505b5090506000805b6009805490508110156140805760098181548110613b8157613b80615613565b5b906000526020600020906009020160080160009054906101000a900460ff161561406d5760098181548110613bb957613bb8615613565b5b9060005260206000209060090201604051806101200160405290816000820160009054906101000a900473ffffffffffffffffffffffffffffffffffffffff1673ffffffffffffffffffffffffffffffffffffffff1673ffffffffffffffffffffffffffffffffffffffff168152602001600182018054613c3990615671565b80601f0160208091040260200160405190810160405280929190818152602001828054613c6590615671565b8015613cb25780601f10613c8757610100808354040283529160200191613cb2565b820191906000526020600020905b815481529060010190602001808311613c9557829003601f168201915b50505050508152602001600282018054613ccb90615671565b80601f0160208091040260200160405190810160405280929190818152602001828054613cf790615671565b8015613d445780601f10613d1957610100808354040283529160200191613d44565b820191906000526020600020905b815481529060010190602001808311613d2757829003601f168201915b50505050508152602001600382018054613d5d90615671565b80601f0160208091040260200160405190810160405280929190818152602001828054613d8990615671565b8015613dd65780601f10613dab57610100808354040283529160200191613dd6565b820191906000526020600020905b815481529060010190602001808311613db957829003601f168201915b50505050508152602001600482018054613def90615671565b80601f0160208091040260200160405190810160405280929190818152602001828054613e1b90615671565b8015613e685780601f10613e3d57610100808354040283529160200191613e68565b820191906000526020600020905b815481529060010190602001808311613e4b57829003601f168201915b50505050508152602001600582018054613e8190615671565b80601f0160208091040260200160405190810160405280929190818152602001828054613ead90615671565b8015613efa5780601f10613ecf57610100808354040283529160200191613efa565b820191906000526020600020905b815481529060010190602001808311613edd57829003601f168201915b50505050508152602001600682018054613f1390615671565b80601f0160208091040260200160405190810160405280929190818152602001828054613f3f90615671565b8015613f8c5780601f10613f6157610100808354040283529160200191613f8c565b820191906000526020600020905b815481529060010190602001808311613f6f57829003601f168201915b50505050508152602001600782018054613fa590615671565b80601f0160208091040260200160405190810160405280929190818152602001828054613fd190615671565b801561401e5780601f10613ff35761010080835404028352916020019161401e565b820191906000526020600020905b81548152906001019060200180831161400157829003601f168201915b505050505081526020016008820160009054906101000a900460ff16151515158152505083838061404e906156a3565b94508151811061406157614060615613565b5b60200260200101819052505b8080614078906156a3565b915050613b60565b50819250505090565b6000808280519060200120905060005b600a8054905081101561410457600a81815481106140ba576140b9615613565b5b90600052602060002090600b02016000016040516140d89190615f7d565b60405180910390208214156140f157809250505061412a565b80806140fc906156a3565b915050614099565b507fffffffffffffffffffffffffffffffffffffffffffffffffffffffffffffffff9150505b919050565b6000808280519060200120905060005b6008805490508110156141aa57600881815481106141605761415f615613565b5b90600052602060002090600c020160040160405161417e9190615f7d565b60405180910390208214156141975780925050506141d0565b80806141a2906156a3565b91505061413f565b507fffffffffffffffffffffffffffffffffffffffffffffffffffffffffffffffff9150505b919050565b6000808280519060200120905060005b600a8054905081101561427057600a818154811061420657614205615613565b5b90600052602060002090600b02016000016040516142249190615f7d565b604051809103902082141561425d577fffffffffffffffffffffffffffffffffffffffffffffffffffffffffffffffff92505050614276565b8080614268906156a3565b9150506141e5565b80925050505b919050565b604051806101800160405280600073ffffffffffffffffffffffffffffffffffffffff168152602001606081526020016060815260200160608152602001606081526020016060815260200160608152602001606081526020016060815260200160608152602001600015158152602001600081525090565b82805461430090615671565b90600052602060002090601f0160209004810192826143225760008555614369565b82601f1061433b57805160ff1916838001178555614369565b82800160010185558215614369579182015b8281111561436857825182559160200191906001019061434d565b5b509050614376919061443b565b5090565b604051806101000160405280600073ffffffffffffffffffffffffffffffffffffffff1681526020016060815260200160608152602001606081526020016060815260200160608152602001606081526020016000151581525090565b604051806101200160405280600073ffffffffffffffffffffffffffffffffffffffff168152602001606081526020016060815260200160608152602001606081526020016060815260200160608152602001606081526020016000151581525090565b5b8082111561445457600081600090555060010161443c565b5090565b600081519050919050565b600082825260208201905092915050565b6000819050602082019050919050565b600073ffffffffffffffffffffffffffffffffffffffff82169050919050565b60006144af82614484565b9050919050565b6144bf816144a4565b82525050565b600081519050919050565b600082825260208201905092915050565b60005b838110156144ff5780820151818401526020810190506144e4565b8381111561450e576000848401525b50505050565b6000601f19601f8301169050919050565b6000614530826144c5565b61453a81856144d0565b935061454a8185602086016144e1565b61455381614514565b840191505092915050565b60008115159050919050565b6145738161455e565b82525050565b6000819050919050565b61458c81614579565b82525050565b6000610180830160008301516145ab60008601826144b6565b50602083015184820360208601526145c38282614525565b915050604083015184820360408601526145dd8282614525565b915050606083015184820360608601526145f78282614525565b915050608083015184820360808601526146118282614525565b91505060a083015184820360a086015261462b8282614525565b91505060c083015184820360c08601526146458282614525565b91505060e083015184820360e086015261465f8282614525565b91505061010083015184820361010086015261467b8282614525565b9150506101208301518482036101208601526146978282614525565b9150506101408301516146ae61014086018261456a565b506101608301516146c3610160860182614583565b508091505092915050565b60006146da8383614592565b905092915050565b6000602082019050919050565b60006146fa82614458565b6147048185614463565b93508360208202850161471685614474565b8060005b85811015614752578484038952815161473385826146ce565b945061473e836146e2565b925060208a0199505060018101905061471a565b50829750879550505050505092915050565b6000602082019050818103600083015261477e81846146ef565b905092915050565b6000604051905090565b600080fd5b600080fd5b6147a3816144a4565b81146147ae57600080fd5b50565b6000813590506147c08161479a565b92915050565b6000602082840312156147dc576147db614790565b5b60006147ea848285016147b1565b91505092915050565b600081519050919050565b600082825260208201905092915050565b6000819050602082019050919050565b600061016083016000830151848203600086015261483d8282614525565b915050602083015184820360208601526148578282614525565b915050604083015184820360408601526148718282614525565b91505060608301516148866060860182614583565b506080830151848203608086015261489e8282614525565b91505060a08301516148b360a0860182614583565b5060c08301516148c660c0860182614583565b5060e083015184820360e08601526148de8282614525565b9150506101008301518482036101008601526148fa8282614525565b9150506101208301518482036101208601526149168282614525565b91505061014083015161492d61014086018261456a565b508091505092915050565b6000614944838361481f565b905092915050565b6000602082019050919050565b6000614964826147f3565b61496e81856147fe565b9350836020820285016149808561480f565b8060005b858110156149bc578484038952815161499d8582614938565b94506149a88361494c565b925060208a01995050600181019050614984565b50829750879550505050505092915050565b600060208201905081810360008301526149e88184614959565b905092915050565b600080fd5b600080fd5b7f4e487b7100000000000000000000000000000000000000000000000000000000600052604160045260246000fd5b614a3282614514565b810181811067ffffffffffffffff82111715614a5157614a506149fa565b5b80604052505050565b6000614a64614786565b9050614a708282614a29565b919050565b600067ffffffffffffffff821115614a9057614a8f6149fa565b5b614a9982614514565b9050602081019050919050565b82818337600083830152505050565b6000614ac8614ac384614a75565b614a5a565b905082815260208101848484011115614ae457614ae36149f5565b5b614aef848285614aa6565b509392505050565b600082601f830112614b0c57614b0b6149f0565b5b8135614b1c848260208601614ab5565b91505092915050565b600080600080600080600080610100898b031215614b4657614b45614790565b5b600089013567ffffffffffffffff811115614b6457614b63614795565b5b614b708b828c01614af7565b985050602089013567ffffffffffffffff811115614b9157614b90614795565b5b614b9d8b828c01614af7565b975050604089013567ffffffffffffffff811115614bbe57614bbd614795565b5b614bca8b828c01614af7565b965050606089013567ffffffffffffffff811115614beb57614bea614795565b5b614bf78b828c01614af7565b955050608089013567ffffffffffffffff811115614c1857614c17614795565b5b614c248b828c01614af7565b94505060a089013567ffffffffffffffff811115614c4557614c44614795565b5b614c518b828c01614af7565b93505060c089013567ffffffffffffffff811115614c7257614c71614795565b5b614c7e8b828c01614af7565b92505060e089013567ffffffffffffffff811115614c9f57614c9e614795565b5b614cab8b828c01614af7565b9150509295985092959890939650565b600061018083016000830151614cd460008601826144b6565b5060208301518482036020860152614cec8282614525565b91505060408301518482036040860152614d068282614525565b91505060608301518482036060860152614d208282614525565b91505060808301518482036080860152614d3a8282614525565b91505060a083015184820360a0860152614d548282614525565b91505060c083015184820360c0860152614d6e8282614525565b91505060e083015184820360e0860152614d888282614525565b915050610100830151848203610100860152614da48282614525565b915050610120830151848203610120860152614dc08282614525565b915050610140830151614dd761014086018261456a565b50610160830151614dec610160860182614583565b508091505092915050565b60006020820190508181036000830152614e118184614cbb565b905092915050565b600061010083016000830151614e3260008601826144b6565b5060208301518482036020860152614e4a8282614525565b91505060408301518482036040860152614e648282614525565b91505060608301518482036060860152614e7e8282614525565b91505060808301518482036080860152614e988282614525565b91505060a083015184820360a0860152614eb28282614525565b91505060c083015184820360c0860152614ecc8282614525565b91505060e0830151614ee160e086018261456a565b508091505092915050565b60006020820190508181036000830152614f068184614e19565b905092915050565b614f1781614579565b82525050565b6000602082019050614f326000830184614f0e565b92915050565b600060208284031215614f4e57614f4d614790565b5b600082013567ffffffffffffffff811115614f6c57614f6b614795565b5b614f7884828501614af7565b91505092915050565b60008060408385031215614f9857614f97614790565b5b600083013567ffffffffffffffff811115614fb657614fb5614795565b5b614fc285828601614af7565b925050602083013567ffffffffffffffff811115614fe357614fe2614795565b5b614fef85828601614af7565b9150509250929050565b60006101208301600083015161501260008601826144b6565b506020830151848203602086015261502a8282614525565b915050604083015184820360408601526150448282614525565b9150506060830151848203606086015261505e8282614525565b915050608083015184820360808601526150788282614525565b91505060a083015184820360a08601526150928282614525565b91505060c083015184820360c08601526150ac8282614525565b91505060e083015184820360e08601526150c68282614525565b9150506101008301516150dd61010086018261456a565b508091505092915050565b600060208201905081810360008301526151028184614ff9565b905092915050565b61511381614579565b811461511e57600080fd5b50565b6000813590506151308161510a565b92915050565b60008060008060008060008060006101208a8c03121561515957615158614790565b5b60008a013567ffffffffffffffff81111561517757615176614795565b5b6151838c828d01614af7565b99505060208a013567ffffffffffffffff8111156151a4576151a3614795565b5b6151b08c828d01614af7565b98505060408a013567ffffffffffffffff8111156151d1576151d0614795565b5b6151dd8c828d01614af7565b97505060606151ee8c828d01615121565b96505060808a013567ffffffffffffffff81111561520f5761520e614795565b5b61521b8c828d01614af7565b95505060a061522c8c828d01615121565b94505060c061523d8c828d01615121565b93505060e08a013567ffffffffffffffff81111561525e5761525d614795565b5b61526a8c828d01614af7565b9250506101008a013567ffffffffffffffff81111561528c5761528b614795565b5b6152988c828d01614af7565b9150509295985092959850929598565b60008060008060008060c087890312156152c5576152c4614790565b5b600087013567ffffffffffffffff8111156152e3576152e2614795565b5b6152ef89828a01614af7565b965050602087013567ffffffffffffffff8111156153105761530f614795565b5b61531c89828a01614af7565b955050604087013567ffffffffffffffff81111561533d5761533c614795565b5b61534989828a01614af7565b945050606087013567ffffffffffffffff81111561536a57615369614795565b5b61537689828a01614af7565b935050608087013567ffffffffffffffff81111561539757615396614795565b5b6153a389828a01614af7565b92505060a087013567ffffffffffffffff8111156153c4576153c3614795565b5b6153d089828a01614af7565b9150509295509295509295565b600081519050919050565b600082825260208201905092915050565b6000819050602082019050919050565b60006101208301600083015161542260008601826144b6565b506020830151848203602086015261543a8282614525565b915050604083015184820360408601526154548282614525565b9150506060830151848203606086015261546e8282614525565b915050608083015184820360808601526154888282614525565b91505060a083015184820360a08601526154a28282614525565b91505060c083015184820360c08601526154bc8282614525565b91505060e083015184820360e08601526154d68282614525565b9150506101008301516154ed61010086018261456a565b508091505092915050565b60006155048383615409565b905092915050565b6000602082019050919050565b6000615524826153dd565b61552e81856153e8565b935083602082028501615540856153f9565b8060005b8581101561557c578484038952815161555d85826154f8565b94506155688361550c565b925060208a01995050600181019050615544565b50829750879550505050505092915050565b600060208201905081810360008301526155a88184615519565b905092915050565b7f4e487b7100000000000000000000000000000000000000000000000000000000600052601160045260246000fd5b60006155ea82614579565b91506155f583614579565b925082821015615608576156076155b0565b5b828203905092915050565b7f4e487b7100000000000000000000000000000000000000000000000000000000600052603260045260246000fd5b7f4e487b7100000000000000000000000000000000000000000000000000000000600052602260045260246000fd5b6000600282049050600182168061568957607f821691505b6020821081141561569d5761569c615642565b5b50919050565b60006156ae82614579565b91507fffffffffffffffffffffffffffffffffffffffffffffffffffffffffffffffff8214156156e1576156e06155b0565b5b600182019050919050565b600082825260208201905092915050565b7f4f6e6c792061646d696e2063616e20766572696679204f7267616e697a61746960008201527f6f6e000000000000000000000000000000000000000000000000000000000000602082015250565b60006157596022836156ec565b9150615764826156fd565b604082019050919050565b600060208201905081810360008301526157888161574c565b9050919050565b7f53656c6c65722075706461746520737563636573730000000000000000000000600082015250565b60006157c56015836156ec565b91506157d08261578f565b602082019050919050565b600060208201905081810360008301526157f4816157b8565b9050919050565b7f436f756c646e27742066696e642073656c6c65722e0000000000000000000000600082015250565b60006158316015836156ec565b915061583c826157fb565b602082019050919050565b6000602082019050818103600083015261586081615824565b9050919050565b7f4661726d657220616c7265616479207265676973746572640000000000000000600082015250565b600061589d6018836156ec565b91506158a882615867565b602082019050919050565b600060208201905081810360008301526158cc81615890565b9050919050565b7f4f6e6c792061646d696e2063616e207665726966792042757965720000000000600082015250565b6000615909601b836156ec565b9150615914826158d3565b602082019050919050565b60006020820190508181036000830152615938816158fc565b9050919050565b7f4661726d65722075706461746520737563636573730000000000000000000000600082015250565b60006159756015836156ec565b91506159808261593f565b602082019050919050565b600060208201905081810360008301526159a481615968565b9050919050565b7f436f756c646e27742066696e64206661726d65722e0000000000000000000000600082015250565b60006159e16015836156ec565b91506159ec826159ab565b602082019050919050565b60006020820190508181036000830152615a10816159d4565b9050919050565b7f4f6e6c7920726567697374657265642073656c6c6572732063616e20706c616360008201527f65206f7264657273000000000000000000000000000000000000000000000000602082015250565b6000615a736028836156ec565b9150615a7e82615a17565b604082019050919050565b60006020820190508181036000830152615aa281615a66565b9050919050565b7f4f6e6c792076657269666965642073656c6c6572732063616e20706c6163652060008201527f6f72646572730000000000000000000000000000000000000000000000000000602082015250565b6000615b056026836156ec565b9150615b1082615aa9565b604082019050919050565b60006020820190508181036000830152615b3481615af8565b9050919050565b7f496e76616c6964204f7264657220496400000000000000000000000000000000600082015250565b6000615b716010836156ec565b9150615b7c82615b3b565b602082019050919050565b60006020820190508181036000830152615ba081615b64565b9050919050565b7f4661726d6572206e6f7420666f756e6400000000000000000000000000000000600082015250565b6000615bdd6010836156ec565b9150615be882615ba7565b602082019050919050565b60006020820190508181036000830152615c0c81615bd0565b9050919050565b7f596f75206861766520657863656564656420796f7572206f72646572206c696d60008201527f6974000000000000000000000000000000000000000000000000000000000000602082015250565b6000615c6f6022836156ec565b9150615c7a82615c13565b604082019050919050565b60006020820190508181036000830152615c9e81615c62565b9050919050565b7f43616e6e6f7420706c616365206d756c7469706c65206f72646572206174207360008201527f616d652064617921210000000000000000000000000000000000000000000000602082015250565b6000615d016029836156ec565b9150615d0c82615ca5565b604082019050919050565b60006020820190508181036000830152615d3081615cf4565b9050919050565b6000610160830160008301518482036000860152615d558282614525565b91505060208301518482036020860152615d6f8282614525565b91505060408301518482036040860152615d898282614525565b9150506060830151615d9e6060860182614583565b5060808301518482036080860152615db68282614525565b91505060a0830151615dcb60a0860182614583565b5060c0830151615dde60c0860182614583565b5060e083015184820360e0860152615df68282614525565b915050610100830151848203610100860152615e128282614525565b915050610120830151848203610120860152615e2e8282614525565b915050610140830151615e4561014086018261456a565b508091505092915050565b60006020820190508181036000830152615e6a8184615d37565b905092915050565b7f53656c6c657220416c7265616479205265676973746572656400000000000000600082015250565b6000615ea86019836156ec565b9150615eb382615e72565b602082019050919050565b60006020820190508181036000830152615ed781615e9b565b9050919050565b600081905092915050565b60008190508160005260206000209050919050565b60008154615f0b81615671565b615f158186615ede565b94506001821660008114615f305760018114615f4157615f74565b60ff19831686528186019350615f74565b615f4a85615ee9565b60005b83811015615f6c57815481890152600182019150602081019050615f4d565b838801955050505b50505092915050565b6000615f898284615efe565b91508190509291505056fea2646970667358221220213f4df24b1573220e5c106035e02e5eaa39a754c99feecfcf768d34b6fb578764736f6c634300080a0033",
  "immutableReferences": {},
  "source": "// SPDX-License-Identifier: GPL-3.0\npragma solidity >=0.5.0 <0.9.0;\npragma experimental ABIEncoderV2;\n\ncontract Org {\n\n    //address admin;\n    struct Admin {\n        address id;\n        bytes name;\n        bytes addr;\n        bytes email;\n        bytes con;\n        bytes typ;\n        bytes role;\n        bool verified;\n    }\n\n    struct Farmer {\n        address id;\n        bytes name;\n        bytes aadharno;\n        bytes addr;\n        bytes con; //contacts\n        bytes typ;\n        bytes landdetails;\n        bytes fertilizersused;\n        bytes noofcrops;\n        bytes role;\n        bool verified;\n        uint256 orderCount;\n    }\n\n    struct Seller {\n        address id;\n        bytes name;\n        bytes email;\n        bytes con;\n        bytes gstno;\n        bytes addr;\n        bytes typ;\n        bytes role;\n        bool verified;\n    }\n\n    struct Order {\n        bytes orderId;\n        bytes buyername;\n        bytes contact;\n        uint256 order_date;\n        //address sellerId;\n        //address buyerId;\n        bytes product;\n        uint256 quantity;\n        uint256 price;\n        bytes Rgstno;\n        bytes  gstno;\n        bytes Mgstno;\n        bool fulfilled;\n    }\n\n    //Variables for the objects\n    //Admin private admin;\n    Admin private adminval;\n    Farmer[] private farmers;\n    Seller[] private sellers;\n    Order[] private orders;\n    uint256 MAX_ORDER_COUNT = 5;\n    uint256 private verifiedBuyerCount = 0;\n    uint256 private verifiedSellerCount = 0;\n\n    //Events\n    event onFarmerRegistration(Farmer _farmervalue);\n    event onRegisterSeller(Seller _sellervalue);\n    event onAddOrders(Order _order);\n    event onAddOrdersWholeseller(Order _order);\n    event VerifyBuyers(string _message);\n    event VerifySellers(string _message);\n\n    //Contractor will create the admin for the contract\n    constructor(\n        bytes memory name,\n        bytes memory addr,\n        bytes memory email,\n        bytes memory con,\n        bytes memory typ\n    )  {\n        adminval = Admin(msg.sender, name, addr, email, con, typ, \"admin\", true);\n    }\n\n    //To onboard new farmer, will this address be other address ? as farmer will not have the technology for the same\n    function registerFarmer(\n        bytes memory name,\n        bytes memory aadharno,\n        bytes memory addr,\n        bytes memory con,\n        bytes memory typ,\n        bytes memory landdetails,\n        bytes memory fertilizersused,\n        bytes memory noofcrops\n    ) public {\n        //check for same address \n        Farmer memory farmer = getBuyer();\n\n        require(farmer.id == address(0), \"Farmer already registerd\");\n        \n        Farmer memory newFarmer = Farmer(\n            msg.sender,\n            name,\n            aadharno,\n            addr,\n            con,\n            typ,\n            landdetails,\n            fertilizersused,\n            noofcrops,\n            \"buyer\",\n            false,\n            0\n        );\n        farmers.push(newFarmer);\n        emit onFarmerRegistration(newFarmer);\n    }\n\n    //Registration of Seller\n    function registerSeller(\n        bytes memory name,\n        bytes memory email,\n        bytes memory con,\n        bytes memory gstno,\n        bytes memory addr,\n        bytes memory typ\n    ) public {\n        Seller memory seller = getSeller();\n        //Can't register same seller again and again\n        require(seller.id == address(0), \"Seller Already Registered\");\n\n        Seller memory sellervalue = Seller(\n            msg.sender,\n            name,\n            email,\n            con,\n            gstno,\n            addr,\n            typ,\n            \"seller\",\n            false\n        );\n        sellers.push(sellervalue);\n        emit onRegisterSeller(sellervalue);\n    }\n\n    function addOrders(\n        bytes memory orderId,\n        bytes memory buyername,\n        bytes memory contact,\n        uint256 order_date,\n        //address sellerId;\n        //address buyerId;\n        bytes memory product,\n        uint256 quantity,\n        uint256 price, \n        bytes memory Rgstno,\n        bytes memory gstno\n    ) public {\n        Seller memory seller = getSeller();\n\n        require(seller.id != address(0), \"Only registered sellers can place orders\");\n\n        require(seller.verified, \"Only verified sellers can place orders\");\n\n        int256 farmerIdx = getFarmerIdxByContact(contact);\n\n        require(farmerIdx >= 0 , \"Farmer not found\");\n\n        require(farmers[uint256(farmerIdx)].orderCount < MAX_ORDER_COUNT, \"You have exceeded your order limit\");\n        //cannot place more than one order at same day\n        int256 OrderAtSameDate=NoOrderAtSameDate(orderId);\n        require(OrderAtSameDate >= 0 , \"Cannot place multiple order at same day!!\");\n        Order memory order = Order({\n            orderId: orderId,\n            buyername: buyername,\n            contact: contact,\n            order_date: order_date,\n            product: product,\n            quantity: quantity,\n            price: price,\n            Rgstno: Rgstno,\n            gstno: gstno,\n            Mgstno: \"0x30\",\n            fulfilled:false\n        });\n        orders.push(order);\n\n        // Update order count for the buyer\n        farmers[uint256(farmerIdx)].orderCount++;\n        emit onAddOrders(order);\n    }\n\n    function getOrders() public view returns (Order[] memory) {\n        return orders;\n    }\n    //Function to forward order from wholeseller to manufacturer\n    function forwardToManuFacturer(\n        bytes memory orderId,\n        bytes memory manufacturerGstno\n    ) public{\n        Seller memory seller = getSeller();\n\n        require(seller.id != address(0), \"Only registered sellers can place orders\");\n\n        require(seller.verified, \"Only verified sellers can place orders\");\n        \n        int256 orderIdx = getOrderIdxByOrderId(orderId);\n\n        require(orderIdx >= 0 , \"Invalid Order Id\");\n        orders[uint256(orderIdx)].Mgstno=manufacturerGstno;\n    }\n\n    //Function to Fulfill/accept order at Manufacturer end \n    function fulfillOrderManufacturer(bytes memory orderId) public {\n\n        Seller memory seller = getSeller();\n\n        require(seller.id != address(0), \"Only registered sellers can place orders\");\n\n        require(seller.verified, \"Only verified sellers can place orders\");\n       \n        int256 orderIdx = getOrderIdxByOrderId(orderId);\n\n        require(orderIdx >= 0 , \"Invalid Order Id\");\n        orders[uint256(orderIdx)].fulfilled=true;\n    }\n\n\n    function getAdmin() public view returns (Admin memory) {\n        return adminval;\n    }\n\n    function getBuyer() public view returns (Farmer memory) {\n        Farmer memory farmer;\n        for (uint256 i = 0; i < farmers.length; i++) {\n            if (farmers[i].id == msg.sender) {\n                farmer = farmers[i];\n            }\n        }\n        return farmer;\n    }\n\n    function getSeller() public view returns (Seller memory) {\n        Seller memory seller;\n        for (uint256 i = 0; i < sellers.length; i++) {\n            if (sellers[i].id == msg.sender) {\n                seller = sellers[i];\n            }\n        }\n        return seller;\n    }\n\n    function getUnverifiedBuyers() public view returns (Farmer[] memory) {\n        Farmer[] memory unverifiedFarmer = new Farmer[](farmers.length - verifiedBuyerCount);\n        uint256 fidx = 0;\n        for (uint256 i = 0; i < farmers.length; i++) {\n            if (!farmers[i].verified) {\n                unverifiedFarmer[fidx++] = farmers[i];\n            }\n        }\n        return unverifiedFarmer;\n    }\n\n    function getUnverifiedSellers() public view returns (Seller[] memory) {\n        Seller[] memory unverifiedSellers = new Seller[](sellers.length - verifiedSellerCount);\n        uint256 sidx = 0;\n        for (uint256 i = 0; i < sellers.length; i++) {\n            if (!sellers[i].verified) {\n                unverifiedSellers[sidx++] = sellers[i];\n            }\n        }\n        return unverifiedSellers;\n    }\n\n    //Get verified farmers\n    function getVerifiedBuyers() public view returns (Farmer[] memory) {\n        Farmer[] memory verifiedFarmer = new Farmer[](verifiedBuyerCount);\n        uint256 fidx = 0;\n        for (uint256 i = 0; i < farmers.length; i++) {\n            if (farmers[i].verified) {\n                verifiedFarmer[fidx++] = farmers[i];\n            }\n        }\n        return verifiedFarmer;\n    }\n\n    function getVerifiedSellers() public view returns (Seller[] memory) {\n        Seller[] memory verifiedSellers = new Seller[](verifiedSellerCount);\n        uint256 sidx = 0;\n        for (uint256 i = 0; i < sellers.length; i++) {\n            if (sellers[i].verified) {\n                verifiedSellers[sidx++] = sellers[i];\n            }\n        }\n        return verifiedSellers;\n    }\n\n        //Farmer verification \n    function verifyBuyers(address _address) public {\n        require(msg.sender == adminval.id, \"Only admin can verify Buyer\");\n        for(uint256 i = 0; i < farmers.length; i++){\n            if(farmers[i].id == _address){\n                farmers[i].verified = true;\n                verifiedBuyerCount++;\n                emit VerifyBuyers(\"Farmer update success\");\n                break;\n            }\n        }\n        emit VerifyBuyers(\"Couldn't find farmer.\");\n    }\n\n    function verifySellers(address _address) public {\n        require(msg.sender == adminval.id, \"Only admin can verify Organization\");\n        for(uint256 i = 0; i < sellers.length; i++){\n            if(sellers[i].id == _address){\n                sellers[i].verified = true;\n                verifiedSellerCount++;\n                emit VerifySellers(\"Seller update success\");\n                break;\n            }\n        }\n        emit VerifySellers(\"Couldn't find seller.\");\n    }\n\n    function getFarmerIdxByContact(bytes memory contact) private view returns (int256){\n        bytes32 con = keccak256(contact);\n        for (uint256 i = 0; i < farmers.length; i++) {\n            if (con == keccak256(farmers[i].con)) {\n               return int256(i);\n            }\n        }\n        return -1;\n    }\n    function getOrderIdxByOrderId(bytes memory orderId) private view returns(int256){\n        bytes32 oid=keccak256(orderId);\n        for (uint256 i = 0; i < orders.length; i++) {\n            if (oid == keccak256(orders[i].orderId)) {\n               return int256(i);\n            }\n        }\n        return -1;\n    }\n \n    /*Function for cannot place more than one order at same day,if oid matches with orderid\n    from orders array will return -1 else will return index*/\n    function NoOrderAtSameDate(bytes memory orderId) private view returns(int256){\n        bytes32 oid=keccak256(orderId);\n        uint256 i;\n        for (i = 0; i < orders.length; i++) {\n            if (oid == keccak256(orders[i].orderId)) {\n               return -1;\n            }\n        }\n        return int256(i);\n    }\n\n\n    function getVerifiedBuyerCount() public view returns (uint256){\n        return verifiedBuyerCount;\n    }\n\n    function getVerifiedSellerCount() public view returns (uint256){\n        return verifiedSellerCount;\n    }\n}",
  "sourcePath": "E:/blockchain_final/DBT-main/contracts/Org.sol",
  "compiler": {
    "name": "solc",
    "version": "0.8.10+commit.fc410830.Emscripten.clang"
  },
  "schemaVersion": "3.3.4",
  "updatedAt": "2024-03-27T15:46:48.373Z",
  "networkType": "ethereum",
  "devdoc": {
    "kind": "dev",
    "methods": {},
    "version": 1
  },
  "userdoc": {
    "kind": "user",
    "methods": {},
    "version": 1
  }
}